Archive member included to satisfy reference by file (symbol)

c:/nxp/mcuxpressoide_10.3.1_2233/ide/plugins/com.nxp.mcuxpresso.tools.win32_10.3.0.201811011841/tools/bin/../lib/gcc/arm-none-eabi/7.3.1/../../../../arm-none-eabi/lib/thumb/v7e-m/fpv5/hard\libcr_nohost_nf.a(_cr__main.o)
                              ./startup/startup_mimxrt106a.o (__main)
c:/nxp/mcuxpressoide_10.3.1_2233/ide/plugins/com.nxp.mcuxpresso.tools.win32_10.3.0.201811011841/tools/bin/../lib/gcc/arm-none-eabi/7.3.1/../../../../arm-none-eabi/lib/thumb/v7e-m/fpv5/hard\libcr_nohost_nf.a(_cr_assert.o)
                              ./wifi_wwd/platform/wwd_SDIO.o (__assertion_failed)
c:/nxp/mcuxpressoide_10.3.1_2233/ide/plugins/com.nxp.mcuxpresso.tools.win32_10.3.0.201811011841/tools/bin/../lib/gcc/arm-none-eabi/7.3.1/../../../../arm-none-eabi/lib/thumb/v7e-m/fpv5/hard\libcr_nohost_nf.a(__ciob.o)
                              c:/nxp/mcuxpressoide_10.3.1_2233/ide/plugins/com.nxp.mcuxpresso.tools.win32_10.3.0.201811011841/tools/bin/../lib/gcc/arm-none-eabi/7.3.1/../../../../arm-none-eabi/lib/thumb/v7e-m/fpv5/hard\libcr_nohost_nf.a(_cr_assert.o) (__Ciob)
c:/nxp/mcuxpressoide_10.3.1_2233/ide/plugins/com.nxp.mcuxpresso.tools.win32_10.3.0.201811011841/tools/bin/../lib/gcc/arm-none-eabi/7.3.1/../../../../arm-none-eabi/lib/thumb/v7e-m/fpv5/hard\libcr_nohost_nf.a(__sys_appexit.o)
                              c:/nxp/mcuxpressoide_10.3.1_2233/ide/plugins/com.nxp.mcuxpresso.tools.win32_10.3.0.201811011841/tools/bin/../lib/gcc/arm-none-eabi/7.3.1/../../../../arm-none-eabi/lib/thumb/v7e-m/fpv5/hard\libcr_nohost_nf.a(_cr_assert.o) (__sys_appexit)
c:/nxp/mcuxpressoide_10.3.1_2233/ide/plugins/com.nxp.mcuxpresso.tools.win32_10.3.0.201811011841/tools/bin/../lib/gcc/arm-none-eabi/7.3.1/../../../../arm-none-eabi/lib/thumb/v7e-m/fpv5/hard\libcr_c.a(memcpy.o)
                              ./wifi_wwd/platform/wwd_resources.o (memcpy)
c:/nxp/mcuxpressoide_10.3.1_2233/ide/plugins/com.nxp.mcuxpresso.tools.win32_10.3.0.201811011841/tools/bin/../lib/gcc/arm-none-eabi/7.3.1/../../../../arm-none-eabi/lib/thumb/v7e-m/fpv5/hard\libcr_c.a(memmove.o)
                              ./wifi_wwd/WWD/internal/wwd_sdpcm.o (memmove)
c:/nxp/mcuxpressoide_10.3.1_2233/ide/plugins/com.nxp.mcuxpresso.tools.win32_10.3.0.201811011841/tools/bin/../lib/gcc/arm-none-eabi/7.3.1/../../../../arm-none-eabi/lib/thumb/v7e-m/fpv5/hard\libcr_c.a(memset.o)
                              ./wifi_wwd/platform/wwd_SDIO.o (memset)
c:/nxp/mcuxpressoide_10.3.1_2233/ide/plugins/com.nxp.mcuxpresso.tools.win32_10.3.0.201811011841/tools/bin/../lib/gcc/arm-none-eabi/7.3.1/../../../../arm-none-eabi/lib/thumb/v7e-m/fpv5/hard\libcr_c.a(_deferredlazyseek.o)
                              c:/nxp/mcuxpressoide_10.3.1_2233/ide/plugins/com.nxp.mcuxpresso.tools.win32_10.3.0.201811011841/tools/bin/../lib/gcc/arm-none-eabi/7.3.1/../../../../arm-none-eabi/lib/thumb/v7e-m/fpv5/hard\libcr_nohost_nf.a(_cr_assert.o) (__flsbuf)
c:/nxp/mcuxpressoide_10.3.1_2233/ide/plugins/com.nxp.mcuxpresso.tools.win32_10.3.0.201811011841/tools/bin/../lib/gcc/arm-none-eabi/7.3.1/../../../../arm-none-eabi/lib/thumb/v7e-m/fpv5/hard\libcr_c.a(_fflush.o)
                              c:/nxp/mcuxpressoide_10.3.1_2233/ide/plugins/com.nxp.mcuxpresso.tools.win32_10.3.0.201811011841/tools/bin/../lib/gcc/arm-none-eabi/7.3.1/../../../../arm-none-eabi/lib/thumb/v7e-m/fpv5/hard\libcr_c.a(_deferredlazyseek.o) (_fflush)
c:/nxp/mcuxpressoide_10.3.1_2233/ide/plugins/com.nxp.mcuxpresso.tools.win32_10.3.0.201811011841/tools/bin/../lib/gcc/arm-none-eabi/7.3.1/../../../../arm-none-eabi/lib/thumb/v7e-m/fpv5/hard\libcr_c.a(_writebuf.o)
                              c:/nxp/mcuxpressoide_10.3.1_2233/ide/plugins/com.nxp.mcuxpresso.tools.win32_10.3.0.201811011841/tools/bin/../lib/gcc/arm-none-eabi/7.3.1/../../../../arm-none-eabi/lib/thumb/v7e-m/fpv5/hard\libcr_c.a(_deferredlazyseek.o) (_Cwritebuf)
c:/nxp/mcuxpressoide_10.3.1_2233/ide/plugins/com.nxp.mcuxpresso.tools.win32_10.3.0.201811011841/tools/bin/../lib/gcc/arm-none-eabi/7.3.1/../../../../arm-none-eabi/lib/thumb/v7e-m/fpv5/hard\libcr_c.a(alloc.o)
                              ./wifi_wwd/WWD/internal/wwd_clm.o (malloc)
c:/nxp/mcuxpressoide_10.3.1_2233/ide/plugins/com.nxp.mcuxpresso.tools.win32_10.3.0.201811011841/tools/bin/../lib/gcc/arm-none-eabi/7.3.1/../../../../arm-none-eabi/lib/thumb/v7e-m/fpv5/hard\libcr_c.a(ctype.o)
                              ./lwip/src/core/dns.o (tolower)
c:/nxp/mcuxpressoide_10.3.1_2233/ide/plugins/com.nxp.mcuxpresso.tools.win32_10.3.0.201811011841/tools/bin/../lib/gcc/arm-none-eabi/7.3.1/../../../../arm-none-eabi/lib/thumb/v7e-m/fpv5/hard\libcr_c.a(fputs.o)
                              c:/nxp/mcuxpressoide_10.3.1_2233/ide/plugins/com.nxp.mcuxpresso.tools.win32_10.3.0.201811011841/tools/bin/../lib/gcc/arm-none-eabi/7.3.1/../../../../arm-none-eabi/lib/thumb/v7e-m/fpv5/hard\libcr_nohost_nf.a(_cr_assert.o) (fputs)
c:/nxp/mcuxpressoide_10.3.1_2233/ide/plugins/com.nxp.mcuxpresso.tools.win32_10.3.0.201811011841/tools/bin/../lib/gcc/arm-none-eabi/7.3.1/../../../../arm-none-eabi/lib/thumb/v7e-m/fpv5/hard\libcr_c.a(fseek.o)
                              c:/nxp/mcuxpressoide_10.3.1_2233/ide/plugins/com.nxp.mcuxpresso.tools.win32_10.3.0.201811011841/tools/bin/../lib/gcc/arm-none-eabi/7.3.1/../../../../arm-none-eabi/lib/thumb/v7e-m/fpv5/hard\libcr_c.a(_deferredlazyseek.o) (fseek)
c:/nxp/mcuxpressoide_10.3.1_2233/ide/plugins/com.nxp.mcuxpresso.tools.win32_10.3.0.201811011841/tools/bin/../lib/gcc/arm-none-eabi/7.3.1/../../../../arm-none-eabi/lib/thumb/v7e-m/fpv5/hard\libcr_c.a(ftell.o)
                              c:/nxp/mcuxpressoide_10.3.1_2233/ide/plugins/com.nxp.mcuxpresso.tools.win32_10.3.0.201811011841/tools/bin/../lib/gcc/arm-none-eabi/7.3.1/../../../../arm-none-eabi/lib/thumb/v7e-m/fpv5/hard\libcr_c.a(fseek.o) (ftell)
c:/nxp/mcuxpressoide_10.3.1_2233/ide/plugins/com.nxp.mcuxpresso.tools.win32_10.3.0.201811011841/tools/bin/../lib/gcc/arm-none-eabi/7.3.1/../../../../arm-none-eabi/lib/thumb/v7e-m/fpv5/hard\libcr_c.a(initio.o)
                              c:/nxp/mcuxpressoide_10.3.1_2233/ide/plugins/com.nxp.mcuxpresso.tools.win32_10.3.0.201811011841/tools/bin/../lib/gcc/arm-none-eabi/7.3.1/../../../../arm-none-eabi/lib/thumb/v7e-m/fpv5/hard\libcr_nohost_nf.a(_cr__main.o) (_initio)
c:/nxp/mcuxpressoide_10.3.1_2233/ide/plugins/com.nxp.mcuxpresso.tools.win32_10.3.0.201811011841/tools/bin/../lib/gcc/arm-none-eabi/7.3.1/../../../../arm-none-eabi/lib/thumb/v7e-m/fpv5/hard\libcr_c.a(memcmp.o)
                              ./wifi_wwd/WWD/internal/wwd_sdpcm.o (memcmp)
c:/nxp/mcuxpressoide_10.3.1_2233/ide/plugins/com.nxp.mcuxpresso.tools.win32_10.3.0.201811011841/tools/bin/../lib/gcc/arm-none-eabi/7.3.1/../../../../arm-none-eabi/lib/thumb/v7e-m/fpv5/hard\libcr_c.a(printf.o)
                              ./wifi_wwd/WWD/internal/wwd_wifi_sleep.o (_snprintf)
c:/nxp/mcuxpressoide_10.3.1_2233/ide/plugins/com.nxp.mcuxpresso.tools.win32_10.3.0.201811011841/tools/bin/../lib/gcc/arm-none-eabi/7.3.1/../../../../arm-none-eabi/lib/thumb/v7e-m/fpv5/hard\libcr_c.a(scanf.o)
                              ./amazon-freertos/tls/aws_tls.o (sscanf)
c:/nxp/mcuxpressoide_10.3.1_2233/ide/plugins/com.nxp.mcuxpresso.tools.win32_10.3.0.201811011841/tools/bin/../lib/gcc/arm-none-eabi/7.3.1/../../../../arm-none-eabi/lib/thumb/v7e-m/fpv5/hard\libcr_c.a(setvbuf.o)
                              c:/nxp/mcuxpressoide_10.3.1_2233/ide/plugins/com.nxp.mcuxpresso.tools.win32_10.3.0.201811011841/tools/bin/../lib/gcc/arm-none-eabi/7.3.1/../../../../arm-none-eabi/lib/thumb/v7e-m/fpv5/hard\libcr_c.a(initio.o) (setvbuf)
c:/nxp/mcuxpressoide_10.3.1_2233/ide/plugins/com.nxp.mcuxpresso.tools.win32_10.3.0.201811011841/tools/bin/../lib/gcc/arm-none-eabi/7.3.1/../../../../arm-none-eabi/lib/thumb/v7e-m/fpv5/hard\libcr_c.a(stdlib.o)
                              ./mbedtls/library/rsa.o (rand)
c:/nxp/mcuxpressoide_10.3.1_2233/ide/plugins/com.nxp.mcuxpresso.tools.win32_10.3.0.201811011841/tools/bin/../lib/gcc/arm-none-eabi/7.3.1/../../../../arm-none-eabi/lib/thumb/v7e-m/fpv5/hard\libcr_c.a(strchr.o)
                              ./wifi_wwd/WWD/internal/wwd_wifi.o (strchr)
c:/nxp/mcuxpressoide_10.3.1_2233/ide/plugins/com.nxp.mcuxpresso.tools.win32_10.3.0.201811011841/tools/bin/../lib/gcc/arm-none-eabi/7.3.1/../../../../arm-none-eabi/lib/thumb/v7e-m/fpv5/hard\libcr_c.a(strcmp.o)
                              ./source/aws_ota_pal.o (strcmp)
c:/nxp/mcuxpressoide_10.3.1_2233/ide/plugins/com.nxp.mcuxpresso.tools.win32_10.3.0.201811011841/tools/bin/../lib/gcc/arm-none-eabi/7.3.1/../../../../arm-none-eabi/lib/thumb/v7e-m/fpv5/hard\libcr_c.a(strlen.o)
                              ./wifi_wwd/WWD/internal/wwd_sdpcm.o (strlen)
c:/nxp/mcuxpressoide_10.3.1_2233/ide/plugins/com.nxp.mcuxpresso.tools.win32_10.3.0.201811011841/tools/bin/../lib/gcc/arm-none-eabi/7.3.1/../../../../arm-none-eabi/lib/thumb/v7e-m/fpv5/hard\libcr_c.a(strncmp.o)
                              ./source/sln_flash_mgmt.o (strncmp)
c:/nxp/mcuxpressoide_10.3.1_2233/ide/plugins/com.nxp.mcuxpresso.tools.win32_10.3.0.201811011841/tools/bin/../lib/gcc/arm-none-eabi/7.3.1/../../../../arm-none-eabi/lib/thumb/v7e-m/fpv5/hard\libcr_c.a(strncpy.o)
                              ./lwip/src/api/netdb.o (strncpy)
c:/nxp/mcuxpressoide_10.3.1_2233/ide/plugins/com.nxp.mcuxpresso.tools.win32_10.3.0.201811011841/tools/bin/../lib/gcc/arm-none-eabi/7.3.1/../../../../arm-none-eabi/lib/thumb/v7e-m/fpv5/hard\libcr_c.a(strstr.o)
                              ./mbedtls/library/pem.o (strstr)
c:/nxp/mcuxpressoide_10.3.1_2233/ide/plugins/com.nxp.mcuxpresso.tools.win32_10.3.0.201811011841/tools/bin/../lib/gcc/arm-none-eabi/7.3.1/../../../../arm-none-eabi/lib/thumb/v7e-m/fpv5/hard\libcr_c.a(ungetc.o)
                              c:/nxp/mcuxpressoide_10.3.1_2233/ide/plugins/com.nxp.mcuxpresso.tools.win32_10.3.0.201811011841/tools/bin/../lib/gcc/arm-none-eabi/7.3.1/../../../../arm-none-eabi/lib/thumb/v7e-m/fpv5/hard\libcr_c.a(scanf.o) (ungetc)
c:/nxp/mcuxpressoide_10.3.1_2233/ide/plugins/com.nxp.mcuxpresso.tools.win32_10.3.0.201811011841/tools/bin/../lib/gcc/arm-none-eabi/7.3.1/../../../../arm-none-eabi/lib/thumb/v7e-m/fpv5/hard\libcr_c.a(__fillbuf.o)
                              c:/nxp/mcuxpressoide_10.3.1_2233/ide/plugins/com.nxp.mcuxpresso.tools.win32_10.3.0.201811011841/tools/bin/../lib/gcc/arm-none-eabi/7.3.1/../../../../arm-none-eabi/lib/thumb/v7e-m/fpv5/hard\libcr_c.a(scanf.o) (__filbuf)
c:/nxp/mcuxpressoide_10.3.1_2233/ide/plugins/com.nxp.mcuxpresso.tools.win32_10.3.0.201811011841/tools/bin/../lib/gcc/arm-none-eabi/7.3.1/../../../../arm-none-eabi/lib/thumb/v7e-m/fpv5/hard\libcr_c.a(__init_alloc.o)
                              c:/nxp/mcuxpressoide_10.3.1_2233/ide/plugins/com.nxp.mcuxpresso.tools.win32_10.3.0.201811011841/tools/bin/../lib/gcc/arm-none-eabi/7.3.1/../../../../arm-none-eabi/lib/thumb/v7e-m/fpv5/hard\libcr_c.a(alloc.o) (__heaps)
c:/nxp/mcuxpressoide_10.3.1_2233/ide/plugins/com.nxp.mcuxpresso.tools.win32_10.3.0.201811011841/tools/bin/../lib/gcc/arm-none-eabi/7.3.1/../../../../arm-none-eabi/lib/thumb/v7e-m/fpv5/hard\libcr_c.a(_cr_sbrk.o)
                              c:/nxp/mcuxpressoide_10.3.1_2233/ide/plugins/com.nxp.mcuxpresso.tools.win32_10.3.0.201811011841/tools/bin/../lib/gcc/arm-none-eabi/7.3.1/../../../../arm-none-eabi/lib/thumb/v7e-m/fpv5/hard\libcr_c.a(alloc.o) (_sbrk)
c:/nxp/mcuxpressoide_10.3.1_2233/ide/plugins/com.nxp.mcuxpresso.tools.win32_10.3.0.201811011841/tools/bin/../lib/gcc/arm-none-eabi/7.3.1/../../../../arm-none-eabi/lib/thumb/v7e-m/fpv5/hard\libcr_c.a(_fdopen.o)
                              c:/nxp/mcuxpressoide_10.3.1_2233/ide/plugins/com.nxp.mcuxpresso.tools.win32_10.3.0.201811011841/tools/bin/../lib/gcc/arm-none-eabi/7.3.1/../../../../arm-none-eabi/lib/thumb/v7e-m/fpv5/hard\libcr_c.a(initio.o) (_fdopen)
c:/nxp/mcuxpressoide_10.3.1_2233/ide/plugins/com.nxp.mcuxpresso.tools.win32_10.3.0.201811011841/tools/bin/../lib/gcc/arm-none-eabi/7.3.1/../../../../arm-none-eabi/lib/thumb/v7e-m/fpv5/hard\libcr_c.a(_frexpl.o)
                              c:/nxp/mcuxpressoide_10.3.1_2233/ide/plugins/com.nxp.mcuxpresso.tools.win32_10.3.0.201811011841/tools/bin/../lib/gcc/arm-none-eabi/7.3.1/../../../../arm-none-eabi/lib/thumb/v7e-m/fpv5/hard\libcr_c.a(scanf.o) (_frexpl)
c:/nxp/mcuxpressoide_10.3.1_2233/ide/plugins/com.nxp.mcuxpresso.tools.win32_10.3.0.201811011841/tools/bin/../lib/gcc/arm-none-eabi/7.3.1/../../../../arm-none-eabi/lib/thumb/v7e-m/fpv5/hard\libcr_c.a(_hugeval.o)
                              c:/nxp/mcuxpressoide_10.3.1_2233/ide/plugins/com.nxp.mcuxpresso.tools.win32_10.3.0.201811011841/tools/bin/../lib/gcc/arm-none-eabi/7.3.1/../../../../arm-none-eabi/lib/thumb/v7e-m/fpv5/hard\libcr_c.a(scanf.o) (__huge_vall)
c:/nxp/mcuxpressoide_10.3.1_2233/ide/plugins/com.nxp.mcuxpresso.tools.win32_10.3.0.201811011841/tools/bin/../lib/gcc/arm-none-eabi/7.3.1/../../../../arm-none-eabi/lib/thumb/v7e-m/fpv5/hard\libcr_c.a(_ldexpl.o)
                              c:/nxp/mcuxpressoide_10.3.1_2233/ide/plugins/com.nxp.mcuxpresso.tools.win32_10.3.0.201811011841/tools/bin/../lib/gcc/arm-none-eabi/7.3.1/../../../../arm-none-eabi/lib/thumb/v7e-m/fpv5/hard\libcr_c.a(scanf.o) (_ldexpl)
c:/nxp/mcuxpressoide_10.3.1_2233/ide/plugins/com.nxp.mcuxpresso.tools.win32_10.3.0.201811011841/tools/bin/../lib/gcc/arm-none-eabi/7.3.1/../../../../arm-none-eabi/lib/thumb/v7e-m/fpv5/hard\libcr_c.a(fclose.o)
                              c:/nxp/mcuxpressoide_10.3.1_2233/ide/plugins/com.nxp.mcuxpresso.tools.win32_10.3.0.201811011841/tools/bin/../lib/gcc/arm-none-eabi/7.3.1/../../../../arm-none-eabi/lib/thumb/v7e-m/fpv5/hard\libcr_c.a(initio.o) (fclose)
c:/nxp/mcuxpressoide_10.3.1_2233/ide/plugins/com.nxp.mcuxpresso.tools.win32_10.3.0.201811011841/tools/bin/../lib/gcc/arm-none-eabi/7.3.1/../../../../arm-none-eabi/lib/thumb/v7e-m/fpv5/hard\libcr_c.a(fflush.o)
                              c:/nxp/mcuxpressoide_10.3.1_2233/ide/plugins/com.nxp.mcuxpresso.tools.win32_10.3.0.201811011841/tools/bin/../lib/gcc/arm-none-eabi/7.3.1/../../../../arm-none-eabi/lib/thumb/v7e-m/fpv5/hard\libcr_c.a(fclose.o) (fflush)
c:/nxp/mcuxpressoide_10.3.1_2233/ide/plugins/com.nxp.mcuxpresso.tools.win32_10.3.0.201811011841/tools/bin/../lib/gcc/arm-none-eabi/7.3.1/../../../../arm-none-eabi/lib/thumb/v7e-m/fpv5/hard\libcr_c.a(raise.o)
                              c:/nxp/mcuxpressoide_10.3.1_2233/ide/plugins/com.nxp.mcuxpresso.tools.win32_10.3.0.201811011841/tools/bin/../lib/gcc/arm-none-eabi/7.3.1/../../../../arm-none-eabi/lib/thumb/v7e-m/fpv5/hard\libcr_c.a(stdlib.o) (raise)
c:/nxp/mcuxpressoide_10.3.1_2233/ide/plugins/com.nxp.mcuxpresso.tools.win32_10.3.0.201811011841/tools/bin/../lib/gcc/arm-none-eabi/7.3.1/../../../../arm-none-eabi/lib/thumb/v7e-m/fpv5/hard\libcr_c.a(remove.o)
                              c:/nxp/mcuxpressoide_10.3.1_2233/ide/plugins/com.nxp.mcuxpresso.tools.win32_10.3.0.201811011841/tools/bin/../lib/gcc/arm-none-eabi/7.3.1/../../../../arm-none-eabi/lib/thumb/v7e-m/fpv5/hard\libcr_c.a(fclose.o) (remove)
c:/nxp/mcuxpressoide_10.3.1_2233/ide/plugins/com.nxp.mcuxpresso.tools.win32_10.3.0.201811011841/tools/bin/../lib/gcc/arm-none-eabi/7.3.1/../../../../arm-none-eabi/lib/thumb/v7e-m/fpv5/hard\libcr_c.a(_cr_check_heap.o)
                              c:/nxp/mcuxpressoide_10.3.1_2233/ide/plugins/com.nxp.mcuxpresso.tools.win32_10.3.0.201811011841/tools/bin/../lib/gcc/arm-none-eabi/7.3.1/../../../../arm-none-eabi/lib/thumb/v7e-m/fpv5/hard\libcr_c.a(_cr_sbrk.o) (__check_heap_overflow)
c:/nxp/mcuxpressoide_10.3.1_2233/ide/plugins/com.nxp.mcuxpresso.tools.win32_10.3.0.201811011841/tools/bin/../lib/gcc/arm-none-eabi/7.3.1/../../../../arm-none-eabi/lib/thumb/v7e-m/fpv5/hard\libcr_c.a(_do_fflush.o)
                              c:/nxp/mcuxpressoide_10.3.1_2233/ide/plugins/com.nxp.mcuxpresso.tools.win32_10.3.0.201811011841/tools/bin/../lib/gcc/arm-none-eabi/7.3.1/../../../../arm-none-eabi/lib/thumb/v7e-m/fpv5/hard\libcr_c.a(fflush.o) (_do_fflush)
c:/nxp/mcuxpressoide_10.3.1_2233/ide/plugins/com.nxp.mcuxpresso.tools.win32_10.3.0.201811011841/tools/bin/../lib/gcc/arm-none-eabi/7.3.1/thumb/v7e-m/fpv5/hard\libcr_eabihelpers.a(division_64.o)
                              ./mbedtls/library/bignum.o (__aeabi_uldivmod)
c:/nxp/mcuxpressoide_10.3.1_2233/ide/plugins/com.nxp.mcuxpresso.tools.win32_10.3.0.201811011841/tools/bin/../lib/gcc/arm-none-eabi/7.3.1/thumb/v7e-m/fpv5/hard\libcr_eabihelpers.a(division_idiv0.o)
                              c:/nxp/mcuxpressoide_10.3.1_2233/ide/plugins/com.nxp.mcuxpresso.tools.win32_10.3.0.201811011841/tools/bin/../lib/gcc/arm-none-eabi/7.3.1/thumb/v7e-m/fpv5/hard\libcr_eabihelpers.a(division_64.o) (__aeabi_idiv0)
c:/nxp/mcuxpressoide_10.3.1_2233/ide/plugins/com.nxp.mcuxpresso.tools.win32_10.3.0.201811011841/tools/bin/../lib/gcc/arm-none-eabi/7.3.1/thumb/v7e-m/fpv5/hard\libcr_eabihelpers.a(memcpy.o)
                              c:/nxp/mcuxpressoide_10.3.1_2233/ide/plugins/com.nxp.mcuxpresso.tools.win32_10.3.0.201811011841/tools/bin/../lib/gcc/arm-none-eabi/7.3.1/../../../../arm-none-eabi/lib/thumb/v7e-m/fpv5/hard\libcr_c.a(memcpy.o) (__aeabi_memcpy)
c:/nxp/mcuxpressoide_10.3.1_2233/ide/plugins/com.nxp.mcuxpresso.tools.win32_10.3.0.201811011841/tools/bin/../lib/gcc/arm-none-eabi/7.3.1/../../../../arm-none-eabi/lib/thumb/v7e-m/fpv5/hard\libcr_nohost_nf.a(__sys_close.o)
                              c:/nxp/mcuxpressoide_10.3.1_2233/ide/plugins/com.nxp.mcuxpresso.tools.win32_10.3.0.201811011841/tools/bin/../lib/gcc/arm-none-eabi/7.3.1/../../../../arm-none-eabi/lib/thumb/v7e-m/fpv5/hard\libcr_c.a(fclose.o) (__sys_close)
c:/nxp/mcuxpressoide_10.3.1_2233/ide/plugins/com.nxp.mcuxpresso.tools.win32_10.3.0.201811011841/tools/bin/../lib/gcc/arm-none-eabi/7.3.1/../../../../arm-none-eabi/lib/thumb/v7e-m/fpv5/hard\libcr_nohost_nf.a(__sys_flen.o)
                              c:/nxp/mcuxpressoide_10.3.1_2233/ide/plugins/com.nxp.mcuxpresso.tools.win32_10.3.0.201811011841/tools/bin/../lib/gcc/arm-none-eabi/7.3.1/../../../../arm-none-eabi/lib/thumb/v7e-m/fpv5/hard\libcr_c.a(_writebuf.o) (__sys_flen)
c:/nxp/mcuxpressoide_10.3.1_2233/ide/plugins/com.nxp.mcuxpresso.tools.win32_10.3.0.201811011841/tools/bin/../lib/gcc/arm-none-eabi/7.3.1/../../../../arm-none-eabi/lib/thumb/v7e-m/fpv5/hard\libcr_nohost_nf.a(__sys_istty.o)
                              c:/nxp/mcuxpressoide_10.3.1_2233/ide/plugins/com.nxp.mcuxpresso.tools.win32_10.3.0.201811011841/tools/bin/../lib/gcc/arm-none-eabi/7.3.1/../../../../arm-none-eabi/lib/thumb/v7e-m/fpv5/hard\libcr_c.a(_deferredlazyseek.o) (__sys_istty)
c:/nxp/mcuxpressoide_10.3.1_2233/ide/plugins/com.nxp.mcuxpresso.tools.win32_10.3.0.201811011841/tools/bin/../lib/gcc/arm-none-eabi/7.3.1/../../../../arm-none-eabi/lib/thumb/v7e-m/fpv5/hard\libcr_nohost_nf.a(__sys_read.o)
                              c:/nxp/mcuxpressoide_10.3.1_2233/ide/plugins/com.nxp.mcuxpresso.tools.win32_10.3.0.201811011841/tools/bin/../lib/gcc/arm-none-eabi/7.3.1/../../../../arm-none-eabi/lib/thumb/v7e-m/fpv5/hard\libcr_c.a(__fillbuf.o) (__sys_read)
c:/nxp/mcuxpressoide_10.3.1_2233/ide/plugins/com.nxp.mcuxpresso.tools.win32_10.3.0.201811011841/tools/bin/../lib/gcc/arm-none-eabi/7.3.1/../../../../arm-none-eabi/lib/thumb/v7e-m/fpv5/hard\libcr_nohost_nf.a(__sys_readc.o)
                              c:/nxp/mcuxpressoide_10.3.1_2233/ide/plugins/com.nxp.mcuxpresso.tools.win32_10.3.0.201811011841/tools/bin/../lib/gcc/arm-none-eabi/7.3.1/../../../../arm-none-eabi/lib/thumb/v7e-m/fpv5/hard\libcr_c.a(__fillbuf.o) (__sys_readc)
c:/nxp/mcuxpressoide_10.3.1_2233/ide/plugins/com.nxp.mcuxpresso.tools.win32_10.3.0.201811011841/tools/bin/../lib/gcc/arm-none-eabi/7.3.1/../../../../arm-none-eabi/lib/thumb/v7e-m/fpv5/hard\libcr_nohost_nf.a(__sys_remove.o)
                              c:/nxp/mcuxpressoide_10.3.1_2233/ide/plugins/com.nxp.mcuxpresso.tools.win32_10.3.0.201811011841/tools/bin/../lib/gcc/arm-none-eabi/7.3.1/../../../../arm-none-eabi/lib/thumb/v7e-m/fpv5/hard\libcr_c.a(remove.o) (__sys_remove)
c:/nxp/mcuxpressoide_10.3.1_2233/ide/plugins/com.nxp.mcuxpresso.tools.win32_10.3.0.201811011841/tools/bin/../lib/gcc/arm-none-eabi/7.3.1/../../../../arm-none-eabi/lib/thumb/v7e-m/fpv5/hard\libcr_nohost_nf.a(__sys_rename.o)
                              c:/nxp/mcuxpressoide_10.3.1_2233/ide/plugins/com.nxp.mcuxpresso.tools.win32_10.3.0.201811011841/tools/bin/../lib/gcc/arm-none-eabi/7.3.1/../../../../arm-none-eabi/lib/thumb/v7e-m/fpv5/hard\libcr_c.a(remove.o) (__sys_rename)
c:/nxp/mcuxpressoide_10.3.1_2233/ide/plugins/com.nxp.mcuxpresso.tools.win32_10.3.0.201811011841/tools/bin/../lib/gcc/arm-none-eabi/7.3.1/../../../../arm-none-eabi/lib/thumb/v7e-m/fpv5/hard\libcr_nohost_nf.a(__sys_seek.o)
                              c:/nxp/mcuxpressoide_10.3.1_2233/ide/plugins/com.nxp.mcuxpresso.tools.win32_10.3.0.201811011841/tools/bin/../lib/gcc/arm-none-eabi/7.3.1/../../../../arm-none-eabi/lib/thumb/v7e-m/fpv5/hard\libcr_c.a(_writebuf.o) (__sys_seek)
c:/nxp/mcuxpressoide_10.3.1_2233/ide/plugins/com.nxp.mcuxpresso.tools.win32_10.3.0.201811011841/tools/bin/../lib/gcc/arm-none-eabi/7.3.1/../../../../arm-none-eabi/lib/thumb/v7e-m/fpv5/hard\libcr_nohost_nf.a(__sys_tmpnam.o)
                              c:/nxp/mcuxpressoide_10.3.1_2233/ide/plugins/com.nxp.mcuxpresso.tools.win32_10.3.0.201811011841/tools/bin/../lib/gcc/arm-none-eabi/7.3.1/../../../../arm-none-eabi/lib/thumb/v7e-m/fpv5/hard\libcr_c.a(fclose.o) (__sys_tmpnam)
c:/nxp/mcuxpressoide_10.3.1_2233/ide/plugins/com.nxp.mcuxpresso.tools.win32_10.3.0.201811011841/tools/bin/../lib/gcc/arm-none-eabi/7.3.1/../../../../arm-none-eabi/lib/thumb/v7e-m/fpv5/hard\libcr_nohost_nf.a(__sys_write.o)
                              c:/nxp/mcuxpressoide_10.3.1_2233/ide/plugins/com.nxp.mcuxpresso.tools.win32_10.3.0.201811011841/tools/bin/../lib/gcc/arm-none-eabi/7.3.1/../../../../arm-none-eabi/lib/thumb/v7e-m/fpv5/hard\libcr_c.a(_writebuf.o) (__sys_write)

Discarded input sections

 .text          0x00000000        0x0 ./xip/fsl_flexspi_nor_boot.o
 .data          0x00000000        0x0 ./xip/fsl_flexspi_nor_boot.o
 .bss           0x00000000        0x0 ./xip/fsl_flexspi_nor_boot.o
 .text          0x00000000        0x0 ./xip/slnalexaiot_flexspi_nor_config.o
 .data          0x00000000        0x0 ./xip/slnalexaiot_flexspi_nor_config.o
 .bss           0x00000000        0x0 ./xip/slnalexaiot_flexspi_nor_config.o
 .text          0x00000000        0x0 ./xip/slnalexaiot_sdram_ini_dcd.o
 .data          0x00000000        0x0 ./xip/slnalexaiot_sdram_ini_dcd.o
 .bss           0x00000000        0x0 ./xip/slnalexaiot_sdram_ini_dcd.o
 .text          0x00000000        0x0 ./wifi_wwd/platform/wwd_SDIO.o
 .data          0x00000000        0x0 ./wifi_wwd/platform/wwd_SDIO.o
 .bss           0x00000000        0x0 ./wifi_wwd/platform/wwd_SDIO.o
 .text.USDHC_DisableInterruptStatus
                0x00000000       0x1a ./wifi_wwd/platform/wwd_SDIO.o
 .text.host_platform_bus_deinit
                0x00000000        0x6 ./wifi_wwd/platform/wwd_SDIO.o
 .text.host_platform_bus_disable_interrupt
                0x00000000       0x1c ./wifi_wwd/platform/wwd_SDIO.o
Memory Configuration

Name             Origin             Length             Attributes
BOARD_FLASH      0x60000000         0x00202000         xr
SRAM_DTC         0x20000000         0x00080000         xrw
SRAM_ITC         0x00000000         0x00000000         xrw
SRAM_OC_NON_CACHEABLE 0x20200000         0x00080000         xrw
SRAM_OC_CACHEABLE 0x20280000         0x00000004         xrw
*default*        0x00000000         0xffffffff

Linker script and memory map

LOAD ./xip/fsl_flexspi_nor_boot.o
LOAD ./xip/slnalexaiot_flexspi_nor_config.o
LOAD ./xip/slnalexaiot_sdram_ini_dcd.o
LOAD ./wifi_wwd/platform/wwd_SDIO.o
LOAD ./wifi_wwd/platform/wwd_platform.o
LOAD ./wifi_wwd/platform/wwd_platform_separate_mcu.o
LOAD ./wifi_wwd/platform/wwd_resources.o
LOAD ./wifi_wwd/network/wwd_buffer.o
LOAD ./wifi_wwd/network/wwd_network.o
LOAD ./wifi_wwd/WWD/internal/chips/wwd_ap.o
LOAD ./wifi_wwd/WWD/internal/chips/wwd_chip_specific_functions.o
LOAD ./wifi_wwd/WWD/internal/bus_protocols/SDIO/wwd_bus_protocol.o
LOAD ./wifi_wwd/WWD/internal/bus_protocols/wwd_bus_common.o
LOAD ./wifi_wwd/WWD/internal/tlv.o
LOAD ./wifi_wwd/WWD/internal/wwd_ap_common.o
LOAD ./wifi_wwd/WWD/internal/wwd_clm.o
LOAD ./wifi_wwd/WWD/internal/wwd_debug.o
LOAD ./wifi_wwd/WWD/internal/wwd_eapol.o
LOAD ./wifi_wwd/WWD/internal/wwd_internal.o
LOAD ./wifi_wwd/WWD/internal/wwd_management.o
LOAD ./wifi_wwd/WWD/internal/wwd_rtos_interface.o
LOAD ./wifi_wwd/WWD/internal/wwd_sdpcm.o
LOAD ./wifi_wwd/WWD/internal/wwd_thread.o
LOAD ./wifi_wwd/WWD/internal/wwd_thread_internal.o
LOAD ./wifi_wwd/WWD/internal/wwd_wifi.o
LOAD ./wifi_wwd/WWD/internal/wwd_wifi_chip_common.o
LOAD ./wifi_wwd/WWD/internal/wwd_wifi_sleep.o
LOAD ./wifi_wwd/FreeRTOS/wwd_rtos.o
LOAD ./wifi_wwd/wifi.o
LOAD ./utilities/fsl_debug_console.o
LOAD ./utilities/fsl_str.o
LOAD ./usb/phy/usb_phy.o
LOAD ./usb/device/source/ehci/usb_device_ehci.o
LOAD ./usb/device/source/usb_device_ch9.o
LOAD ./usb/device/source/usb_device_dci.o
LOAD ./usb/device/class/msc/usb_device_msc.o
LOAD ./usb/device/class/msc/usb_device_msc_ufi.o
LOAD ./usb/device/class/cdc/usb_device_cdc_acm.o
LOAD ./usb/device/class/usb_device_class.o
LOAD ./startup/startup_mimxrt106a.o
LOAD ./source/bl_drv/fsl_dcp.o
LOAD ./source/aws_ota_pal.o
LOAD ./source/bootloader.o
LOAD ./source/composite.o
LOAD ./source/dhcp_server.o
LOAD ./source/disk.o
LOAD ./source/flash_ica_driver.o
LOAD ./source/main.o
LOAD ./source/network_connection.o
LOAD ./source/nor_encrypt_bee.o
LOAD ./source/os_hooks.o
LOAD ./source/pkcs11.o
LOAD ./source/semihost_hardfault.o
LOAD ./source/sln_encrypt.o
LOAD ./source/sln_flash.o
LOAD ./source/sln_flash_mgmt.o
LOAD ./source/sln_ota.o
LOAD ./source/sln_ota_sec.o
LOAD ./source/usb_device_descriptor.o
LOAD ./source/virtual_com.o
LOAD ./source/wifi_credentials.o
LOAD ./sdmmc/src/fsl_sdio.o
LOAD ./sdmmc/src/fsl_sdmmc_common.o
LOAD ./sdmmc/port/fsl_sdmmc_event.o
LOAD ./sdmmc/port/fsl_sdmmc_host_uvoice.o
LOAD ./osa/usb_osa_freertos.o
LOAD ./mbedtls/port/ksdk/aes_alt.o
LOAD ./mbedtls/port/ksdk/des_alt.o
LOAD ./mbedtls/port/ksdk/ecp_alt.o
LOAD ./mbedtls/port/ksdk/ecp_alt_ksdk.o
LOAD ./mbedtls/port/ksdk/ecp_curves_alt.o
LOAD ./mbedtls/port/ksdk/ksdk_mbedtls.o
LOAD ./mbedtls/library/aes.o
LOAD ./mbedtls/library/aesni.o
LOAD ./mbedtls/library/arc4.o
LOAD ./mbedtls/library/aria.o
LOAD ./mbedtls/library/asn1parse.o
LOAD ./mbedtls/library/asn1write.o
LOAD ./mbedtls/library/base64.o
LOAD ./mbedtls/library/bignum.o
LOAD ./mbedtls/library/blowfish.o
LOAD ./mbedtls/library/camellia.o
LOAD ./mbedtls/library/ccm.o
LOAD ./mbedtls/library/certs.o
LOAD ./mbedtls/library/chacha20.o
LOAD ./mbedtls/library/chachapoly.o
LOAD ./mbedtls/library/cipher.o
LOAD ./mbedtls/library/cipher_wrap.o
LOAD ./mbedtls/library/cmac.o
LOAD ./mbedtls/library/ctr_drbg.o
LOAD ./mbedtls/library/debug.o
LOAD ./mbedtls/library/des.o
LOAD ./mbedtls/library/dhm.o
LOAD ./mbedtls/library/ecdh.o
LOAD ./mbedtls/library/ecdsa.o
LOAD ./mbedtls/library/ecjpake.o
LOAD ./mbedtls/library/ecp.o
LOAD ./mbedtls/library/ecp_curves.o
LOAD ./mbedtls/library/entropy.o
LOAD ./mbedtls/library/entropy_poll.o
LOAD ./mbedtls/library/error.o
LOAD ./mbedtls/library/gcm.o
LOAD ./mbedtls/library/havege.o
LOAD ./mbedtls/library/hkdf.o
LOAD ./mbedtls/library/hmac_drbg.o
LOAD ./mbedtls/library/md.o
LOAD ./mbedtls/library/md2.o
LOAD ./mbedtls/library/md4.o
LOAD ./mbedtls/library/md5.o
LOAD ./mbedtls/library/md_wrap.o
LOAD ./mbedtls/library/memory_buffer_alloc.o
LOAD ./mbedtls/library/net_sockets.o
LOAD ./mbedtls/library/nist_kw.o
LOAD ./mbedtls/library/oid.o
LOAD ./mbedtls/library/padlock.o
LOAD ./mbedtls/library/pem.o
LOAD ./mbedtls/library/pk.o
LOAD ./mbedtls/library/pk_wrap.o
LOAD ./mbedtls/library/pkcs12.o
LOAD ./mbedtls/library/pkcs5.o
LOAD ./mbedtls/library/pkparse.o
LOAD ./mbedtls/library/pkwrite.o
LOAD ./mbedtls/library/platform.o
LOAD ./mbedtls/library/platform_util.o
LOAD ./mbedtls/library/poly1305.o
LOAD ./mbedtls/library/ripemd160.o
LOAD ./mbedtls/library/rsa.o
LOAD ./mbedtls/library/rsa_internal.o
LOAD ./mbedtls/library/sha1.o
LOAD ./mbedtls/library/sha256.o
LOAD ./mbedtls/library/sha512.o
LOAD ./mbedtls/library/ssl_cache.o
LOAD ./mbedtls/library/ssl_ciphersuites.o
LOAD ./mbedtls/library/ssl_cli.o
LOAD ./mbedtls/library/ssl_cookie.o
LOAD ./mbedtls/library/ssl_srv.o
LOAD ./mbedtls/library/ssl_ticket.o
LOAD ./mbedtls/library/ssl_tls.o
LOAD ./mbedtls/library/threading.o
LOAD ./mbedtls/library/timing.o
LOAD ./mbedtls/library/version.o
LOAD ./mbedtls/library/version_features.o
LOAD ./mbedtls/library/x509.o
LOAD ./mbedtls/library/x509_create.o
LOAD ./mbedtls/library/x509_crl.o
LOAD ./mbedtls/library/x509_crt.o
LOAD ./mbedtls/library/x509_csr.o
LOAD ./mbedtls/library/x509write_crt.o
LOAD ./mbedtls/library/x509write_csr.o
LOAD ./mbedtls/library/xtea.o
LOAD ./lwip/src/netif/ppp/auth.o
LOAD ./lwip/src/netif/ppp/ccp.o
LOAD ./lwip/src/netif/ppp/chap-md5.o
LOAD ./lwip/src/netif/ppp/chap-new.o
LOAD ./lwip/src/netif/ppp/chap_ms.o
LOAD ./lwip/src/netif/ppp/demand.o
LOAD ./lwip/src/netif/ppp/eap.o
LOAD ./lwip/src/netif/ppp/eui64.o
LOAD ./lwip/src/netif/ppp/fsm.o
LOAD ./lwip/src/netif/ppp/ipcp.o
LOAD ./lwip/src/netif/ppp/ipv6cp.o
LOAD ./lwip/src/netif/ppp/lcp.o
LOAD ./lwip/src/netif/ppp/lwip_ecp.o
LOAD ./lwip/src/netif/ppp/magic.o
LOAD ./lwip/src/netif/ppp/mppe.o
LOAD ./lwip/src/netif/ppp/multilink.o
LOAD ./lwip/src/netif/ppp/ppp.o
LOAD ./lwip/src/netif/ppp/pppapi.o
LOAD ./lwip/src/netif/ppp/pppcrypt.o
LOAD ./lwip/src/netif/ppp/pppoe.o
LOAD ./lwip/src/netif/ppp/pppol2tp.o
LOAD ./lwip/src/netif/ppp/pppos.o
LOAD ./lwip/src/netif/ppp/upap.o
LOAD ./lwip/src/netif/ppp/utils.o
LOAD ./lwip/src/netif/ppp/vj.o
LOAD ./lwip/src/netif/bridgeif.o
LOAD ./lwip/src/netif/bridgeif_fdb.o
LOAD ./lwip/src/netif/ethernet.o
LOAD ./lwip/src/netif/lowpan6.o
LOAD ./lwip/src/netif/lowpan6_ble.o
LOAD ./lwip/src/netif/lowpan6_common.o
LOAD ./lwip/src/netif/slipif.o
LOAD ./lwip/src/netif/zepif.o
LOAD ./lwip/src/core/ipv6/dhcp6.o
LOAD ./lwip/src/core/ipv6/ethip6.o
LOAD ./lwip/src/core/ipv6/icmp6.o
LOAD ./lwip/src/core/ipv6/inet6.o
LOAD ./lwip/src/core/ipv6/ip6.o
LOAD ./lwip/src/core/ipv6/ip6_addr.o
LOAD ./lwip/src/core/ipv6/ip6_frag.o
LOAD ./lwip/src/core/ipv6/mld6.o
LOAD ./lwip/src/core/ipv6/nd6.o
LOAD ./lwip/src/core/ipv4/autoip.o
LOAD ./lwip/src/core/ipv4/dhcp.o
LOAD ./lwip/src/core/ipv4/etharp.o
LOAD ./lwip/src/core/ipv4/icmp.o
LOAD ./lwip/src/core/ipv4/igmp.o
LOAD ./lwip/src/core/ipv4/ip4.o
LOAD ./lwip/src/core/ipv4/ip4_addr.o
LOAD ./lwip/src/core/ipv4/ip4_frag.o
LOAD ./lwip/src/core/altcp.o
LOAD ./lwip/src/core/altcp_alloc.o
LOAD ./lwip/src/core/altcp_tcp.o
LOAD ./lwip/src/core/def.o
LOAD ./lwip/src/core/dns.o
LOAD ./lwip/src/core/inet_chksum.o
LOAD ./lwip/src/core/init.o
LOAD ./lwip/src/core/ip.o
LOAD ./lwip/src/core/mem.o
LOAD ./lwip/src/core/memp.o
LOAD ./lwip/src/core/netif.o
LOAD ./lwip/src/core/pbuf.o
LOAD ./lwip/src/core/raw.o
LOAD ./lwip/src/core/stats.o
LOAD ./lwip/src/core/sys.o
LOAD ./lwip/src/core/tcp.o
LOAD ./lwip/src/core/tcp_in.o
LOAD ./lwip/src/core/tcp_out.o
LOAD ./lwip/src/core/timeouts.o
LOAD ./lwip/src/core/udp.o
LOAD ./lwip/src/api/api_lib.o
LOAD ./lwip/src/api/api_msg.o
LOAD ./lwip/src/api/err.o
LOAD ./lwip/src/api/if_api.o
LOAD ./lwip/src/api/netbuf.o
LOAD ./lwip/src/api/netdb.o
LOAD ./lwip/src/api/netifapi.o
LOAD ./lwip/src/api/sockets.o
LOAD ./lwip/src/api/tcpip.o
LOAD ./lwip/port/sys_arch.o
LOAD ./drivers/flexspi_hyper_flash.o
LOAD ./drivers/fsl_clock.o
LOAD ./drivers/fsl_common.o
LOAD ./drivers/fsl_dcp.o
LOAD ./drivers/fsl_enet.o
LOAD ./drivers/fsl_flexram.o
LOAD ./drivers/fsl_flexspi.o
LOAD ./drivers/fsl_gpio.o
LOAD ./drivers/fsl_gpt.o
LOAD ./drivers/fsl_lpi2c.o
LOAD ./drivers/fsl_lpuart.o
LOAD ./drivers/fsl_pit.o
LOAD ./drivers/fsl_pwm.o
LOAD ./drivers/fsl_trng.o
LOAD ./drivers/fsl_usdhc_uvoice.o
LOAD ./drivers/fsl_xbara.o
LOAD ./drivers/sln_RT10xx_RGB_LED_driver.o
LOAD ./device/system_MIMXRT106A.o
LOAD ./component/uart/lpuart_adapter.o
LOAD ./component/serial_manager/serial_manager.o
LOAD ./component/serial_manager/serial_port_uart.o
LOAD ./component/serial_manager/serial_port_usb.o
LOAD ./component/lists/generic_list.o
LOAD ./board/board.o
LOAD ./board/clock_config.o
LOAD ./board/pin_mux.o
LOAD ./amazon-freertos/utils/aws_system_init.o
LOAD ./amazon-freertos/tls/aws_tls.o
LOAD ./amazon-freertos/tinycbor/cborencoder.o
LOAD ./amazon-freertos/tinycbor/cborencoder_close_container_checked.o
LOAD ./amazon-freertos/tinycbor/cborerrorstrings.o
LOAD ./amazon-freertos/tinycbor/cborparser.o
LOAD ./amazon-freertos/tinycbor/cborparser_dup_string.o
LOAD ./amazon-freertos/third_party/jsmn/jsmn.o
LOAD ./amazon-freertos/secure_sockets/aws_secure_sockets.o
LOAD ./amazon-freertos/ota/aws_ota_agent.o
LOAD ./amazon-freertos/ota/aws_ota_cbor.o
LOAD ./amazon-freertos/mqtt/aws_mqtt_agent.o
LOAD ./amazon-freertos/mqtt/aws_mqtt_lib.o
LOAD ./amazon-freertos/logging/aws_logging_task_dynamic_buffers.o
LOAD ./amazon-freertos/crypto/aws_crypto.o
LOAD ./amazon-freertos/bufferpool/aws_bufferpool_static_thread_safe.o
LOAD ./amazon-freertos/FreeRTOS/portable/fsl_tickless_systick.o
LOAD ./amazon-freertos/FreeRTOS/portable/heap_4.o
LOAD ./amazon-freertos/FreeRTOS/portable/port.o
LOAD ./amazon-freertos/FreeRTOS/event_groups.o
LOAD ./amazon-freertos/FreeRTOS/list.o
LOAD ./amazon-freertos/FreeRTOS/queue.o
LOAD ./amazon-freertos/FreeRTOS/stream_buffer.o
LOAD ./amazon-freertos/FreeRTOS/tasks.o
LOAD ./amazon-freertos/FreeRTOS/timers.o
START GROUP
LOAD c:/nxp/mcuxpressoide_10.3.1_2233/ide/plugins/com.nxp.mcuxpresso.tools.win32_10.3.0.201811011841/tools/bin/../lib/gcc/arm-none-eabi/7.3.1/../../../../arm-none-eabi/lib/thumb/v7e-m/fpv5/hard\libcr_nohost_nf.a
LOAD c:/nxp/mcuxpressoide_10.3.1_2233/ide/plugins/com.nxp.mcuxpresso.tools.win32_10.3.0.201811011841/tools/bin/../lib/gcc/arm-none-eabi/7.3.1/../../../../arm-none-eabi/lib/thumb/v7e-m/fpv5/hard\libcr_c.a
LOAD c:/nxp/mcuxpressoide_10.3.1_2233/ide/plugins/com.nxp.mcuxpresso.tools.win32_10.3.0.201811011841/tools/bin/../lib/gcc/arm-none-eabi/7.3.1/thumb/v7e-m/fpv5/hard\libcr_eabihelpers.a
LOAD c:/nxp/mcuxpressoide_10.3.1_2233/ide/plugins/com.nxp.mcuxpresso.tools.win32_10.3.0.201811011841/tools/bin/../lib/gcc/arm-none-eabi/7.3.1/thumb/v7e-m/fpv5/hard\libgcc.a
END GROUP
                0x60000000                __base_BOARD_FLASH = 0x60000000
                0x60000000                __base_Flash = 0x60000000
                0x60202000                __top_BOARD_FLASH = 0x60202000
                0x60202000                __top_Flash = 0x60202000
                0x20000000                __base_SRAM_DTC = 0x20000000
                0x20000000                __base_RAM = 0x20000000
                0x20080000                __top_SRAM_DTC = 0x20080000
                0x20080000                __top_RAM = 0x20080000
                0x00000000                __base_SRAM_ITC = 0x0
                0x00000000                __base_RAM2 = 0x0
                0x00000000                __top_SRAM_ITC = 0x0
                0x00000000                __top_RAM2 = 0x0
                0x20200000                __base_SRAM_OC_NON_CACHEABLE = 0x20200000
                0x20200000                __base_RAM3 = 0x20200000
                0x20280000                __top_SRAM_OC_NON_CACHEABLE = 0x20280000
                0x20280000                __top_RAM3 = 0x20280000
                0x20280000                __base_SRAM_OC_CACHEABLE = 0x20280000
                0x20280000                __base_RAM4 = 0x20280000
                0x20280004                __top_SRAM_OC_CACHEABLE = 0x20280004
                0x20280004                __top_RAM4 = 0x20280004

.boot_hdr       0x60000000     0x2000
 FILL mask 0xff
                0x60000000                __boot_hdr_start__ = ABSOLUTE (.)
 *(SORT_BY_ALIGNMENT(.boot_hdr.conf))
 .boot_hdr.conf
                0x60000000      0x200 ./xip/slnalexaiot_flexspi_nor_config.o
                0x60000000                hyperflash_config
                0x00001000                . = 0x1000
 *fill*         0x60000200      0xe00 ff
 *(SORT_BY_ALIGNMENT(.boot_hdr.ivt))
 .boot_hdr.ivt  0x60001000       0x20 ./xip/fsl_flexspi_nor_boot.o
                0x60001000                image_vector_table
                0x00001020                . = 0x1020
 *(SORT_BY_ALIGNMENT(.boot_hdr.boot_data))
 .boot_hdr.boot_data
                0x60001020       0x10 ./xip/fsl_flexspi_nor_boot.o
                0x60001020                boot_data
                0x00001030                . = 0x1030
 *(SORT_BY_ALIGNMENT(.boot_hdr.dcd_data))
 .boot_hdr.dcd_data
                0x60001030      0x430 ./xip/slnalexaiot_sdram_ini_dcd.o
                0x60001030                dcd_data
                0x60001460                __boot_hdr_end__ = ABSOLUTE (.)
                0x00002000                . = 0x2000
 *fill*         0x60001460      0xba0 ff

.text           0x60002000    0xc7648
 FILL mask 0xff
                0x60002000                __vectors_start__ = ABSOLUTE (.)
 *(SORT_BY_ALIGNMENT(.isr_vector))
 .isr_vector    0x60002000      0x548 ./startup/startup_mimxrt106a.o
                0x60002000                g_pfnVectors
                0x60002000                __Vectors
                0x60002548                . = ALIGN (0x4)
                0x60002548                __section_table_start = .
                0x60002548                __data_section_table = .
                0x60002548        0x4 LONG 0x6011a650 LOADADDR (.data)
                0x6000254c        0x4 LONG 0x20000000 ADDR (.data)
                0x60002550        0x4 LONG 0x21a74 SIZEOF (.data)
                0x60002554        0x4 LONG 0x600c9648 LOADADDR (.data_RAM2)
                0x60002558        0x4 LONG 0x0 ADDR (.data_RAM2)
                0x6000255c        0x4 LONG 0x0 SIZEOF (.data_RAM2)
                0x60002560        0x4 LONG 0x600c9648 LOADADDR (.data_RAM3)
                0x60002564        0x4 LONG 0x20200000 ADDR (.data_RAM3)
                0x60002568        0x4 LONG 0x51008 SIZEOF (.data_RAM3)
                0x6000256c        0x4 LONG 0x6011a650 LOADADDR (.data_RAM4)
                0x60002570        0x4 LONG 0x20280000 ADDR (.data_RAM4)
                0x60002574        0x4 LONG 0x0 SIZEOF (.data_RAM4)
                0x60002578                __data_section_table_end = .
                0x60002578                __bss_section_table = .
                0x60002578        0x4 LONG 0x20022000 ADDR (.bss)
                0x6000257c        0x4 LONG 0x4c380 SIZEOF (.bss)
                0x60002580        0x4 LONG 0x0 ADDR (.bss_RAM2)
                0x60002584        0x4 LONG 0x0 SIZEOF (.bss_RAM2)
                0x60002588        0x4 LONG 0x20251008 ADDR (.bss_RAM3)
                0x6000258c        0x4 LONG 0x6b64 SIZEOF (.bss_RAM3)
                0x60002590        0x4 LONG 0x20280000 ADDR (.bss_RAM4)
                0x60002594        0x4 LONG 0x0 SIZEOF (.bss_RAM4)
                0x60002598                __bss_section_table_end = .
                0x60002598                __section_table_end = .
 *(SORT_BY_ALIGNMENT(.after_vectors*))
 .after_vectors.reset
                0x60002598       0x60 ./startup/startup_mimxrt106a.o
                0x60002598                ResetISR
 .after_vectors.init_data
                0x600025f8       0x1e ./startup/startup_mimxrt106a.o
                0x600025f8                data_init
 .after_vectors.init_bss
                0x60002616       0x12 ./startup/startup_mimxrt106a.o
                0x60002616                bss_init
 .after_vectors
                0x60002628        0xc ./startup/startup_mimxrt106a.o
                0x60002628                NMI_Handler
                0x60002632                Reserved87_DriverIRQHandler
                0x60002632                KPP_DriverIRQHandler
                0x60002632                FLEXSPI2_DriverIRQHandler
                0x60002632                LPSPI2_DriverIRQHandler
                0x60002632                LCDIF_DriverIRQHandler
                0x60002632                SAI3_RX_DriverIRQHandler
                0x60002632                CCM_2_DriverIRQHandler
                0x60002632                PIT_DriverIRQHandler
                0x60002632                PMU_EVENT_DriverIRQHandler
                0x60002632                PWM4_FAULT_DriverIRQHandler
                0x60002632                DMA13_DMA29_DriverIRQHandler
                0x60002632                FLEXRAM_DriverIRQHandler
                0x60002632                LPSPI4_DriverIRQHandler
                0x60002632                SEMC_DriverIRQHandler
                0x60002632                SPDIF_DriverIRQHandler
                0x60002632                PWM4_3_DriverIRQHandler
                0x60002632                ACMP4_DriverIRQHandler
                0x60002632                USB_PHY1_DriverIRQHandler
                0x60002632                GPIO3_Combined_0_15_DriverIRQHandler
                0x60002632                CAN3_DriverIRQHandler
                0x60002632                Reserved171_DriverIRQHandler
                0x60002632                DMA7_DMA23_DriverIRQHandler
                0x60002632                BEE_DriverIRQHandler
                0x60002632                GPR_IRQ_DriverIRQHandler
                0x60002632                PWM2_FAULT_DriverIRQHandler
                0x60002632                PWM3_1_DriverIRQHandler
                0x60002632                DMA14_DMA30_DriverIRQHandler
                0x60002632                TMR1_DriverIRQHandler
                0x60002632                TRNG_DriverIRQHandler
                0x60002632                PWM3_2_DriverIRQHandler
                0x60002632                ENET_1588_Timer_DriverIRQHandler
                0x60002632                FLEXIO2_DriverIRQHandler
                0x60002632                GPIO2_Combined_16_31_DriverIRQHandler
                0x60002632                Reserved143_DriverIRQHandler
                0x60002632                PWM4_1_DriverIRQHandler
                0x60002632                PWM3_3_DriverIRQHandler
                0x60002632                DMA0_DMA16_DriverIRQHandler
                0x60002632                IntDefaultHandler
                0x60002632                DMA2_DMA18_DriverIRQHandler
                0x60002632                SRC_DriverIRQHandler
                0x60002632                GPIO1_INT4_DriverIRQHandler
                0x60002632                Reserved144_DriverIRQHandler
                0x60002632                ENC3_DriverIRQHandler
                0x60002632                PWM3_FAULT_DriverIRQHandler
                0x60002632                EWM_DriverIRQHandler
                0x60002632                TSC_DIG_DriverIRQHandler
                0x60002632                WDOG1_DriverIRQHandler
                0x60002632                FLEXIO1_DriverIRQHandler
                0x60002632                Reserved78_DriverIRQHandler
                0x60002632                TMR4_DriverIRQHandler
                0x60002632                ENC2_DriverIRQHandler
                0x60002632                ADC_ETC_IRQ2_DriverIRQHandler
                0x60002632                GPIO1_Combined_16_31_DriverIRQHandler
                0x60002632                GPIO1_INT7_DriverIRQHandler
                0x60002632                SAI1_DriverIRQHandler
                0x60002632                DCDC_DriverIRQHandler
                0x60002632                DMA12_DMA28_DriverIRQHandler
                0x60002632                PWM4_0_DriverIRQHandler
                0x60002632                ADC_ETC_ERROR_IRQ_DriverIRQHandler
                0x60002632                ACMP2_DriverIRQHandler
                0x60002632                GPIO5_Combined_0_15_DriverIRQHandler
                0x60002632                GPIO1_INT0_DriverIRQHandler
                0x60002632                GPIO1_INT2_DriverIRQHandler
                0x60002632                RTWDOG_DriverIRQHandler
                0x60002632                GPT2_DriverIRQHandler
                0x60002632                USB_PHY2_DriverIRQHandler
                0x60002632                DMA10_DMA26_DriverIRQHandler
                0x60002632                PWM2_1_DriverIRQHandler
                0x60002632                PWM1_1_DriverIRQHandler
                0x60002632                PXP_DriverIRQHandler
                0x60002632                ADC1_DriverIRQHandler
                0x60002632                PWM1_0_DriverIRQHandler
                0x60002632                SJC_DriverIRQHandler
                0x60002632                DMA1_DMA17_DriverIRQHandler
                0x60002632                ENC1_DriverIRQHandler
                0x60002632                ENC4_DriverIRQHandler
                0x60002632                CAN2_DriverIRQHandler
                0x60002632                DCP_DriverIRQHandler
                0x60002632                CTI0_ERROR_DriverIRQHandler
                0x60002632                DMA8_DMA24_DriverIRQHandler
                0x60002632                GPT1_DriverIRQHandler
                0x60002632                ACMP3_DriverIRQHandler
                0x60002632                DMA6_DMA22_DriverIRQHandler
                0x60002632                CSU_DriverIRQHandler
                0x60002632                GPIO1_INT5_DriverIRQHandler
                0x60002632                TMR3_DriverIRQHandler
                0x60002632                TMR2_DriverIRQHandler
                0x60002632                CTI1_ERROR_DriverIRQHandler
                0x60002632                GPIO1_Combined_0_15_DriverIRQHandler
                0x60002632                PWM4_2_DriverIRQHandler
                0x60002632                SAI2_DriverIRQHandler
                0x60002632                CORE_DriverIRQHandler
                0x60002632                DMA11_DMA27_DriverIRQHandler
                0x60002632                CSI_DriverIRQHandler
                0x60002632                PWM2_3_DriverIRQHandler
                0x60002632                XBAR1_IRQ_2_3_DriverIRQHandler
                0x60002632                SNVS_HP_WRAPPER_TZ_DriverIRQHandler
                0x60002632                GPIO3_Combined_16_31_DriverIRQHandler
                0x60002632                PWM1_FAULT_DriverIRQHandler
                0x60002632                ENET2_1588_Timer_DriverIRQHandler
                0x60002632                PWM2_2_DriverIRQHandler
                0x60002632                DMA4_DMA20_DriverIRQHandler
                0x60002632                DMA9_DMA25_DriverIRQHandler
                0x60002632                SNVS_HP_WRAPPER_DriverIRQHandler
                0x60002632                XBAR1_IRQ_0_1_DriverIRQHandler
                0x60002632                ADC_ETC_IRQ1_DriverIRQHandler
                0x60002632                LPSPI1_DriverIRQHandler
                0x60002632                DMA3_DMA19_DriverIRQHandler
                0x60002632                GPIO1_INT3_DriverIRQHandler
                0x60002632                DCP_VMI_DriverIRQHandler
                0x60002632                GPC_DriverIRQHandler
                0x60002632                GPIO2_Combined_0_15_DriverIRQHandler
                0x60002632                PWM1_2_DriverIRQHandler
                0x60002632                USB_OTG1_DriverIRQHandler
                0x60002632                TEMP_LOW_HIGH_DriverIRQHandler
                0x60002632                SAI3_TX_DriverIRQHandler
                0x60002632                FLEXIO3_DriverIRQHandler
                0x60002632                WDOG2_DriverIRQHandler
                0x60002632                Reserved68_DriverIRQHandler
                0x60002632                PWM3_0_DriverIRQHandler
                0x60002632                GPIO4_Combined_0_15_DriverIRQHandler
                0x60002632                GPIO4_Combined_16_31_DriverIRQHandler
                0x60002632                GPIO6_7_8_9_DriverIRQHandler
                0x60002632                GPIO5_Combined_16_31_DriverIRQHandler
                0x60002632                DMA5_DMA21_DriverIRQHandler
                0x60002632                CCM_1_DriverIRQHandler
                0x60002632                ADC2_DriverIRQHandler
                0x60002632                Reserved115_DriverIRQHandler
                0x60002632                TEMP_PANIC_DriverIRQHandler
                0x60002632                DMA15_DMA31_DriverIRQHandler
                0x60002632                LPSPI3_DriverIRQHandler
                0x60002632                PWM1_3_DriverIRQHandler
                0x60002632                ACMP1_DriverIRQHandler
                0x60002632                Reserved86_DriverIRQHandler
                0x60002632                DMA_ERROR_DriverIRQHandler
                0x60002632                ADC_ETC_IRQ0_DriverIRQHandler
                0x60002632                CAN1_DriverIRQHandler
                0x60002632                GPIO1_INT6_DriverIRQHandler
                0x60002632                GPIO1_INT1_DriverIRQHandler
                0x60002632                PWM2_0_DriverIRQHandler
                0x60002632                SNVS_LP_WRAPPER_DriverIRQHandler
                0x60002632                USB_OTG2_DriverIRQHandler
 *(SORT_BY_ALIGNMENT(.text*))
 *fill*         0x60002634        0xc ff
 .text.SVC_Handler
                0x60002640       0x28 ./amazon-freertos/FreeRTOS/portable/port.o
                0x60002640                SVC_Handler
 *fill*         0x60002668        0x8 ff
 .text.PendSV_Handler
                0x60002670       0x68 ./amazon-freertos/FreeRTOS/portable/port.o
                0x60002670                PendSV_Handler
 .text.mbedtls_sha512_starts_ret
                0x600026d8      0x180 ./mbedtls/library/sha512.o
                0x600026d8                mbedtls_sha512_starts_ret
 .text.RGB_LED_Init
                0x60002858      0x1d0 ./drivers/sln_RT10xx_RGB_LED_driver.o
                0x60002858                RGB_LED_Init
 .text.vfscanf  0x60002a28      0x81c c:/nxp/mcuxpressoide_10.3.1_2233/ide/plugins/com.nxp.mcuxpresso.tools.win32_10.3.0.201811011841/tools/bin/../lib/gcc/arm-none-eabi/7.3.1/../../../../arm-none-eabi/lib/thumb/v7e-m/fpv5/hard\libcr_c.a(scanf.o)
                0x60002a28                vfscanf
 *fill*         0x60003244        0x4 ff
 .text._frexpl  0x60003248       0x68 c:/nxp/mcuxpressoide_10.3.1_2233/ide/plugins/com.nxp.mcuxpresso.tools.win32_10.3.0.201811011841/tools/bin/../lib/gcc/arm-none-eabi/7.3.1/../../../../arm-none-eabi/lib/thumb/v7e-m/fpv5/hard\libcr_c.a(_frexpl.o)
                0x60003248                _frexpl
 .text._ldexpl  0x600032b0       0x58 c:/nxp/mcuxpressoide_10.3.1_2233/ide/plugins/com.nxp.mcuxpresso.tools.win32_10.3.0.201811011841/tools/bin/../lib/gcc/arm-none-eabi/7.3.1/../../../../arm-none-eabi/lib/thumb/v7e-m/fpv5/hard\libcr_c.a(_ldexpl.o)
                0x600032b0                _ldexpl
 .text.__NVIC_EnableIRQ
                0x60003308       0x34 ./wifi_wwd/platform/wwd_SDIO.o
 .text.__NVIC_SetPriority
                0x6000333c       0x50 ./wifi_wwd/platform/wwd_SDIO.o
 .text.CLOCK_SetMux
                0x6000338c       0x9c ./wifi_wwd/platform/wwd_SDIO.o
 .text.CLOCK_SetDiv
                0x60003428       0x9c ./wifi_wwd/platform/wwd_SDIO.o
 .text.CLOCK_GetDiv
                0x600034c4       0x3c ./wifi_wwd/platform/wwd_SDIO.o
 .text.BOARD_PowerOnSDIOCARD
                0x60003500       0x14 ./wifi_wwd/platform/wwd_SDIO.o
 .text.SDIOCARD_DetectCallBack
                0x60003514       0x1c ./wifi_wwd/platform/wwd_SDIO.o
 .text.BOARD_USDHCClockConfiguration
                0x60003530       0x28 ./wifi_wwd/platform/wwd_SDIO.o
 .text.host_platform_wifi_oob_irq_init
                0x60003558       0x44 ./wifi_wwd/platform/wwd_SDIO.o
 .text.host_platform_unmask_sdio_interrupt
                0x6000359c       0x28 ./wifi_wwd/platform/wwd_SDIO.o
                0x6000359c                host_platform_unmask_sdio_interrupt
 .text.host_platform_bus_init
                0x600035c4       0xa4 ./wifi_wwd/platform/wwd_SDIO.o
                0x600035c4                host_platform_bus_init
 .text.host_platform_sdio_enumerate
                0x60003668      0x13c ./wifi_wwd/platform/wwd_SDIO.o
                0x60003668                host_platform_sdio_enumerate
 .text.host_platform_sdio_transfer
                0x600037a4      0x128 ./wifi_wwd/platform/wwd_SDIO.o
                0x600037a4                host_platform_sdio_transfer
 .text.host_platform_enable_high_speed_sdio
                0x600038cc       0x8c ./wifi_wwd/platform/wwd_SDIO.o
                0x600038cc                host_platform_enable_high_speed_sdio
 .text.host_platform_bus_enable_interrupt
                0x60003958       0x1c ./wifi_wwd/platform/wwd_SDIO.o
                0x60003958                host_platform_bus_enable_interrupt
 .text.GPIO5_Combined_0_15_IRQHandler
                0x60003974       0x24 ./wifi_wwd/platform/wwd_SDIO.o
                0x60003974                GPIO5_Combined_0_15_IRQHandler
 .text.host_platform_resource_size
                0x60003998       0x30 ./wifi_wwd/platform/wwd_resources.o
                0x60003998                host_platform_resource_size
 .text.host_platform_resource_read_indirect
                0x600039c8       0x64 ./wifi_wwd/platform/wwd_resources.o
                0x600039c8                host_platform_resource_read_indirect
 .text.low_level_output
                0x60003a2c       0x88 ./wifi_wwd/network/wwd_network.o
 .text.host_network_process_ethernet_data
                0x60003ab4      0x138 ./wifi_wwd/network/wwd_network.o
                0x60003ab4                host_network_process_ethernet_data
 .text.wlanif_init
                0x60003bec       0x58 ./wifi_wwd/network/wwd_network.o
                0x60003bec                wlanif_init
 .text.wwd_bus_is_up
                0x60003c44        0xc ./wifi_wwd/WWD/internal/chips/wwd_chip_specific_functions.o
                0x60003c44                wwd_bus_is_up
 .text.wwd_chip_specific_socsram_init
                0x60003c50       0x54 ./wifi_wwd/WWD/internal/chips/wwd_chip_specific_functions.o
                0x60003c50                wwd_chip_specific_socsram_init
 .text.wwd_ensure_wlan_bus_is_up
                0x60003ca4       0xc8 ./wifi_wwd/WWD/internal/chips/wwd_chip_specific_functions.o
                0x60003ca4                wwd_ensure_wlan_bus_is_up
 .text.wwd_allow_wlan_bus_to_sleep
                0x60003d6c       0x44 ./wifi_wwd/WWD/internal/chips/wwd_chip_specific_functions.o
                0x60003d6c                wwd_allow_wlan_bus_to_sleep
 .text.wwd_enable_save_restore
                0x60003db0      0x140 ./wifi_wwd/WWD/internal/chips/wwd_chip_specific_functions.o
 .text.wwd_is_fw_sr_capable
                0x60003ef0       0x38 ./wifi_wwd/WWD/internal/chips/wwd_chip_specific_functions.o
 .text.wwd_kso_enable
                0x60003f28       0xdc ./wifi_wwd/WWD/internal/chips/wwd_chip_specific_functions.o
 .text.wwd_bus_init
                0x60004004      0x4e4 ./wifi_wwd/WWD/internal/bus_protocols/SDIO/wwd_bus_protocol.o
                0x60004004                wwd_bus_init
 .text.wwd_bus_wake_interrupt_present
                0x600044e8       0x6c ./wifi_wwd/WWD/internal/bus_protocols/SDIO/wwd_bus_protocol.o
                0x600044e8                wwd_bus_wake_interrupt_present
 .text.wwd_bus_packet_available_to_read
                0x60004554       0x74 ./wifi_wwd/WWD/internal/bus_protocols/SDIO/wwd_bus_protocol.o
                0x60004554                wwd_bus_packet_available_to_read
 .text.wwd_bus_read_frame
                0x600045c8      0x1d8 ./wifi_wwd/WWD/internal/bus_protocols/SDIO/wwd_bus_protocol.o
                0x600045c8                wwd_bus_read_frame
 .text.wwd_bus_sdio_download_firmware
                0x600047a0      0x1c4 ./wifi_wwd/WWD/internal/bus_protocols/SDIO/wwd_bus_protocol.o
 .text.wwd_bus_sdio_abort_read
                0x60004964       0x84 ./wifi_wwd/WWD/internal/bus_protocols/SDIO/wwd_bus_protocol.o
 .text.wwd_bus_poke_wlan
                0x600049e8       0x18 ./wifi_wwd/WWD/internal/bus_protocols/SDIO/wwd_bus_protocol.o
                0x600049e8                wwd_bus_poke_wlan
 .text.wwd_bus_set_flow_control
                0x60004a00       0x2c ./wifi_wwd/WWD/internal/bus_protocols/SDIO/wwd_bus_protocol.o
                0x60004a00                wwd_bus_set_flow_control
 .text.wwd_bus_is_flow_controlled
                0x60004a2c        0xc ./wifi_wwd/WWD/internal/bus_protocols/SDIO/wwd_bus_protocol.o
                0x60004a2c                wwd_bus_is_flow_controlled
 .text.wwd_bus_sdio_set_oob_interrupt
                0x60004a38       0xac ./wifi_wwd/WWD/internal/bus_protocols/SDIO/wwd_bus_protocol.o
 .text.wwd_bus_reinit
                0x60004ae4      0x4b4 ./wifi_wwd/WWD/internal/bus_protocols/SDIO/wwd_bus_protocol.o
                0x60004ae4                wwd_bus_reinit
 .text.wwd_delayed_bus_release_schedule_update
                0x60004f98       0x24 ./wifi_wwd/WWD/internal/bus_protocols/wwd_bus_common.o
                0x60004f98                wwd_delayed_bus_release_schedule_update
 .text.wwd_bus_handle_delayed_release
                0x60004fbc       0xe8 ./wifi_wwd/WWD/internal/bus_protocols/wwd_bus_common.o
                0x60004fbc                wwd_bus_handle_delayed_release
 .text.wwd_bus_init_backplane_window
                0x600050a4       0x10 ./wifi_wwd/WWD/internal/bus_protocols/wwd_bus_common.o
                0x600050a4                wwd_bus_init_backplane_window
 .text.wwd_bus_write_wifi_nvram_image
                0x600050b4       0x8c ./wifi_wwd/WWD/internal/bus_protocols/wwd_bus_common.o
                0x600050b4                wwd_bus_write_wifi_nvram_image
 .text.download_resource
                0x60005140      0x184 ./wifi_wwd/WWD/internal/bus_protocols/wwd_bus_common.o
 .text.wwd_bus_set_backplane_window
                0x600052c4       0xe0 ./wifi_wwd/WWD/internal/bus_protocols/wwd_bus_common.o
                0x600052c4                wwd_bus_set_backplane_window
 .text.wwd_wifi_get_ap_is_up
                0x600053a4        0xc ./wifi_wwd/WWD/internal/wwd_ap_common.o
                0x600053a4                wwd_wifi_get_ap_is_up
 .text.wwd_wifi_set_block_ack_window_size_common
                0x600053b0       0x5c ./wifi_wwd/WWD/internal/wwd_ap_common.o
                0x600053b0                wwd_wifi_set_block_ack_window_size_common
 .text.wwd_wifi_set_ampdu_parameters_common
                0x6000540c       0xa4 ./wifi_wwd/WWD/internal/wwd_ap_common.o
                0x6000540c                wwd_wifi_set_ampdu_parameters_common
 .text.wwd_process_clm_data
                0x600054b0      0x170 ./wifi_wwd/WWD/internal/wwd_clm.o
                0x600054b0                wwd_process_clm_data
 .text.wwd_get_core_address
                0x60005620       0x1c ./wifi_wwd/WWD/internal/wwd_internal.o
 .text.wwd_management_wifi_platform_init
                0x6000563c       0xc4 ./wifi_wwd/WWD/internal/wwd_management.o
                0x6000563c                wwd_management_wifi_platform_init
 .text.wwd_management_wifi_on
                0x60005700      0x238 ./wifi_wwd/WWD/internal/wwd_management.o
                0x60005700                wwd_management_wifi_on
 .text.wwd_sdpcm_init
                0x60005938       0xe8 ./wifi_wwd/WWD/internal/wwd_sdpcm.o
                0x60005938                wwd_sdpcm_init
 .text.wwd_sdpcm_bus_vars_init
                0x60005a20       0x2c ./wifi_wwd/WWD/internal/wwd_sdpcm.o
                0x60005a20                wwd_sdpcm_bus_vars_init
 .text.wwd_sdpcm_quit
                0x60005a4c       0x60 ./wifi_wwd/WWD/internal/wwd_sdpcm.o
                0x60005a4c                wwd_sdpcm_quit
 .text.wwd_network_send_ethernet_data
                0x60005aac      0x124 ./wifi_wwd/WWD/internal/wwd_sdpcm.o
                0x60005aac                wwd_network_send_ethernet_data
 .text.wwd_sdpcm_update_credit
                0x60005bd0       0x6c ./wifi_wwd/WWD/internal/wwd_sdpcm.o
                0x60005bd0                wwd_sdpcm_update_credit
 .text.wwd_sdpcm_process_rx_packet
                0x60005c3c      0x4d4 ./wifi_wwd/WWD/internal/wwd_sdpcm.o
                0x60005c3c                wwd_sdpcm_process_rx_packet
 .text.wwd_sdpcm_notify_client_ioctl_finished
                0x60006110       0x34 ./wifi_wwd/WWD/internal/wwd_sdpcm.o
 .text.wwd_sdpcm_notify_client_ioctl_start
                0x60006144       0x18 ./wifi_wwd/WWD/internal/wwd_sdpcm.o
 .text.wwd_sdpcm_notify_client_ioctl_end_registered
                0x6000615c       0x18 ./wifi_wwd/WWD/internal/wwd_sdpcm.o
 .text.wwd_sdpcm_send_ioctl
                0x60006174      0x21c ./wifi_wwd/WWD/internal/wwd_sdpcm.o
                0x60006174                wwd_sdpcm_send_ioctl
 .text.wwd_management_set_event_handler_locally
                0x60006390      0x14c ./wifi_wwd/WWD/internal/wwd_sdpcm.o
                0x60006390                wwd_management_set_event_handler_locally
 .text.wwd_management_alloc_event_msgs_buffer
                0x600064dc      0x158 ./wifi_wwd/WWD/internal/wwd_sdpcm.o
 .text.wwd_management_set_event_handler
                0x60006634      0x1cc ./wifi_wwd/WWD/internal/wwd_sdpcm.o
                0x60006634                wwd_management_set_event_handler
 .text.wwd_sdpcm_has_tx_packet
                0x60006800       0x18 ./wifi_wwd/WWD/internal/wwd_sdpcm.o
                0x60006800                wwd_sdpcm_has_tx_packet
 .text.wwd_sdpcm_get_packet_to_send
                0x60006818       0xbc ./wifi_wwd/WWD/internal/wwd_sdpcm.o
                0x60006818                wwd_sdpcm_get_packet_to_send
 .text.wwd_sdpcm_get_available_credits
                0x600068d4       0x18 ./wifi_wwd/WWD/internal/wwd_sdpcm.o
                0x600068d4                wwd_sdpcm_get_available_credits
 .text.wwd_get_bss_index
                0x600068ec       0x20 ./wifi_wwd/WWD/internal/wwd_sdpcm.o
                0x600068ec                wwd_get_bss_index
 .text.wwd_sdpcm_send_common
                0x6000690c       0xd8 ./wifi_wwd/WWD/internal/wwd_sdpcm.o
 .text.wwd_map_dscp_to_priority
                0x600069e4       0x24 ./wifi_wwd/WWD/internal/wwd_sdpcm.o
 .text.wwd_wifi_get_source_interface
                0x60006a08       0x30 ./wifi_wwd/WWD/internal/wwd_sdpcm.o
 .text.wwd_thread_init
                0x60006a38       0x84 ./wifi_wwd/WWD/internal/wwd_thread.o
                0x60006a38                wwd_thread_init
 .text.wwd_thread_notify_irq
                0x60006abc       0x2c ./wifi_wwd/WWD/internal/wwd_thread.o
                0x60006abc                wwd_thread_notify_irq
 .text.wwd_thread_notify
                0x60006ae8       0x20 ./wifi_wwd/WWD/internal/wwd_thread.o
                0x60006ae8                wwd_thread_notify
 .text.wwd_thread_func
                0x60006b08       0xa0 ./wifi_wwd/WWD/internal/wwd_thread.o
 .text.wwd_wifi_p2p_is_go_up
                0x60006ba8        0xc ./wifi_wwd/WWD/internal/wwd_wifi.o
                0x60006ba8                wwd_wifi_p2p_is_go_up
 .text.wwd_wifi_active_join_init
                0x60006bb4       0xa8 ./wifi_wwd/WWD/internal/wwd_wifi.o
 .text.wwd_wifi_active_join_deinit
                0x60006c5c       0x78 ./wifi_wwd/WWD/internal/wwd_wifi.o
 .text.wwd_wifi_join
                0x60006cd4      0x18c ./wifi_wwd/WWD/internal/wwd_wifi.o
                0x60006cd4                wwd_wifi_join
 .text.wwd_wifi_prepare_join
                0x60006e60      0x654 ./wifi_wwd/WWD/internal/wwd_wifi.o
 .text.wwd_wifi_leave
                0x600074b4       0x5c ./wifi_wwd/WWD/internal/wwd_wifi.o
                0x600074b4                wwd_wifi_leave
 .text.wiced_join_events_handler
                0x60007510      0x2d4 ./wifi_wwd/WWD/internal/wwd_wifi.o
 .text.wwd_wifi_get_mac_address
                0x600077e4       0x8c ./wifi_wwd/WWD/internal/wwd_wifi.o
                0x600077e4                wwd_wifi_get_mac_address
 .text.wwd_wifi_link_update
                0x60007870       0x18 ./wifi_wwd/WWD/internal/wwd_wifi.o
                0x60007870                wwd_wifi_link_update
 .text.wwd_wifi_monitor_mode_is_enabled
                0x60007888        0xc ./wifi_wwd/WWD/internal/wwd_wifi.o
                0x60007888                wwd_wifi_monitor_mode_is_enabled
 .text.wwd_wifi_set_up
                0x60007894       0x4c ./wifi_wwd/WWD/internal/wwd_wifi.o
                0x60007894                wwd_wifi_set_up
 .text.wwd_wifi_set_supplicant_eapol_key_timeout
                0x600078e0       0x6c ./wifi_wwd/WWD/internal/wwd_wifi.o
                0x600078e0                wwd_wifi_set_supplicant_eapol_key_timeout
 .text.wwd_wifi_get_wifi_version
                0x6000794c       0x60 ./wifi_wwd/WWD/internal/wwd_wifi.o
                0x6000794c                wwd_wifi_get_wifi_version
 .text.wwd_wifi_get_clm_version
                0x600079ac       0x7c ./wifi_wwd/WWD/internal/wwd_wifi.o
                0x600079ac                wwd_wifi_get_clm_version
 .text.wwd_wifi_check_join_status
                0x60007a28       0xd4 ./wifi_wwd/WWD/internal/wwd_wifi.o
 .text.wwd_wifi_is_mesh_enabled
                0x60007afc       0x1c ./wifi_wwd/WWD/internal/wwd_wifi.o
                0x60007afc                wwd_wifi_is_mesh_enabled
 .text.ds_state_set
                0x60007b18       0x3c ./wifi_wwd/WWD/internal/wwd_wifi_sleep.o
 .text.wwd_wifi_ds1_wake_handle
                0x60007b54       0x68 ./wifi_wwd/WWD/internal/wwd_wifi_sleep.o
                0x60007b54                wwd_wifi_ds1_wake_handle
 .text.wwd_wifi_ds1_finish_wake
                0x60007bbc       0xac ./wifi_wwd/WWD/internal/wwd_wifi_sleep.o
 .text.host_rtos_set_semaphore
                0x60007c68       0x68 ./wifi_wwd/FreeRTOS/wwd_rtos.o
                0x60007c68                host_rtos_set_semaphore
 .text.host_rtos_delay_milliseconds
                0x60007cd0       0x5c ./wifi_wwd/FreeRTOS/wwd_rtos.o
                0x60007cd0                host_rtos_delay_milliseconds
 .text.wiced_wlan_connectivity_init
                0x60007d2c       0xf8 ./wifi_wwd/wifi.o
                0x60007d2c                wiced_wlan_connectivity_init
 .text.wiced_link_events_handler
                0x60007e24      0x24c ./wifi_wwd/wifi.o
 .text.register_link_events
                0x60008070       0x3c ./wifi_wwd/wifi.o
                0x60008070                register_link_events
 .text.DbgConsole_SerialManagerRxCallback
                0x600080ac       0x48 ./utilities/fsl_debug_console.o
 .text.DbgConsole_SendData
                0x600080f4      0x164 ./utilities/fsl_debug_console.o
                0x600080f4                DbgConsole_SendData
 .text.DbgConsole_Init
                0x60008258      0x16c ./utilities/fsl_debug_console.o
                0x60008258                DbgConsole_Init
 .text.DbgConsole_Deinit
                0x600083c4       0x1c ./utilities/fsl_debug_console.o
                0x600083c4                DbgConsole_Deinit
 .text.DbgConsole_Printf
                0x600083e0       0x4c ./utilities/fsl_debug_console.o
                0x600083e0                DbgConsole_Printf
 .text.USB_EhciPhyGetBase
                0x6000842c       0xec ./usb/phy/usb_phy.o
                0x6000842c                USB_EhciPhyGetBase
 .text.USB_EhciPhyInit
                0x60008518       0xd4 ./usb/phy/usb_phy.o
                0x60008518                USB_EhciPhyInit
 .text.USB_DeviceEhciCancelControlPipe
                0x600085ec      0x1a0 ./usb/device/source/ehci/usb_device_ehci.o
 .text.USB_DeviceEhciInterruptTokenDone
                0x6000878c      0x454 ./usb/device/source/ehci/usb_device_ehci.o
 .text.USB_DeviceEhciTransfer
                0x60008be0      0x3cc ./usb/device/source/ehci/usb_device_ehci.o
 .text.USB_EhciGetValidEhciState
                0x60008fac       0x5c ./usb/device/source/ehci/usb_device_ehci.o
                0x60008fac                USB_EhciGetValidEhciState
 .text.USB_DeviceEhciInit
                0x60009008       0xec ./usb/device/source/ehci/usb_device_ehci.o
                0x60009008                USB_DeviceEhciInit
 .text.USB_DeviceEhciDeinit
                0x600090f4       0x8c ./usb/device/source/ehci/usb_device_ehci.o
                0x600090f4                USB_DeviceEhciDeinit
 .text.USB_DeviceEhciCancel
                0x60009180      0x248 ./usb/device/source/ehci/usb_device_ehci.o
                0x60009180                USB_DeviceEhciCancel
 .text.USB_DeviceEhciControl
                0x600093c8      0x294 ./usb/device/source/ehci/usb_device_ehci.o
                0x600093c8                USB_DeviceEhciControl
 .text.USB_DeviceControlCallback
                0x6000965c      0x2fc ./usb/device/source/usb_device_ch9.o
                0x6000965c                USB_DeviceControlCallback
 .text.USB_DeviceControlPipeInit
                0x60009958       0x8c ./usb/device/source/usb_device_ch9.o
                0x60009958                USB_DeviceControlPipeInit
 .text.USB_DeviceAllocateHandle
                0x600099e4       0xd8 ./usb/device/source/usb_device_dci.o
 .text.USB_DeviceGetControllerInterface
                0x60009abc       0x38 ./usb/device/source/usb_device_dci.o
 .text.USB_DeviceGetStatus
                0x60009af4       0xe0 ./usb/device/source/usb_device_dci.o
                0x60009af4                USB_DeviceGetStatus
 .text.USB_DeviceSetStatus
                0x60009bd4      0x12c ./usb/device/source/usb_device_dci.o
                0x60009bd4                USB_DeviceSetStatus
 .text.USB_DeviceTaskFunction
                0x60009d00       0x38 ./usb/device/source/usb_device_dci.o
                0x60009d00                USB_DeviceTaskFunction
 .text.USB_DeviceMscAllocateHandle
                0x60009d38      0x148 ./usb/device/class/msc/usb_device_msc.o
 .text.USB_DeviceMscProcessUfiCommand
                0x60009e80      0x444 ./usb/device/class/msc/usb_device_msc.o
                0x60009e80                USB_DeviceMscProcessUfiCommand
 .text.USB_DeviceMscBulkIn
                0x6000a2c4      0x210 ./usb/device/class/msc/usb_device_msc.o
 .text.USB_DeviceMscBulkOut
                0x6000a4d4      0x580 ./usb/device/class/msc/usb_device_msc.o
                0x6000a4d4                USB_DeviceMscBulkOut
 .text.USB_DeviceMscEndpointsInit
                0x6000aa54      0x24c ./usb/device/class/msc/usb_device_msc.o
                0x6000aa54                USB_DeviceMscEndpointsInit
 .text.USB_DeviceMscEvent
                0x6000aca0      0x498 ./usb/device/class/msc/usb_device_msc.o
                0x6000aca0                USB_DeviceMscEvent
 .text.USB_DeviceClassAllocateHandle
                0x6000b138       0xd4 ./usb/device/class/usb_device_class.o
 .text.USB_DeviceClassFreeHandle
                0x6000b20c       0x98 ./usb/device/class/usb_device_class.o
 .text.USB_DeviceClassGetHandleByControllerId
                0x6000b2a4       0x7c ./usb/device/class/usb_device_class.o
 .text.USB_DeviceClassGetHandleByDeviceHandle
                0x6000b320       0x68 ./usb/device/class/usb_device_class.o
 .text.USB_DeviceClassGetDeviceHandle
                0x6000b388       0x80 ./usb/device/class/usb_device_class.o
                0x6000b388                USB_DeviceClassGetDeviceHandle
 .text.USB_DeviceClassEvent
                0x6000b408      0x108 ./usb/device/class/usb_device_class.o
                0x6000b408                USB_DeviceClassEvent
 .text.USB_DeviceClassInit
                0x6000b510      0x14c ./usb/device/class/usb_device_class.o
                0x6000b510                USB_DeviceClassInit
 .text.map_flexram
                0x6000b65c       0x64 ./startup/startup_mimxrt106a.o
                0x6000b65c                map_flexram
 .text.SCB_InvalidateDCache
                0x6000b6c0       0x68 ./source/bl_drv/fsl_dcp.o
 .text.SCB_CleanDCache
                0x6000b728       0x68 ./source/bl_drv/fsl_dcp.o
 .text.dcp_enable
                0x6000b790       0x24 ./source/bl_drv/fsl_dcp.o
 .text.dcp_aes_init
                0x6000b7b4       0x4c ./source/bl_drv/fsl_dcp.o
                0x6000b7b4                dcp_aes_init
 .text.dcp_aes_set_key
                0x6000b800      0x150 ./source/bl_drv/fsl_dcp.o
                0x6000b800                dcp_aes_set_key
 .text.dcp_aes_config_key_iv
                0x6000b950      0x134 ./source/bl_drv/fsl_dcp.o
 .text.dcp_wait_task_done
                0x6000ba84       0xa8 ./source/bl_drv/fsl_dcp.o
 .text.dcp_entry
                0x6000bb2c       0x18 ./source/bl_drv/fsl_dcp.o
                0x6000bb2c                dcp_entry
 .text.__NVIC_SystemReset
                0x6000bb44       0x24 ./source/aws_ota_pal.o
 .text.prvPAL_CreateFileForRx
                0x6000bb68       0xa8 ./source/aws_ota_pal.o
                0x6000bb68                prvPAL_CreateFileForRx
 .text.prvPAL_Abort
                0x6000bc10       0x64 ./source/aws_ota_pal.o
                0x6000bc10                prvPAL_Abort
 .text.prvPAL_WriteBlock
                0x6000bc74       0x40 ./source/aws_ota_pal.o
                0x6000bc74                prvPAL_WriteBlock
 .text.prvPAL_CloseFile
                0x6000bcb4       0x4c ./source/aws_ota_pal.o
                0x6000bcb4                prvPAL_CloseFile
 .text.prvPAL_ResetDevice
                0x6000bd00       0x24 ./source/aws_ota_pal.o
                0x6000bd00                prvPAL_ResetDevice
 .text.prvPAL_ActivateNewImage
                0x6000bd24       0x1c ./source/aws_ota_pal.o
                0x6000bd24                prvPAL_ActivateNewImage
 .text.prvPAL_SetPlatformImageState
                0x6000bd40       0xc4 ./source/aws_ota_pal.o
                0x6000bd40                prvPAL_SetPlatformImageState
 .text.prvPAL_GetPlatformImageState
                0x6000be04        0xc ./source/aws_ota_pal.o
                0x6000be04                prvPAL_GetPlatformImageState
 .text.ota_pal_ota_done_task_set
                0x6000be10       0x14 ./source/aws_ota_pal.o
                0x6000be10                ota_pal_ota_done_task_set
 .text.__NVIC_DisableIRQ
                0x6000be24       0x40 ./source/bootloader.o
 .text.GPIO_PinRead
                0x6000be64       0x30 ./source/bootloader.o
 .text.the_should_never_get_here_catch
                0x6000be94       0x18 ./source/bootloader.o
                0x6000be94                the_should_never_get_here_catch
 .text.JumpToAddr
                0x6000beac       0x5c ./source/bootloader.o
                0x6000beac                JumpToAddr
 .text.CheckForFactoryReset
                0x6000bf08       0x60 ./source/bootloader.o
                0x6000bf08                CheckForFactoryReset
 .text.CheckForMSDMode
                0x6000bf68       0x1c ./source/bootloader.o
                0x6000bf68                CheckForMSDMode
 .text.Run_OTA_Task
                0x6000bf84       0x34 ./source/bootloader.o
                0x6000bf84                Run_OTA_Task
 .text.__NVIC_EnableIRQ
                0x6000bfb8       0x34 ./source/disk.o
 .text.__NVIC_SetPriority
                0x6000bfec       0x50 ./source/disk.o
 .text.USB_OTG1_IRQHandler
                0x6000c03c       0x18 ./source/disk.o
                0x6000c03c                USB_OTG1_IRQHandler
 .text.USB_OTG2_IRQHandler
                0x6000c054       0x18 ./source/disk.o
                0x6000c054                USB_OTG2_IRQHandler
 .text.USB_DeviceClockInit
                0x6000c06c       0x44 ./source/disk.o
                0x6000c06c                USB_DeviceClockInit
 .text.USB_DeviceIsrEnable
                0x6000c0b0       0x3c ./source/disk.o
                0x6000c0b0                USB_DeviceIsrEnable
 .text.USB_DeviceMscCallback
                0x6000c0ec      0x168 ./source/disk.o
                0x6000c0ec                USB_DeviceMscCallback
 .text.USB_DeviceCallback
                0x6000c254      0x1ec ./source/disk.o
                0x6000c254                USB_DeviceCallback
 .text.USB_DeviceApplicationInit
                0x6000c440       0x74 ./source/disk.o
                0x6000c440                USB_DeviceApplicationInit
 .text.USB_Finalize_MSC_Transfer
                0x6000c4b4       0xdc ./source/disk.o
                0x6000c4b4                USB_Finalize_MSC_Transfer
 .text.USB_DeviceTask
                0x6000c590       0x1c ./source/disk.o
                0x6000c590                USB_DeviceTask
 .text.USB_MSC_TASK
                0x6000c5ac       0x5c ./source/disk.o
                0x6000c5ac                USB_MSC_TASK
 .text.USB_MSC_Init
                0x6000c608       0x54 ./source/disk.o
                0x6000c608                USB_MSC_Init
 .text.__NVIC_SystemReset
                0x6000c65c       0x24 ./source/flash_ica_driver.o
 .text.SCB_EnableDCache
                0x6000c680       0x78 ./source/flash_ica_driver.o
 .text.SCB_DisableDCache
                0x6000c6f8       0x64 ./source/flash_ica_driver.o
 .text.main     0x6000c75c       0x44 ./source/main.o
                0x6000c75c                main
 .text.APP_Wifi_UX_Callback
                0x6000c7a0       0x24 ./source/network_connection.o
                0x6000c7a0                APP_Wifi_UX_Callback
 .text.APP_Wifi_Connect_Update_Handler_Set
                0x6000c7c4       0x14 ./source/network_connection.o
                0x6000c7c4                APP_Wifi_Connect_Update_Handler_Set
 .text.wlan_connectivity_init
                0x6000c7d8       0x64 ./source/network_connection.o
 .text.get_wifi_connect_state
                0x6000c83c        0xc ./source/network_connection.o
                0x6000c83c                get_wifi_connect_state
 .text.wifi_connect_update_handler
                0x6000c848       0x78 ./source/network_connection.o
                0x6000c848                wifi_connect_update_handler
 .text.wifi_join
                0x6000c8c0       0xc0 ./source/network_connection.o
 .text.wifi_if_add
                0x6000c980       0xf8 ./source/network_connection.o
 .text.APP_NETWORK_Wifi_Connect
                0x6000ca78      0x14c ./source/network_connection.o
                0x6000ca78                APP_NETWORK_Wifi_Connect
 .text.bl_nor_encrypt_region_info_load_default
                0x6000cbc4      0x264 ./source/nor_encrypt_bee.o
 .text.bl_nor_in_encrypted_region
                0x6000ce28       0x98 ./source/nor_encrypt_bee.o
                0x6000ce28                bl_nor_in_encrypted_region
 .text.bl_nor_encrypt_data
                0x6000cec0       0xf8 ./source/nor_encrypt_bee.o
                0x6000cec0                bl_nor_encrypt_data
 .text.vApplicationStackOverflowHook
                0x6000cfb8       0x20 ./source/os_hooks.o
                0x6000cfb8                vApplicationStackOverflowHook
 .text.vApplicationMallocFailedHook
                0x6000cfd8       0x14 ./source/os_hooks.o
                0x6000cfd8                vApplicationMallocFailedHook
 .text.vApplicationGetIdleTaskMemory
                0x6000cfec       0x28 ./source/os_hooks.o
                0x6000cfec                vApplicationGetIdleTaskMemory
 .text.vApplicationGetTimerTaskMemory
                0x6000d014       0x2c ./source/os_hooks.o
                0x6000d014                vApplicationGetTimerTaskMemory
 .text.PKCS11_KeyGen
                0x6000d040      0x1a4 ./source/pkcs11.o
                0x6000d040                PKCS11_KeyGen
 .text.prvInitializeKey
                0x6000d1e4      0x178 ./source/pkcs11.o
 .text.prvLoadAndInitializeDefaultCertificateAndKey
                0x6000d35c      0x138 ./source/pkcs11.o
 .text.C_GetFunctionList
                0x6000d494       0x18 ./source/pkcs11.o
                0x6000d494                C_GetFunctionList
 .text.C_OpenSession
                0x6000d4ac       0xc4 ./source/pkcs11.o
                0x6000d4ac                C_OpenSession
 .text.C_CreateObject
                0x6000d570      0x108 ./source/pkcs11.o
                0x6000d570                C_CreateObject
 .text.C_GetAttributeValue
                0x6000d678      0x188 ./source/pkcs11.o
                0x6000d678                C_GetAttributeValue
 .text.C_Sign   0x6000d800       0x78 ./source/pkcs11.o
                0x6000d800                C_Sign
 .text.SLN_Encrypt_Attach_Key
                0x6000d878       0x20 ./source/sln_encrypt.o
 .text.SLN_Encrypt_Key_Loaded
                0x6000d898       0x40 ./source/sln_encrypt.o
 .text.SLN_Encrypt_KeySlot_Busy
                0x6000d8d8       0x48 ./source/sln_encrypt.o
 .text.SLN_Encrypt_Init_Slot
                0x6000d920       0x80 ./source/sln_encrypt.o
                0x6000d920                SLN_Encrypt_Init_Slot
 .text.SLN_Encrypt
                0x6000d9a0      0x120 ./source/sln_encrypt.o
                0x6000d9a0                SLN_Encrypt
 .text.SLN_Decrypt
                0x6000dac0      0x15c ./source/sln_encrypt.o
                0x6000dac0                SLN_Decrypt
 .text.SLN_Crc  0x6000dc1c       0x88 ./source/sln_encrypt.o
                0x6000dc1c                SLN_Crc
 .text.SCB_EnableDCache
                0x6000dca4       0x78 ./source/sln_flash.o
 .text.SCB_DisableDCache
                0x6000dd1c       0x64 ./source/sln_flash.o
 .text.get_file_info_from_name
                0x6000dd80       0xd4 ./source/sln_flash_mgmt.o
 .text.calc_crc_32
                0x6000de54       0x58 ./source/sln_flash_mgmt.o
 .text.get_file_data
                0x6000deac       0x7c ./source/sln_flash_mgmt.o
 .text.set_file_data
                0x6000df28       0x64 ./source/sln_flash_mgmt.o
 .text.init_ram_crc_mirror
                0x6000df8c      0x180 ./source/sln_flash_mgmt.o
 .text.garbage_collector
                0x6000e10c      0x254 ./source/sln_flash_mgmt.o
 .text.SLN_FLASH_MGMT_Init
                0x6000e360      0x1b4 ./source/sln_flash_mgmt.o
                0x6000e360                SLN_FLASH_MGMT_Init
 .text.SLN_FLASH_MGMT_Save
                0x6000e514      0x288 ./source/sln_flash_mgmt.o
                0x6000e514                SLN_FLASH_MGMT_Save
 .text.SLN_FLASH_MGMT_Read
                0x6000e79c      0x24c ./source/sln_flash_mgmt.o
                0x6000e79c                SLN_FLASH_MGMT_Read
 .text.__NVIC_SystemReset
                0x6000e9e8       0x24 ./source/sln_ota.o
 .text.APP_MQTT_Connect
                0x6000ea0c      0x108 ./source/sln_ota.o
                0x6000ea0c                APP_MQTT_Connect
 .text.APP_GetUniqueID
                0x6000eb14       0x94 ./source/sln_ota.o
                0x6000eb14                APP_GetUniqueID
 .text.reconnectTask
                0x6000eba8      0x104 ./source/sln_ota.o
                0x6000eba8                reconnectTask
 .text.otaDoneTask
                0x6000ecac       0xd0 ./source/sln_ota.o
                0x6000ecac                otaDoneTask
 .text.mainAppVersionGet
                0x6000ed7c       0xb4 ./source/sln_ota.o
 .text.APP_wifi_connect_update_handler
                0x6000ee30       0x6c ./source/sln_ota.o
                0x6000ee30                APP_wifi_connect_update_handler
 .text.otaAppInitTask
                0x6000ee9c      0x140 ./source/sln_ota.o
                0x6000ee9c                otaAppInitTask
 .text.SLN_OTA_SEC_Verify_Cert
                0x6000efdc      0x114 ./source/sln_ota_sec.o
                0x6000efdc                SLN_OTA_SEC_Verify_Cert
 .text.SLN_OTA_SEC_Verify_Signature
                0x6000f0f0      0x160 ./source/sln_ota_sec.o
                0x6000f0f0                SLN_OTA_SEC_Verify_Signature
 .text.USB_DeviceGetDeviceDescriptor
                0x6000f250       0x20 ./source/usb_device_descriptor.o
                0x6000f250                USB_DeviceGetDeviceDescriptor
 .text.USB_DeviceGetConfigurationDescriptor
                0x6000f270       0x2c ./source/usb_device_descriptor.o
                0x6000f270                USB_DeviceGetConfigurationDescriptor
 .text.USB_DeviceGetStringDescriptor
                0x6000f29c       0xd0 ./source/usb_device_descriptor.o
                0x6000f29c                USB_DeviceGetStringDescriptor
 .text.USB_DeviceSetSpeed
                0x6000f36c      0x150 ./source/usb_device_descriptor.o
                0x6000f36c                USB_DeviceSetSpeed
 .text.wifi_credentials_flash_get
                0x6000f4bc       0x30 ./source/wifi_credentials.o
                0x6000f4bc                wifi_credentials_flash_get
 .text.SDIO_IO_RW_Direct
                0x6000f4ec       0xe0 ./sdmmc/src/fsl_sdio.o
                0x6000f4ec                SDIO_IO_RW_Direct
 .text.SDIO_GetCardCapability
                0x6000f5cc      0x2d4 ./sdmmc/src/fsl_sdio.o
                0x6000f5cc                SDIO_GetCardCapability
 .text.SDIO_HostInit
                0x6000f8a0       0x6c ./sdmmc/src/fsl_sdio.o
                0x6000f8a0                SDIO_HostInit
 .text.SDMMCEVENT_GetInstance
                0x6000f90c       0x38 ./sdmmc/port/fsl_sdmmc_event.o
 .text.SDMMCEVENT_Wait
                0x6000f944       0x78 ./sdmmc/port/fsl_sdmmc_event.o
                0x6000f944                SDMMCEVENT_Wait
 .text.SDMMCEVENT_Notify
                0x6000f9bc       0x70 ./sdmmc/port/fsl_sdmmc_event.o
                0x6000f9bc                SDMMCEVENT_Notify
 .text.__NVIC_EnableIRQ
                0x6000fa2c       0x34 ./sdmmc/port/fsl_sdmmc_host_uvoice.o
 .text.__NVIC_SetPriority
                0x6000fa60       0x50 ./sdmmc/port/fsl_sdmmc_host_uvoice.o
 .text.GPIO_PinRead
                0x6000fab0       0x30 ./sdmmc/port/fsl_sdmmc_host_uvoice.o
 .text.SDMMCHOST_DetectCardByGpio
                0x6000fae0       0x6c ./sdmmc/port/fsl_sdmmc_host_uvoice.o
 .text.SDMMCHOST_DetectCardInsertByHost
                0x6000fb4c       0x3c ./sdmmc/port/fsl_sdmmc_host_uvoice.o
 .text.SDMMCHOST_DetectCardRemoveByHost
                0x6000fb88       0x38 ./sdmmc/port/fsl_sdmmc_host_uvoice.o
 .text.SDMMCHOST_TransferCompleteCallback
                0x6000fbc0       0x34 ./sdmmc/port/fsl_sdmmc_host_uvoice.o
 .text.SDMMCHOST_ReTuningCallback
                0x6000fbf4       0x20 ./sdmmc/port/fsl_sdmmc_host_uvoice.o
 .text.SDMMCHOST_TransferFunction
                0x6000fc14       0xcc ./sdmmc/port/fsl_sdmmc_host_uvoice.o
 .text.SDMMCHOST_CardDetectInit
                0x6000fce0       0xd8 ./sdmmc/port/fsl_sdmmc_host_uvoice.o
 .text.GPIO2_Combined_16_31_IRQHandler
                0x6000fdb8       0x38 ./sdmmc/port/fsl_sdmmc_host_uvoice.o
                0x6000fdb8                GPIO2_Combined_16_31_IRQHandler
 .text.SDMMCHOST_Init
                0x6000fdf0       0xf4 ./sdmmc/port/fsl_sdmmc_host_uvoice.o
                0x6000fdf0                SDMMCHOST_Init
 .text.USB_OsaMsgqCreate
                0x6000fee4       0xd0 ./osa/usb_osa_freertos.o
                0x6000fee4                USB_OsaMsgqCreate
 .text.USB_OsaMsgqSend
                0x6000ffb4       0x7c ./osa/usb_osa_freertos.o
                0x6000ffb4                USB_OsaMsgqSend
 .text.USB_OsaMsgqRecv
                0x60010030       0x64 ./osa/usb_osa_freertos.o
                0x60010030                USB_OsaMsgqRecv
 .text.crypto_attach_ctx_to_key_slot
                0x60010094       0x20 ./mbedtls/port/ksdk/ksdk_mbedtls.o
 .text.crypto_detach_ctx_from_key_slot
                0x600100b4       0x3c ./mbedtls/port/ksdk/ksdk_mbedtls.o
 .text.crypto_key_is_loaded
                0x600100f0       0x40 ./mbedtls/port/ksdk/ksdk_mbedtls.o
 .text.CRYPTO_InitHardware
                0x60010130       0x38 ./mbedtls/port/ksdk/ksdk_mbedtls.o
                0x60010130                CRYPTO_InitHardware
 .text.mbedtls_internal_aes_encrypt
                0x60010168       0x60 ./mbedtls/port/ksdk/ksdk_mbedtls.o
                0x60010168                mbedtls_internal_aes_encrypt
 .text.mbedtls_internal_aes_decrypt
                0x600101c8       0x60 ./mbedtls/port/ksdk/ksdk_mbedtls.o
                0x600101c8                mbedtls_internal_aes_decrypt
 .text.mbedtls_aes_crypt_cbc
                0x60010228       0xc0 ./mbedtls/port/ksdk/ksdk_mbedtls.o
                0x60010228                mbedtls_aes_crypt_cbc
 .text.mbedtls_sha1_starts_ret
                0x600102e8       0x38 ./mbedtls/port/ksdk/ksdk_mbedtls.o
                0x600102e8                mbedtls_sha1_starts_ret
 .text.mbedtls_internal_sha1_process
                0x60010320       0x34 ./mbedtls/port/ksdk/ksdk_mbedtls.o
                0x60010320                mbedtls_internal_sha1_process
 .text.mbedtls_sha1_update_ret
                0x60010354       0x38 ./mbedtls/port/ksdk/ksdk_mbedtls.o
                0x60010354                mbedtls_sha1_update_ret
 .text.mbedtls_sha1_finish_ret
                0x6001038c       0x34 ./mbedtls/port/ksdk/ksdk_mbedtls.o
                0x6001038c                mbedtls_sha1_finish_ret
 .text.mbedtls_sha256_starts_ret
                0x600103c0       0x40 ./mbedtls/port/ksdk/ksdk_mbedtls.o
                0x600103c0                mbedtls_sha256_starts_ret
 .text.mbedtls_internal_sha256_process
                0x60010400       0x34 ./mbedtls/port/ksdk/ksdk_mbedtls.o
                0x60010400                mbedtls_internal_sha256_process
 .text.mbedtls_sha256_update_ret
                0x60010434       0x38 ./mbedtls/port/ksdk/ksdk_mbedtls.o
                0x60010434                mbedtls_sha256_update_ret
 .text.mbedtls_sha256_finish_ret
                0x6001046c       0x34 ./mbedtls/port/ksdk/ksdk_mbedtls.o
                0x6001046c                mbedtls_sha256_finish_ret
 .text.mbedtls_hardware_poll
                0x600104a0       0x3c ./mbedtls/port/ksdk/ksdk_mbedtls.o
                0x600104a0                mbedtls_hardware_poll
 .text.mbedtls_asn1_get_len
                0x600104dc      0x17c ./mbedtls/library/asn1parse.o
                0x600104dc                mbedtls_asn1_get_len
 .text.mbedtls_base64_encode
                0x60010658      0x1dc ./mbedtls/library/base64.o
                0x60010658                mbedtls_base64_encode
 .text.mbedtls_base64_decode
                0x60010834      0x230 ./mbedtls/library/base64.o
                0x60010834                mbedtls_base64_decode
 .text.mbedtls_mpi_div_mpi
                0x60010a64      0x548 ./mbedtls/library/bignum.o
                0x60010a64                mbedtls_mpi_div_mpi
 .text.mpi_check_small_factors
                0x60010fac       0x88 ./mbedtls/library/bignum.o
 .text.mbedtls_cipher_info_from_type
                0x60011034       0x3c ./mbedtls/library/cipher.o
                0x60011034                mbedtls_cipher_info_from_type
 .text.mbedtls_cipher_info_from_values
                0x60011070       0x60 ./mbedtls/library/cipher.o
                0x60011070                mbedtls_cipher_info_from_values
 .text.mbedtls_cipher_setup
                0x600110d0       0x5c ./mbedtls/library/cipher.o
                0x600110d0                mbedtls_cipher_setup
 .text.mbedtls_cipher_setkey
                0x6001112c       0xbc ./mbedtls/library/cipher.o
                0x6001112c                mbedtls_cipher_setkey
 .text.mbedtls_cipher_set_iv
                0x600111e8       0x7c ./mbedtls/library/cipher.o
                0x600111e8                mbedtls_cipher_set_iv
 .text.mbedtls_cipher_reset
                0x60011264       0x28 ./mbedtls/library/cipher.o
                0x60011264                mbedtls_cipher_reset
 .text.mbedtls_cipher_update
                0x6001128c      0x348 ./mbedtls/library/cipher.o
                0x6001128c                mbedtls_cipher_update
 .text.get_pkcs_padding
                0x600115d4       0xe0 ./mbedtls/library/cipher.o
 .text.get_one_and_zeros_padding
                0x600116b4       0xd8 ./mbedtls/library/cipher.o
 .text.get_zeros_and_len_padding
                0x6001178c       0xdc ./mbedtls/library/cipher.o
 .text.get_zeros_padding
                0x60011868       0x90 ./mbedtls/library/cipher.o
 .text.get_no_padding
                0x600118f8       0x2c ./mbedtls/library/cipher.o
 .text.mbedtls_cipher_finish
                0x60011924      0x198 ./mbedtls/library/cipher.o
                0x60011924                mbedtls_cipher_finish
 .text.mbedtls_cipher_set_padding_mode
                0x60011abc       0xc0 ./mbedtls/library/cipher.o
                0x60011abc                mbedtls_cipher_set_padding_mode
 .text.mbedtls_cipher_auth_encrypt
                0x60011b7c       0x58 ./mbedtls/library/cipher.o
                0x60011b7c                mbedtls_cipher_auth_encrypt
 .text.mbedtls_cipher_auth_decrypt
                0x60011bd4       0x68 ./mbedtls/library/cipher.o
                0x60011bd4                mbedtls_cipher_auth_decrypt
 .text.mbedtls_ecdh_compute_shared
                0x60011c3c       0x84 ./mbedtls/library/ecdh.o
                0x60011c3c                mbedtls_ecdh_compute_shared
 .text.mbedtls_ecdh_make_public
                0x60011cc0       0x6c ./mbedtls/library/ecdh.o
                0x60011cc0                mbedtls_ecdh_make_public
 .text.mbedtls_ecdh_calc_secret
                0x60011d2c       0x98 ./mbedtls/library/ecdh.o
                0x60011d2c                mbedtls_ecdh_calc_secret
 .text.mbedtls_ecdsa_sign
                0x60011dc4      0x258 ./mbedtls/library/ecdsa.o
                0x60011dc4                mbedtls_ecdsa_sign
 .text.mbedtls_ecdsa_sign_det
                0x6001201c       0xd8 ./mbedtls/library/ecdsa.o
                0x6001201c                mbedtls_ecdsa_sign_det
 .text.mbedtls_ecdsa_verify
                0x600120f4      0x1e0 ./mbedtls/library/ecdsa.o
                0x600120f4                mbedtls_ecdsa_verify
 .text.mbedtls_ecdsa_read_signature
                0x600122d4       0xe4 ./mbedtls/library/ecdsa.o
                0x600122d4                mbedtls_ecdsa_read_signature
 .text.mbedtls_ecp_curve_list
                0x600123b8        0xc ./mbedtls/library/ecp.o
                0x600123b8                mbedtls_ecp_curve_list
 .text.mbedtls_ecp_grp_id_list
                0x600123c4       0x58 ./mbedtls/library/ecp.o
                0x600123c4                mbedtls_ecp_grp_id_list
 .text.mbedtls_ecp_point_write_binary
                0x6001241c      0x114 ./mbedtls/library/ecp.o
                0x6001241c                mbedtls_ecp_point_write_binary
 .text.mbedtls_ecp_point_read_binary
                0x60012530       0xbc ./mbedtls/library/ecp.o
                0x60012530                mbedtls_ecp_point_read_binary
 .text.mbedtls_ecp_tls_read_point
                0x600125ec       0x70 ./mbedtls/library/ecp.o
                0x600125ec                mbedtls_ecp_tls_read_point
 .text.mbedtls_ecp_tls_write_point
                0x6001265c       0x5c ./mbedtls/library/ecp.o
                0x6001265c                mbedtls_ecp_tls_write_point
 .text.mbedtls_ecp_tls_read_group
                0x600126b8       0x90 ./mbedtls/library/ecp.o
                0x600126b8                mbedtls_ecp_tls_read_group
 .text.ecp_modp
                0x60012748       0xd0 ./mbedtls/library/ecp.o
 .text.ecp_normalize_jac
                0x60012818      0x16c ./mbedtls/library/ecp.o
 .text.ecp_normalize_jac_many
                0x60012984      0x3dc ./mbedtls/library/ecp.o
 .text.ecp_double_jac
                0x60012d60      0x7a4 ./mbedtls/library/ecp.o
 .text.ecp_add_mixed
                0x60013504      0x64c ./mbedtls/library/ecp.o
 .text.ecp_randomize_jac
                0x60013b50      0x1dc ./mbedtls/library/ecp.o
 .text.ecp_mul_comb
                0x60013d2c      0x254 ./mbedtls/library/ecp.o
 .text.ecp_normalize_mxz
                0x60013f80       0x84 ./mbedtls/library/ecp.o
 .text.ecp_randomize_mxz
                0x60014004      0x118 ./mbedtls/library/ecp.o
 .text.ecp_double_add_mxz
                0x6001411c      0x5b0 ./mbedtls/library/ecp.o
 .text.mbedtls_ecp_mul
                0x600146cc       0x9c ./mbedtls/library/ecp.o
                0x600146cc                mbedtls_ecp_mul
 .text.ecp_check_pubkey_sw
                0x60014768      0x24c ./mbedtls/library/ecp.o
 .text.ecp_add  0x600149b4       0x50 ./mbedtls/library/ecp.o
                0x600149b4                ecp_add
 .text.mbedtls_ecp_muladd
                0x60014a04       0x7c ./mbedtls/library/ecp.o
                0x60014a04                mbedtls_ecp_muladd
 .text.ecp_check_pubkey_mx
                0x60014a80       0x30 ./mbedtls/library/ecp.o
 .text.mbedtls_ecp_check_pubkey
                0x60014ab0       0x60 ./mbedtls/library/ecp.o
                0x60014ab0                mbedtls_ecp_check_pubkey
 .text.mbedtls_ecp_check_privkey
                0x60014b10       0xac ./mbedtls/library/ecp.o
                0x60014b10                mbedtls_ecp_check_privkey
 .text.mbedtls_ecp_gen_keypair_base
                0x60014bbc      0x184 ./mbedtls/library/ecp.o
                0x60014bbc                mbedtls_ecp_gen_keypair_base
 .text.mbedtls_ecp_check_pub_priv
                0x60014d40      0x118 ./mbedtls/library/ecp.o
                0x60014d40                mbedtls_ecp_check_pub_priv
 .text.ecp_mpi_set1
                0x60014e58       0x20 ./mbedtls/library/ecp_curves.o
 .text.ecp_use_curve25519
                0x60014e78      0x110 ./mbedtls/library/ecp_curves.o
 .text.mbedtls_ecp_group_load
                0x60014f88      0x1d0 ./mbedtls/library/ecp_curves.o
                0x60014f88                mbedtls_ecp_group_load
 .text.ecp_mod_p255
                0x60015158       0xdc ./mbedtls/library/ecp_curves.o
 .text.mbedtls_entropy_init
                0x60015234       0x4c ./mbedtls/library/entropy.o
                0x60015234                mbedtls_entropy_init
 .text.gcm_mult
                0x60015280      0x38c ./mbedtls/library/gcm.o
 .text.mbedtls_md_info_from_type
                0x6001560c       0x68 ./mbedtls/library/md.o
                0x6001560c                mbedtls_md_info_from_type
 .text.mbedtls_md_setup
                0x60015674       0x7c ./mbedtls/library/md.o
                0x60015674                mbedtls_md_setup
 .text.mbedtls_md_starts
                0x600156f0       0x34 ./mbedtls/library/md.o
                0x600156f0                mbedtls_md_starts
 .text.mbedtls_md_update
                0x60015724       0x3c ./mbedtls/library/md.o
                0x60015724                mbedtls_md_update
 .text.mbedtls_md_finish
                0x60015760       0x38 ./mbedtls/library/md.o
                0x60015760                mbedtls_md_finish
 .text.mbedtls_md
                0x60015798       0x30 ./mbedtls/library/md.o
                0x60015798                mbedtls_md
 .text.mbedtls_md_hmac_starts
                0x600157c8      0x15c ./mbedtls/library/md.o
                0x600157c8                mbedtls_md_hmac_starts
 .text.mbedtls_md_hmac_update
                0x60015924       0x44 ./mbedtls/library/md.o
                0x60015924                mbedtls_md_hmac_update
 .text.mbedtls_md_hmac_finish
                0x60015968       0xc4 ./mbedtls/library/md.o
                0x60015968                mbedtls_md_hmac_finish
 .text.mbedtls_md_hmac_reset
                0x60015a2c       0x64 ./mbedtls/library/md.o
                0x60015a2c                mbedtls_md_hmac_reset
 .text.mbedtls_md_process
                0x60015a90       0x38 ./mbedtls/library/md.o
                0x60015a90                mbedtls_md_process
 .text.mbedtls_md5_starts_ret
                0x60015ac8       0x40 ./mbedtls/library/md5.o
                0x60015ac8                mbedtls_md5_starts_ret
 .text.mbedtls_internal_md5_process
                0x60015b08      0xd7c ./mbedtls/library/md5.o
                0x60015b08                mbedtls_internal_md5_process
 .text.oid_x509_ext_from_asn1
                0x60016884       0x68 ./mbedtls/library/oid.o
 .text.oid_sig_alg_from_asn1
                0x600168ec       0x68 ./mbedtls/library/oid.o
 .text.oid_pk_alg_from_asn1
                0x60016954       0x68 ./mbedtls/library/oid.o
 .text.oid_grp_id_from_asn1
                0x600169bc       0x68 ./mbedtls/library/oid.o
 .text.oid_cipher_alg_from_asn1
                0x60016a24       0x68 ./mbedtls/library/oid.o
 .text.mbedtls_oid_get_oid_by_md
                0x60016a8c       0x50 ./mbedtls/library/oid.o
                0x60016a8c                mbedtls_oid_get_oid_by_md
 .text.oid_md_hmac_from_asn1
                0x60016adc       0x68 ./mbedtls/library/oid.o
 .text.pem_get_iv
                0x60016b44       0xc0 ./mbedtls/library/pem.o
 .text.mbedtls_pem_read_buffer
                0x60016c04      0x37c ./mbedtls/library/pem.o
                0x60016c04                mbedtls_pem_read_buffer
 .text.mbedtls_pk_info_from_type
                0x60016f80       0x50 ./mbedtls/library/pk.o
                0x60016f80                mbedtls_pk_info_from_type
 .text.mbedtls_pk_setup
                0x60016fd0       0x50 ./mbedtls/library/pk.o
                0x60016fd0                mbedtls_pk_setup
 .text.mbedtls_pk_verify
                0x60017020       0x74 ./mbedtls/library/pk.o
                0x60017020                mbedtls_pk_verify
 .text.mbedtls_pk_verify_ext
                0x60017094       0x80 ./mbedtls/library/pk.o
                0x60017094                mbedtls_pk_verify_ext
 .text.mbedtls_pk_sign
                0x60017114       0x7c ./mbedtls/library/pk.o
                0x60017114                mbedtls_pk_sign
 .text.rsa_verify_wrap
                0x60017190       0x70 ./mbedtls/library/pk_wrap.o
 .text.rsa_decrypt_wrap
                0x60017200       0x4c ./mbedtls/library/pk_wrap.o
 .text.rsa_encrypt_wrap
                0x6001724c       0x50 ./mbedtls/library/pk_wrap.o
 .text.rsa_debug
                0x6001729c       0x48 ./mbedtls/library/pk_wrap.o
 .text.eckey_debug
                0x600172e4       0x28 ./mbedtls/library/pk_wrap.o
 .text.ecdsa_verify_wrap
                0x6001730c       0x3c ./mbedtls/library/pk_wrap.o
 .text.pkcs5_parse_pbkdf2_params
                0x60017348      0x104 ./mbedtls/library/pkcs5.o
 .text.mbedtls_pkcs5_pbes2
                0x6001744c      0x204 ./mbedtls/library/pkcs5.o
                0x6001744c                mbedtls_pkcs5_pbes2
 .text.pk_get_ecparams
                0x60017650       0x8c ./mbedtls/library/pkparse.o
 .text.pk_use_ecparams
                0x600176dc       0x6c ./mbedtls/library/pkparse.o
 .text.pk_get_rsapubkey
                0x60017748      0x130 ./mbedtls/library/pkparse.o
 .text.pk_get_pk_alg
                0x60017878       0x7c ./mbedtls/library/pkparse.o
 .text.mbedtls_pk_parse_subpubkey
                0x600178f4      0x14c ./mbedtls/library/pkparse.o
                0x600178f4                mbedtls_pk_parse_subpubkey
 .text.pk_parse_key_pkcs1_der
                0x60017a40      0x294 ./mbedtls/library/pkparse.o
 .text.pk_parse_key_sec1_der
                0x60017cd4      0x214 ./mbedtls/library/pkparse.o
 .text.pk_parse_key_pkcs8_unencrypted_der
                0x60017ee8      0x174 ./mbedtls/library/pkparse.o
 .text.pk_parse_key_pkcs8_encrypted_der
                0x6001805c      0x10c ./mbedtls/library/pkparse.o
 .text.mbedtls_pk_parse_key
                0x60018168      0x380 ./mbedtls/library/pkparse.o
                0x60018168                mbedtls_pk_parse_key
 .text.mbedtls_calloc
                0x600184e8       0x20 ./mbedtls/library/platform.o
                0x600184e8                mbedtls_calloc
 .text.mbedtls_free
                0x60018508       0x1c ./mbedtls/library/platform.o
                0x60018508                mbedtls_free
 .text.mbedtls_platform_set_calloc_free
                0x60018524       0x24 ./mbedtls/library/platform.o
                0x60018524                mbedtls_platform_set_calloc_free
 .text.mbedtls_platform_zeroize
                0x60018548       0x20 ./mbedtls/library/platform_util.o
                0x60018548                mbedtls_platform_zeroize
 .text.rsa_check_context
                0x60018568      0x114 ./mbedtls/library/rsa.o
 .text.mbedtls_rsa_complete
                0x6001867c      0x24c ./mbedtls/library/rsa.o
                0x6001867c                mbedtls_rsa_complete
 .text.mbedtls_rsa_check_pubkey
                0x600188c8       0x7c ./mbedtls/library/rsa.o
                0x600188c8                mbedtls_rsa_check_pubkey
 .text.mbedtls_rsa_check_privkey
                0x60018944       0xa0 ./mbedtls/library/rsa.o
                0x60018944                mbedtls_rsa_check_privkey
 .text.mbedtls_rsa_check_pub_priv
                0x600189e4       0x68 ./mbedtls/library/rsa.o
                0x600189e4                mbedtls_rsa_check_pub_priv
 .text.mbedtls_rsa_public
                0x60018a4c       0xc0 ./mbedtls/library/rsa.o
                0x60018a4c                mbedtls_rsa_public
 .text.rsa_prepare_blinding
                0x60018b0c      0x158 ./mbedtls/library/rsa.o
 .text.mbedtls_rsa_private
                0x60018c64      0x404 ./mbedtls/library/rsa.o
                0x60018c64                mbedtls_rsa_private
 .text.mbedtls_rsa_rsaes_pkcs1_v15_encrypt
                0x60019068      0x134 ./mbedtls/library/rsa.o
                0x60019068                mbedtls_rsa_rsaes_pkcs1_v15_encrypt
 .text.mbedtls_rsa_pkcs1_encrypt
                0x6001919c       0x40 ./mbedtls/library/rsa.o
                0x6001919c                mbedtls_rsa_pkcs1_encrypt
 .text.mbedtls_rsa_rsaes_pkcs1_v15_decrypt
                0x600191dc      0x258 ./mbedtls/library/rsa.o
                0x600191dc                mbedtls_rsa_rsaes_pkcs1_v15_decrypt
 .text.mbedtls_rsa_pkcs1_decrypt
                0x60019434       0x44 ./mbedtls/library/rsa.o
                0x60019434                mbedtls_rsa_pkcs1_decrypt
 .text.rsa_rsassa_pkcs1_v15_encode
                0x60019478      0x1e0 ./mbedtls/library/rsa.o
 .text.mbedtls_rsa_rsassa_pkcs1_v15_sign
                0x60019658      0x110 ./mbedtls/library/rsa.o
                0x60019658                mbedtls_rsa_rsassa_pkcs1_v15_sign
 .text.mbedtls_rsa_pkcs1_sign
                0x60019768       0x48 ./mbedtls/library/rsa.o
                0x60019768                mbedtls_rsa_pkcs1_sign
 .text.mbedtls_rsa_rsassa_pkcs1_v15_verify
                0x600197b0      0x100 ./mbedtls/library/rsa.o
                0x600197b0                mbedtls_rsa_rsassa_pkcs1_v15_verify
 .text.mbedtls_rsa_pkcs1_verify
                0x600198b0       0x48 ./mbedtls/library/rsa.o
                0x600198b0                mbedtls_rsa_pkcs1_verify
 .text.mbedtls_rsa_deduce_primes
                0x600198f8      0x2c4 ./mbedtls/library/rsa_internal.o
                0x600198f8                mbedtls_rsa_deduce_primes
 .text.mbedtls_rsa_validate_crt
                0x60019bbc      0x1bc ./mbedtls/library/rsa_internal.o
                0x60019bbc                mbedtls_rsa_validate_crt
 .text.mbedtls_rsa_validate_params
                0x60019d78      0x268 ./mbedtls/library/rsa_internal.o
                0x60019d78                mbedtls_rsa_validate_params
 .text.mbedtls_internal_sha512_process
                0x60019fe0     0x1570 ./mbedtls/library/sha512.o
                0x60019fe0                mbedtls_internal_sha512_process
 .text.mbedtls_ssl_list_ciphersuites
                0x6001b550        0xc ./mbedtls/library/ssl_ciphersuites.o
                0x6001b550                mbedtls_ssl_list_ciphersuites
 .text.mbedtls_ssl_ciphersuite_from_id
                0x6001b55c       0x34 ./mbedtls/library/ssl_ciphersuites.o
                0x6001b55c                mbedtls_ssl_ciphersuite_from_id
 .text.mbedtls_ssl_get_ciphersuite_sig_pk_alg
                0x6001b590       0x50 ./mbedtls/library/ssl_ciphersuites.o
                0x6001b590                mbedtls_ssl_get_ciphersuite_sig_pk_alg
 .text.mbedtls_ssl_ciphersuite_uses_ec
                0x6001b5e0       0x44 ./mbedtls/library/ssl_ciphersuites.o
                0x6001b5e0                mbedtls_ssl_ciphersuite_uses_ec
 .text.mbedtls_ssl_ciphersuite_cert_req_allowed
                0x6001b624       0x48 ./mbedtls/library/ssl_cli.o
 .text.ssl_write_client_hello
                0x6001b66c      0x378 ./mbedtls/library/ssl_cli.o
 .text.ssl_parse_renegotiation_info
                0x6001b9e4       0x3c ./mbedtls/library/ssl_cli.o
 .text.ssl_parse_max_fragment_length_ext
                0x6001ba20       0x54 ./mbedtls/library/ssl_cli.o
 .text.ssl_parse_encrypt_then_mac_ext
                0x6001ba74       0x50 ./mbedtls/library/ssl_cli.o
 .text.ssl_parse_extended_ms_ext
                0x6001bac4       0x50 ./mbedtls/library/ssl_cli.o
 .text.ssl_parse_supported_point_formats_ext
                0x6001bb14       0x84 ./mbedtls/library/ssl_cli.o
 .text.ssl_parse_alpn_ext
                0x6001bb98       0xe4 ./mbedtls/library/ssl_cli.o
 .text.ssl_parse_server_hello
                0x6001bc7c      0x50c ./mbedtls/library/ssl_cli.o
 .text.ssl_check_server_ecdh_params
                0x6001c188       0x4c ./mbedtls/library/ssl_cli.o
 .text.ssl_parse_server_ecdh_params
                0x6001c1d4       0x4c ./mbedtls/library/ssl_cli.o
 .text.ssl_parse_signature_algorithm
                0x6001c220       0xa4 ./mbedtls/library/ssl_cli.o
 .text.ssl_parse_server_key_exchange
                0x6001c2c4      0x268 ./mbedtls/library/ssl_cli.o
 .text.ssl_parse_certificate_request
                0x6001c52c      0x1c4 ./mbedtls/library/ssl_cli.o
 .text.ssl_parse_server_hello_done
                0x6001c6f0       0x68 ./mbedtls/library/ssl_cli.o
 .text.ssl_write_client_key_exchange
                0x6001c758       0xf4 ./mbedtls/library/ssl_cli.o
 .text.ssl_write_certificate_verify
                0x6001c84c      0x1d0 ./mbedtls/library/ssl_cli.o
 .text.mbedtls_ssl_handshake_client_step
                0x6001ca1c      0x12c ./mbedtls/library/ssl_cli.o
                0x6001ca1c                mbedtls_ssl_handshake_client_step
 .text.ssl_mfl_code_to_length
                0x6001cb48       0x4c ./mbedtls/library/ssl_tls.o
 .text.tls_prf_generic
                0x6001cb94      0x198 ./mbedtls/library/ssl_tls.o
 .text.mbedtls_ssl_derive_keys
                0x6001cd2c      0x4cc ./mbedtls/library/ssl_tls.o
                0x6001cd2c                mbedtls_ssl_derive_keys
 .text.ssl_encrypt_buf
                0x6001d1f8      0x504 ./mbedtls/library/ssl_tls.o
 .text.ssl_decrypt_buf
                0x6001d6fc      0x7a8 ./mbedtls/library/ssl_tls.o
 .text.mbedtls_ssl_fetch_input
                0x6001dea4       0xe4 ./mbedtls/library/ssl_tls.o
                0x6001dea4                mbedtls_ssl_fetch_input
 .text.mbedtls_ssl_flush_output
                0x6001df88       0xa8 ./mbedtls/library/ssl_tls.o
                0x6001df88                mbedtls_ssl_flush_output
 .text.mbedtls_ssl_write_handshake_msg
                0x6001e030       0xdc ./mbedtls/library/ssl_tls.o
                0x6001e030                mbedtls_ssl_write_handshake_msg
 .text.mbedtls_ssl_write_record
                0x6001e10c      0x180 ./mbedtls/library/ssl_tls.o
                0x6001e10c                mbedtls_ssl_write_record
 .text.mbedtls_ssl_prepare_handshake_record
                0x6001e28c       0x50 ./mbedtls/library/ssl_tls.o
                0x6001e28c                mbedtls_ssl_prepare_handshake_record
 .text.ssl_parse_record_header
                0x6001e2dc      0x114 ./mbedtls/library/ssl_tls.o
 .text.ssl_prepare_record_content
                0x6001e3f0       0x48 ./mbedtls/library/ssl_tls.o
 .text.ssl_consume_current_message
                0x6001e438       0x7c ./mbedtls/library/ssl_tls.o
 .text.mbedtls_ssl_handle_message_type
                0x6001e4b4       0xb8 ./mbedtls/library/ssl_tls.o
                0x6001e4b4                mbedtls_ssl_handle_message_type
 .text.mbedtls_ssl_send_alert_message
                0x6001e56c       0x70 ./mbedtls/library/ssl_tls.o
                0x6001e56c                mbedtls_ssl_send_alert_message
 .text.mbedtls_ssl_write_certificate
                0x6001e5dc      0x178 ./mbedtls/library/ssl_tls.o
                0x6001e5dc                mbedtls_ssl_write_certificate
 .text.mbedtls_ssl_parse_certificate
                0x6001e754      0x498 ./mbedtls/library/ssl_tls.o
                0x6001e754                mbedtls_ssl_parse_certificate
 .text.mbedtls_ssl_parse_change_cipher_spec
                0x6001ebec       0x74 ./mbedtls/library/ssl_tls.o
                0x6001ebec                mbedtls_ssl_parse_change_cipher_spec
 .text.mbedtls_ssl_optimize_checksum
                0x6001ec60       0x3c ./mbedtls/library/ssl_tls.o
                0x6001ec60                mbedtls_ssl_optimize_checksum
 .text.ssl_calc_finished_tls_sha256
                0x6001ec9c       0xac ./mbedtls/library/ssl_tls.o
 .text.ssl_calc_finished_tls_sha384
                0x6001ed48       0xac ./mbedtls/library/ssl_tls.o
 .text.mbedtls_ssl_parse_finished
                0x6001edf4       0xf0 ./mbedtls/library/ssl_tls.o
                0x6001edf4                mbedtls_ssl_parse_finished
 .text.ssl_handshake_params_init
                0x6001eee4       0x80 ./mbedtls/library/ssl_tls.o
 .text.ssl_handshake_init
                0x6001ef64       0xf4 ./mbedtls/library/ssl_tls.o
 .text.mbedtls_ssl_setup
                0x6001f058       0xf0 ./mbedtls/library/ssl_tls.o
                0x6001f058                mbedtls_ssl_setup
 .text.ssl_append_key_cert
                0x6001f148       0x6c ./mbedtls/library/ssl_tls.o
 .text.mbedtls_ssl_set_hostname
                0x6001f1b4       0xb8 ./mbedtls/library/ssl_tls.o
                0x6001f1b4                mbedtls_ssl_set_hostname
 .text.mbedtls_ssl_conf_alpn_protocols
                0x6001f26c       0x60 ./mbedtls/library/ssl_tls.o
                0x6001f26c                mbedtls_ssl_conf_alpn_protocols
 .text.mbedtls_ssl_handshake_step
                0x6001f2cc       0x48 ./mbedtls/library/ssl_tls.o
                0x6001f2cc                mbedtls_ssl_handshake_step
 .text.mbedtls_ssl_handshake
                0x6001f314       0x44 ./mbedtls/library/ssl_tls.o
                0x6001f314                mbedtls_ssl_handshake
 .text.mbedtls_ssl_read
                0x6001f358      0x1b8 ./mbedtls/library/ssl_tls.o
                0x6001f358                mbedtls_ssl_read
 .text.mbedtls_ssl_write
                0x6001f510       0x50 ./mbedtls/library/ssl_tls.o
                0x6001f510                mbedtls_ssl_write
 .text.mbedtls_ssl_close_notify
                0x6001f560       0x58 ./mbedtls/library/ssl_tls.o
                0x6001f560                mbedtls_ssl_close_notify
 .text.mbedtls_ssl_config_defaults
                0x6001f5b8      0x128 ./mbedtls/library/ssl_tls.o
                0x6001f5b8                mbedtls_ssl_config_defaults
 .text.mbedtls_ssl_md_alg_from_hash
                0x6001f6e0       0x50 ./mbedtls/library/ssl_tls.o
                0x6001f6e0                mbedtls_ssl_md_alg_from_hash
 .text.mbedtls_ssl_hash_from_md_alg
                0x6001f730       0x4c ./mbedtls/library/ssl_tls.o
                0x6001f730                mbedtls_ssl_hash_from_md_alg
 .text.mbedtls_ssl_check_cert_usage
                0x6001f77c       0xe4 ./mbedtls/library/ssl_tls.o
                0x6001f77c                mbedtls_ssl_check_cert_usage
 .text.mbedtls_x509_get_serial
                0x6001f860       0x8c ./mbedtls/library/x509.o
                0x6001f860                mbedtls_x509_get_serial
 .text.x509_get_attr_type_value
                0x6001f8ec      0x138 ./mbedtls/library/x509.o
 .text.mbedtls_x509_get_name
                0x6001fa24       0xb8 ./mbedtls/library/x509.o
                0x6001fa24                mbedtls_x509_get_name
 .text.x509_parse_int
                0x6001fadc       0x6c ./mbedtls/library/x509.o
 .text.x509_date_is_valid
                0x6001fb48      0x124 ./mbedtls/library/x509.o
 .text.x509_parse_time
                0x6001fc6c      0x140 ./mbedtls/library/x509.o
 .text.mbedtls_x509_get_time
                0x6001fdac       0x88 ./mbedtls/library/x509.o
                0x6001fdac                mbedtls_x509_get_time
 .text.mbedtls_x509_get_sig
                0x6001fe34       0x6c ./mbedtls/library/x509.o
                0x6001fe34                mbedtls_x509_get_sig
 .text.mbedtls_x509_get_sig_alg
                0x6001fea0       0x60 ./mbedtls/library/x509.o
                0x6001fea0                mbedtls_x509_get_sig_alg
 .text.mbedtls_x509_get_ext
                0x6001ff00       0x94 ./mbedtls/library/x509.o
                0x6001ff00                mbedtls_x509_get_ext
 .text.x509_get_version
                0x6001ff94       0x74 ./mbedtls/library/x509_crt.o
 .text.x509_get_dates
                0x60020008       0x7c ./mbedtls/library/x509_crt.o
 .text.x509_get_basic_constraints
                0x60020084       0xd4 ./mbedtls/library/x509_crt.o
 .text.x509_get_ns_cert_type
                0x60020158       0x54 ./mbedtls/library/x509_crt.o
 .text.x509_get_key_usage
                0x600201ac       0x88 ./mbedtls/library/x509_crt.o
 .text.x509_get_ext_key_usage
                0x60020234       0x40 ./mbedtls/library/x509_crt.o
 .text.x509_get_subject_alt_name
                0x60020274      0x13c ./mbedtls/library/x509_crt.o
 .text.x509_get_crt_ext
                0x600203b0      0x23c ./mbedtls/library/x509_crt.o
 .text.x509_crt_parse_der_core
                0x600205ec      0x434 ./mbedtls/library/x509_crt.o
 .text.mbedtls_x509_crt_parse_der
                0x60020a20       0xd0 ./mbedtls/library/x509_crt.o
                0x60020a20                mbedtls_x509_crt_parse_der
 .text.mbedtls_x509_crt_parse
                0x60020af0      0x15c ./mbedtls/library/x509_crt.o
                0x60020af0                mbedtls_x509_crt_parse
 .text.mbedtls_x509_crt_check_key_usage
                0x60020c4c       0x70 ./mbedtls/library/x509_crt.o
                0x60020c4c                mbedtls_x509_crt_check_key_usage
 .text.mbedtls_x509_crt_check_extended_key_usage
                0x60020cbc       0x98 ./mbedtls/library/x509_crt.o
                0x60020cbc                mbedtls_x509_crt_check_extended_key_usage
 .text.x509_crt_verify_chain
                0x60020d54      0x1a4 ./mbedtls/library/x509_crt.o
 .text.x509_crt_verify_name
                0x60020ef8       0xd0 ./mbedtls/library/x509_crt.o
 .text.mbedtls_x509_crt_verify
                0x60020fc8       0x38 ./mbedtls/library/x509_crt.o
                0x60020fc8                mbedtls_x509_crt_verify
 .text.mbedtls_x509_crt_verify_with_profile
                0x60021000      0x104 ./mbedtls/library/x509_crt.o
                0x60021000                mbedtls_x509_crt_verify_with_profile
 .text.ethernet_input
                0x60021104      0x16c ./lwip/src/netif/ethernet.o
                0x60021104                ethernet_input
 .text.ethernet_output
                0x60021270       0x94 ./lwip/src/netif/ethernet.o
                0x60021270                ethernet_output
 .text.dhcp_inc_pcb_refcount
                0x60021304       0x94 ./lwip/src/core/ipv4/dhcp.o
 .text.dhcp_dec_pcb_refcount
                0x60021398       0x44 ./lwip/src/core/ipv4/dhcp.o
 .text.dhcp_handle_nak
                0x600213dc       0x34 ./lwip/src/core/ipv4/dhcp.o
 .text.dhcp_check
                0x60021410       0x6c ./lwip/src/core/ipv4/dhcp.o
 .text.dhcp_handle_offer
                0x6002147c       0x4c ./lwip/src/core/ipv4/dhcp.o
 .text.dhcp_select
                0x600214c8      0x20c ./lwip/src/core/ipv4/dhcp.o
 .text.dhcp_coarse_tmr
                0x600216d4       0xa4 ./lwip/src/core/ipv4/dhcp.o
                0x600216d4                dhcp_coarse_tmr
 .text.dhcp_fine_tmr
                0x60021778       0x60 ./lwip/src/core/ipv4/dhcp.o
                0x60021778                dhcp_fine_tmr
 .text.dhcp_handle_ack
                0x600217d8      0x10c ./lwip/src/core/ipv4/dhcp.o
 .text.dhcp_start
                0x600218e4       0xe4 ./lwip/src/core/ipv4/dhcp.o
                0x600218e4                dhcp_start
 .text.dhcp_arp_reply
                0x600219c8       0x48 ./lwip/src/core/ipv4/dhcp.o
                0x600219c8                dhcp_arp_reply
 .text.dhcp_decline
                0x60021a10       0xf8 ./lwip/src/core/ipv4/dhcp.o
 .text.dhcp_discover
                0x60021b08      0x164 ./lwip/src/core/ipv4/dhcp.o
 .text.dhcp_bind
                0x60021c6c      0x198 ./lwip/src/core/ipv4/dhcp.o
 .text.dhcp_renew
                0x60021e04      0x158 ./lwip/src/core/ipv4/dhcp.o
                0x60021e04                dhcp_renew
 .text.dhcp_rebind
                0x60021f5c      0x158 ./lwip/src/core/ipv4/dhcp.o
 .text.dhcp_reboot
                0x600220b4      0x190 ./lwip/src/core/ipv4/dhcp.o
 .text.dhcp_release_and_stop
                0x60022244      0x138 ./lwip/src/core/ipv4/dhcp.o
                0x60022244                dhcp_release_and_stop
 .text.dhcp_option
                0x6002237c       0x70 ./lwip/src/core/ipv4/dhcp.o
 .text.dhcp_option_byte
                0x600223ec       0x48 ./lwip/src/core/ipv4/dhcp.o
 .text.dhcp_option_short
                0x60022434       0x68 ./lwip/src/core/ipv4/dhcp.o
 .text.dhcp_option_long
                0x6002249c       0x8c ./lwip/src/core/ipv4/dhcp.o
 .text.dhcp_parse_reply
                0x60022528      0x5d8 ./lwip/src/core/ipv4/dhcp.o
 .text.dhcp_recv
                0x60022b00      0x19c ./lwip/src/core/ipv4/dhcp.o
 .text.dhcp_create_msg
                0x60022c9c      0x1ac ./lwip/src/core/ipv4/dhcp.o
 .text.etharp_free_entry
                0x60022e48       0xc0 ./lwip/src/core/ipv4/etharp.o
 .text.etharp_tmr
                0x60022f08      0x150 ./lwip/src/core/ipv4/etharp.o
                0x60022f08                etharp_tmr
 .text.etharp_find_entry
                0x60023058      0x314 ./lwip/src/core/ipv4/etharp.o
 .text.etharp_update_arp_entry
                0x6002336c      0x140 ./lwip/src/core/ipv4/etharp.o
 .text.etharp_input
                0x600234ac      0x150 ./lwip/src/core/ipv4/etharp.o
                0x600234ac                etharp_input
 .text.etharp_output_to_arp_index
                0x600235fc      0x138 ./lwip/src/core/ipv4/etharp.o
 .text.etharp_output
                0x60023734      0x210 ./lwip/src/core/ipv4/etharp.o
                0x60023734                etharp_output
 .text.etharp_query
                0x60023944      0x298 ./lwip/src/core/ipv4/etharp.o
                0x60023944                etharp_query
 .text.etharp_raw
                0x60023bdc      0x120 ./lwip/src/core/ipv4/etharp.o
 .text.etharp_request_dst
                0x60023cfc       0x40 ./lwip/src/core/ipv4/etharp.o
 .text.etharp_request
                0x60023d3c       0x20 ./lwip/src/core/ipv4/etharp.o
                0x60023d3c                etharp_request
 .text.icmp_input
                0x60023d5c      0x2d8 ./lwip/src/core/ipv4/icmp.o
                0x60023d5c                icmp_input
 .text.icmp_send_response
                0x60024034       0xec ./lwip/src/core/ipv4/icmp.o
 .text.ip4_route
                0x60024120       0xe8 ./lwip/src/core/ipv4/ip4.o
                0x60024120                ip4_route
 .text.ip4_input_accept
                0x60024208       0x54 ./lwip/src/core/ipv4/ip4.o
 .text.ip4_input
                0x6002425c      0x368 ./lwip/src/core/ipv4/ip4.o
                0x6002425c                ip4_input
 .text.ip4_output_if_src
                0x600245c4      0x24c ./lwip/src/core/ipv4/ip4.o
                0x600245c4                ip4_output_if_src
 .text.ip4addr_aton
                0x60024810      0x234 ./lwip/src/core/ipv4/ip4_addr.o
                0x60024810                ip4addr_aton
 .text.ip_reass_tmr
                0x60024a44       0x54 ./lwip/src/core/ipv4/ip4_frag.o
                0x60024a44                ip_reass_tmr
 .text.ip_reass_free_complete_datagram
                0x60024a98      0x140 ./lwip/src/core/ipv4/ip4_frag.o
 .text.ip_reass_remove_oldest_datagram
                0x60024bd8       0xc0 ./lwip/src/core/ipv4/ip4_frag.o
 .text.ip_reass_enqueue_new_datagram
                0x60024c98       0x84 ./lwip/src/core/ipv4/ip4_frag.o
 .text.ip_reass_dequeue_datagram
                0x60024d1c       0x48 ./lwip/src/core/ipv4/ip4_frag.o
 .text.ip_reass_chain_frag_into_datagram_and_validate
                0x60024d64      0x2bc ./lwip/src/core/ipv4/ip4_frag.o
 .text.ip4_reass
                0x60025020      0x398 ./lwip/src/core/ipv4/ip4_frag.o
                0x60025020                ip4_reass
 .text.ip_frag_free_pbuf_custom_ref
                0x600253b8       0x28 ./lwip/src/core/ipv4/ip4_frag.o
 .text.ipfrag_free_pbuf_custom
                0x600253e0       0x4c ./lwip/src/core/ipv4/ip4_frag.o
 .text.ip4_frag
                0x6002542c      0x2b8 ./lwip/src/core/ipv4/ip4_frag.o
                0x6002542c                ip4_frag
 .text.dns_setserver
                0x600256e4       0x44 ./lwip/src/core/dns.o
                0x600256e4                dns_setserver
 .text.dns_lookup
                0x60025728       0x90 ./lwip/src/core/dns.o
 .text.dns_send
                0x600257b8      0x1f4 ./lwip/src/core/dns.o
 .text.dns_alloc_random_port
                0x600259ac       0x80 ./lwip/src/core/dns.o
 .text.dns_alloc_pcb
                0x60025a2c       0xcc ./lwip/src/core/dns.o
 .text.dns_call_found
                0x60025af8      0x1b0 ./lwip/src/core/dns.o
 .text.dns_create_txid
                0x60025ca8       0x70 ./lwip/src/core/dns.o
 .text.dns_backupserver_available
                0x60025d18       0x40 ./lwip/src/core/dns.o
 .text.dns_check_entry
                0x60025d58      0x144 ./lwip/src/core/dns.o
 .text.dns_correct_response
                0x60025e9c       0x70 ./lwip/src/core/dns.o
 .text.dns_recv
                0x60025f0c      0x2e4 ./lwip/src/core/dns.o
 .text.dns_enqueue
                0x600261f0      0x28c ./lwip/src/core/dns.o
 .text.dns_gethostbyname_addrtype
                0x6002647c       0x88 ./lwip/src/core/dns.o
                0x6002647c                dns_gethostbyname_addrtype
 .text.plug_holes
                0x60026504      0x108 ./lwip/src/core/mem.o
 .text.mem_init
                0x6002660c       0x9c ./lwip/src/core/mem.o
                0x6002660c                mem_init
 .text.mem_free
                0x600266a8       0xf0 ./lwip/src/core/mem.o
                0x600266a8                mem_free
 .text.mem_trim
                0x60026798      0x248 ./lwip/src/core/mem.o
                0x60026798                mem_trim
 .text.mem_malloc
                0x600269e0      0x278 ./lwip/src/core/mem.o
                0x600269e0                mem_malloc
 .text.memp_init
                0x60026c58       0x58 ./lwip/src/core/memp.o
                0x60026c58                memp_init
 .text.do_memp_malloc_pool
                0x60026cb0       0x88 ./lwip/src/core/memp.o
 .text.memp_malloc
                0x60026d38       0x40 ./lwip/src/core/memp.o
                0x60026d38                memp_malloc
 .text.do_memp_free_pool
                0x60026d78       0x54 ./lwip/src/core/memp.o
 .text.memp_free
                0x60026dcc       0x48 ./lwip/src/core/memp.o
                0x60026dcc                memp_free
 .text.netif_add
                0x60026e14      0x17c ./lwip/src/core/netif.o
                0x60026e14                netif_add
 .text.netif_do_set_ipaddr
                0x60026f90       0x78 ./lwip/src/core/netif.o
 .text.netif_set_addr
                0x60027008       0x8c ./lwip/src/core/netif.o
                0x60027008                netif_set_addr
 .text.netif_set_default
                0x60027094       0x14 ./lwip/src/core/netif.o
                0x60027094                netif_set_default
 .text.netif_set_up
                0x600270a8       0x48 ./lwip/src/core/netif.o
                0x600270a8                netif_set_up
 .text.netif_issue_reports
                0x600270f0       0x74 ./lwip/src/core/netif.o
 .text.netif_get_by_index
                0x60027164       0x48 ./lwip/src/core/netif.o
                0x60027164                netif_get_by_index
 .text.netif_find
                0x600271ac       0x74 ./lwip/src/core/netif.o
                0x600271ac                netif_find
 .text.pbuf_alloc
                0x60027220      0x200 ./lwip/src/core/pbuf.o
                0x60027220                pbuf_alloc
 .text.pbuf_alloc_reference
                0x60027420       0x64 ./lwip/src/core/pbuf.o
                0x60027420                pbuf_alloc_reference
 .text.pbuf_realloc
                0x60027484      0x108 ./lwip/src/core/pbuf.o
                0x60027484                pbuf_realloc
 .text.pbuf_add_header_impl
                0x6002758c       0xd0 ./lwip/src/core/pbuf.o
 .text.pbuf_remove_header
                0x6002765c       0x90 ./lwip/src/core/pbuf.o
                0x6002765c                pbuf_remove_header
 .text.pbuf_free
                0x600276ec      0x104 ./lwip/src/core/pbuf.o
                0x600276ec                pbuf_free
 .text.pbuf_ref
                0x600277f0       0x40 ./lwip/src/core/pbuf.o
                0x600277f0                pbuf_ref
 .text.pbuf_cat
                0x60027830       0x88 ./lwip/src/core/pbuf.o
                0x60027830                pbuf_cat
 .text.pbuf_copy
                0x600278b8      0x168 ./lwip/src/core/pbuf.o
                0x600278b8                pbuf_copy
 .text.pbuf_copy_partial
                0x60027a20      0x104 ./lwip/src/core/pbuf.o
                0x60027a20                pbuf_copy_partial
 .text.pbuf_take
                0x60027b24       0xfc ./lwip/src/core/pbuf.o
                0x60027b24                pbuf_take
 .text.pbuf_take_at
                0x60027c20       0xec ./lwip/src/core/pbuf.o
                0x60027c20                pbuf_take_at
 .text.pbuf_clone
                0x60027d0c       0x5c ./lwip/src/core/pbuf.o
                0x60027d0c                pbuf_clone
 .text.stats_init
                0x60027d68       0x14 ./lwip/src/core/stats.o
                0x60027d68                stats_init
 .text.tcp_init
                0x60027d7c       0x24 ./lwip/src/core/tcp.o
                0x60027d7c                tcp_init
 .text.tcp_free
                0x60027da0       0x28 ./lwip/src/core/tcp.o
                0x60027da0                tcp_free
 .text.tcp_free_listen
                0x60027dc8       0x28 ./lwip/src/core/tcp.o
 .text.tcp_tmr  0x60027df0       0x2c ./lwip/src/core/tcp.o
                0x60027df0                tcp_tmr
 .text.tcp_remove_listener
                0x60027e1c       0x44 ./lwip/src/core/tcp.o
 .text.tcp_listen_closed
                0x60027e60       0x58 ./lwip/src/core/tcp.o
 .text.tcp_backlog_accepted
                0x60027eb8       0x60 ./lwip/src/core/tcp.o
                0x60027eb8                tcp_backlog_accepted
 .text.tcp_close_shutdown
                0x60027f18      0x1a8 ./lwip/src/core/tcp.o
 .text.tcp_close_shutdown_fin
                0x600280c0       0xc8 ./lwip/src/core/tcp.o
 .text.tcp_close
                0x60028188       0x44 ./lwip/src/core/tcp.o
                0x60028188                tcp_close
 .text.tcp_shutdown
                0x600281cc       0xa4 ./lwip/src/core/tcp.o
                0x600281cc                tcp_shutdown
 .text.tcp_abandon
                0x60028270      0x15c ./lwip/src/core/tcp.o
                0x60028270                tcp_abandon
 .text.tcp_update_rcv_ann_wnd
                0x600283cc       0x98 ./lwip/src/core/tcp.o
                0x600283cc                tcp_update_rcv_ann_wnd
 .text.tcp_recved
                0x60028464       0x94 ./lwip/src/core/tcp.o
                0x60028464                tcp_recved
 .text.tcp_new_port
                0x600284f8       0x94 ./lwip/src/core/tcp.o
 .text.tcp_connect
                0x6002858c      0x218 ./lwip/src/core/tcp.o
                0x6002858c                tcp_connect
 .text.tcp_slowtmr
                0x600287a4      0x5f0 ./lwip/src/core/tcp.o
                0x600287a4                tcp_slowtmr
 .text.tcp_fasttmr
                0x60028d94       0xc4 ./lwip/src/core/tcp.o
                0x60028d94                tcp_fasttmr
 .text.tcp_process_refused_data
                0x60028e58       0xf4 ./lwip/src/core/tcp.o
                0x60028e58                tcp_process_refused_data
 .text.tcp_recv_null
                0x60028f4c       0x5c ./lwip/src/core/tcp.o
                0x60028f4c                tcp_recv_null
 .text.tcp_kill_prio
                0x60028fa8       0xac ./lwip/src/core/tcp.o
 .text.tcp_kill_state
                0x60029054       0x8c ./lwip/src/core/tcp.o
 .text.tcp_kill_timewait
                0x600290e0       0x5c ./lwip/src/core/tcp.o
 .text.tcp_handle_closepend
                0x6002913c       0x48 ./lwip/src/core/tcp.o
 .text.tcp_alloc
                0x60029184      0x160 ./lwip/src/core/tcp.o
                0x60029184                tcp_alloc
 .text.tcp_recv
                0x600292e4       0x30 ./lwip/src/core/tcp.o
                0x600292e4                tcp_recv
 .text.tcp_sent
                0x60029314       0x30 ./lwip/src/core/tcp.o
                0x60029314                tcp_sent
 .text.tcp_err  0x60029344       0x30 ./lwip/src/core/tcp.o
                0x60029344                tcp_err
 .text.tcp_poll
                0x60029374       0x48 ./lwip/src/core/tcp.o
                0x60029374                tcp_poll
 .text.tcp_pcb_purge
                0x600293bc       0x88 ./lwip/src/core/tcp.o
                0x600293bc                tcp_pcb_purge
 .text.tcp_pcb_remove
                0x60029444       0xe4 ./lwip/src/core/tcp.o
                0x60029444                tcp_pcb_remove
 .text.tcp_next_iss
                0x60029528       0x38 ./lwip/src/core/tcp.o
                0x60029528                tcp_next_iss
 .text.tcp_eff_send_mss_netif
                0x60029560       0x80 ./lwip/src/core/tcp.o
                0x60029560                tcp_eff_send_mss_netif
 .text.tcp_netif_ip_addr_changed_pcblist
                0x600295e0       0x50 ./lwip/src/core/tcp.o
 .text.tcp_netif_ip_addr_changed
                0x60029630       0x78 ./lwip/src/core/tcp.o
                0x60029630                tcp_netif_ip_addr_changed
 .text.tcp_input
                0x600296a8      0x8bc ./lwip/src/core/tcp_in.o
                0x600296a8                tcp_input
 .text.tcp_input_delayed_close
                0x60029f64       0x70 ./lwip/src/core/tcp_in.o
 .text.tcp_listen_input
                0x60029fd4      0x230 ./lwip/src/core/tcp_in.o
 .text.tcp_timewait_input
                0x6002a204       0xe4 ./lwip/src/core/tcp_in.o
 .text.tcp_process
                0x6002a2e8      0x7c0 ./lwip/src/core/tcp_in.o
 .text.tcp_free_acked_segments
                0x6002aaa8       0xe4 ./lwip/src/core/tcp_in.o
 .text.tcp_receive
                0x6002ab8c      0x8ac ./lwip/src/core/tcp_in.o
 .text.tcp_get_next_optbyte
                0x6002b438       0x70 ./lwip/src/core/tcp_in.o
 .text.tcp_parseopt
                0x6002b4a8       0xec ./lwip/src/core/tcp_in.o
 .text.tcp_trigger_input_pcb_close
                0x6002b594       0x18 ./lwip/src/core/tcp_in.o
                0x6002b594                tcp_trigger_input_pcb_close
 .text.tcp_create_segment
                0x6002b5ac      0x144 ./lwip/src/core/tcp_out.o
 .text.tcp_pbuf_prealloc
                0x6002b6f0       0xf0 ./lwip/src/core/tcp_out.o
 .text.tcp_write_checks
                0x6002b7e0       0xec ./lwip/src/core/tcp_out.o
 .text.tcp_write
                0x6002b8cc      0x764 ./lwip/src/core/tcp_out.o
                0x6002b8cc                tcp_write
 .text.tcp_split_unsent_seg
                0x6002c030      0x2bc ./lwip/src/core/tcp_out.o
                0x6002c030                tcp_split_unsent_seg
 .text.tcp_send_fin
                0x6002c2ec       0x8c ./lwip/src/core/tcp_out.o
                0x6002c2ec                tcp_send_fin
 .text.tcp_enqueue_flags
                0x6002c378      0x1e4 ./lwip/src/core/tcp_out.o
                0x6002c378                tcp_enqueue_flags
 .text.tcp_output
                0x6002c55c      0x3d4 ./lwip/src/core/tcp_out.o
                0x6002c55c                tcp_output
 .text.tcp_output_segment_busy
                0x6002c930       0x30 ./lwip/src/core/tcp_out.o
 .text.tcp_output_segment
                0x6002c960      0x1d8 ./lwip/src/core/tcp_out.o
 .text.tcp_rexmit_rto_prepare
                0x6002cb38       0xe0 ./lwip/src/core/tcp_out.o
                0x6002cb38                tcp_rexmit_rto_prepare
 .text.tcp_rexmit_rto_commit
                0x6002cc18       0x40 ./lwip/src/core/tcp_out.o
                0x6002cc18                tcp_rexmit_rto_commit
 .text.tcp_rexmit_rto
                0x6002cc58       0x30 ./lwip/src/core/tcp_out.o
                0x6002cc58                tcp_rexmit_rto
 .text.tcp_rexmit
                0x6002cc88       0xc4 ./lwip/src/core/tcp_out.o
                0x6002cc88                tcp_rexmit
 .text.tcp_rexmit_fast
                0x6002cd4c       0xc8 ./lwip/src/core/tcp_out.o
                0x6002cd4c                tcp_rexmit_fast
 .text.tcp_output_alloc_header_common
                0x6002ce14       0xe8 ./lwip/src/core/tcp_out.o
 .text.tcp_output_alloc_header
                0x6002cefc       0x70 ./lwip/src/core/tcp_out.o
 .text.tcp_output_fill_options
                0x6002cf6c       0x70 ./lwip/src/core/tcp_out.o
 .text.tcp_output_control_segment
                0x6002cfdc       0xc4 ./lwip/src/core/tcp_out.o
 .text.tcp_rst  0x6002d0a0       0x94 ./lwip/src/core/tcp_out.o
                0x6002d0a0                tcp_rst
 .text.tcp_send_empty_ack
                0x6002d134       0xc0 ./lwip/src/core/tcp_out.o
                0x6002d134                tcp_send_empty_ack
 .text.tcp_keepalive
                0x6002d1f4       0x74 ./lwip/src/core/tcp_out.o
                0x6002d1f4                tcp_keepalive
 .text.tcp_zero_window_probe
                0x6002d268      0x14c ./lwip/src/core/tcp_out.o
                0x6002d268                tcp_zero_window_probe
 .text.tcpip_tcp_timer
                0x6002d3b4       0x44 ./lwip/src/core/timeouts.o
 .text.tcp_timer_needed
                0x6002d3f8       0x40 ./lwip/src/core/timeouts.o
                0x6002d3f8                tcp_timer_needed
 .text.sys_timeout_abs
                0x6002d438       0xcc ./lwip/src/core/timeouts.o
 .text.lwip_cyclic_timer
                0x6002d504       0x64 ./lwip/src/core/timeouts.o
 .text.sys_timeouts_init
                0x6002d568       0x40 ./lwip/src/core/timeouts.o
                0x6002d568                sys_timeouts_init
 .text.sys_timeout
                0x6002d5a8       0x3c ./lwip/src/core/timeouts.o
                0x6002d5a8                sys_timeout
 .text.sys_check_timeouts
                0x6002d5e4       0x70 ./lwip/src/core/timeouts.o
                0x6002d5e4                sys_check_timeouts
 .text.sys_timeouts_sleeptime
                0x6002d654       0x5c ./lwip/src/core/timeouts.o
                0x6002d654                sys_timeouts_sleeptime
 .text.udp_init
                0x6002d6b0       0x24 ./lwip/src/core/udp.o
                0x6002d6b0                udp_init
 .text.udp_new_port
                0x6002d6d4       0x70 ./lwip/src/core/udp.o
 .text.udp_input_local_match
                0x6002d744       0xb4 ./lwip/src/core/udp.o
 .text.udp_input
                0x6002d7f8      0x2e8 ./lwip/src/core/udp.o
                0x6002d7f8                udp_input
 .text.udp_send
                0x6002dae0       0x50 ./lwip/src/core/udp.o
                0x6002dae0                udp_send
 .text.udp_sendto
                0x6002db30       0xac ./lwip/src/core/udp.o
                0x6002db30                udp_sendto
 .text.udp_sendto_if
                0x6002dbdc       0xc4 ./lwip/src/core/udp.o
                0x6002dbdc                udp_sendto_if
 .text.udp_sendto_if_src
                0x6002dca0      0x1f0 ./lwip/src/core/udp.o
                0x6002dca0                udp_sendto_if_src
 .text.udp_bind
                0x6002de90      0x110 ./lwip/src/core/udp.o
                0x6002de90                udp_bind
 .text.udp_connect
                0x6002dfa0       0xc8 ./lwip/src/core/udp.o
                0x6002dfa0                udp_connect
 .text.udp_disconnect
                0x6002e068       0x40 ./lwip/src/core/udp.o
                0x6002e068                udp_disconnect
 .text.udp_recv
                0x6002e0a8       0x30 ./lwip/src/core/udp.o
                0x6002e0a8                udp_recv
 .text.udp_remove
                0x6002e0d8       0x70 ./lwip/src/core/udp.o
                0x6002e0d8                udp_remove
 .text.udp_netif_ip_addr_changed
                0x6002e148       0x54 ./lwip/src/core/udp.o
                0x6002e148                udp_netif_ip_addr_changed
 .text.netconn_new_with_proto_and_callback
                0x6002e19c       0xc0 ./lwip/src/api/api_lib.o
                0x6002e19c                netconn_new_with_proto_and_callback
 .text.netconn_prepare_delete
                0x6002e25c       0x48 ./lwip/src/api/api_lib.o
                0x6002e25c                netconn_prepare_delete
 .text.netconn_getaddr
                0x6002e2a4       0x84 ./lwip/src/api/api_lib.o
                0x6002e2a4                netconn_getaddr
 .text.netconn_connect
                0x6002e328       0x64 ./lwip/src/api/api_lib.o
                0x6002e328                netconn_connect
 .text.netconn_disconnect
                0x6002e38c       0x40 ./lwip/src/api/api_lib.o
                0x6002e38c                netconn_disconnect
 .text.netconn_recv_data
                0x6002e3cc      0x188 ./lwip/src/api/api_lib.o
 .text.netconn_tcp_recvd_msg
                0x6002e554       0x50 ./lwip/src/api/api_lib.o
 .text.netconn_tcp_recvd
                0x6002e5a4       0x48 ./lwip/src/api/api_lib.o
                0x6002e5a4                netconn_tcp_recvd
 .text.netconn_recv_tcp_pbuf_flags
                0x6002e5ec       0x48 ./lwip/src/api/api_lib.o
                0x6002e5ec                netconn_recv_tcp_pbuf_flags
 .text.netconn_recv_udp_raw_netbuf_flags
                0x6002e634       0x48 ./lwip/src/api/api_lib.o
                0x6002e634                netconn_recv_udp_raw_netbuf_flags
 .text.netconn_send
                0x6002e67c       0x48 ./lwip/src/api/api_lib.o
                0x6002e67c                netconn_send
 .text.netconn_write_vectors_partly
                0x6002e6c4      0x15c ./lwip/src/api/api_lib.o
                0x6002e6c4                netconn_write_vectors_partly
 .text.netconn_close_shutdown
                0x6002e820       0x54 ./lwip/src/api/api_lib.o
 .text.netconn_gethostbyname
                0x6002e874       0x9c ./lwip/src/api/api_lib.o
                0x6002e874                netconn_gethostbyname
 .text.lwip_netconn_err_to_msg
                0x6002e910       0x58 ./lwip/src/api/api_msg.o
 .text.lwip_netconn_is_err_msg
                0x6002e968       0x64 ./lwip/src/api/api_msg.o
                0x6002e968                lwip_netconn_is_err_msg
 .text.recv_udp
                0x6002e9cc       0xdc ./lwip/src/api/api_msg.o
 .text.recv_tcp
                0x6002eaa8       0xe4 ./lwip/src/api/api_msg.o
 .text.poll_tcp
                0x6002eb8c       0xc0 ./lwip/src/api/api_msg.o
 .text.sent_tcp
                0x6002ec4c       0xa0 ./lwip/src/api/api_msg.o
 .text.err_tcp  0x6002ecec      0x188 ./lwip/src/api/api_msg.o
 .text.setup_tcp
                0x6002ee74       0x50 ./lwip/src/api/api_msg.o
 .text.pcb_new  0x6002eec4       0xc4 ./lwip/src/api/api_msg.o
 .text.netconn_alloc
                0x6002ef88       0xd8 ./lwip/src/api/api_msg.o
                0x6002ef88                netconn_alloc
 .text.netconn_free
                0x6002f060       0x5c ./lwip/src/api/api_msg.o
                0x6002f060                netconn_free
 .text.lwip_netconn_do_close_internal
                0x6002f0bc      0x2d0 ./lwip/src/api/api_msg.o
 .text.lwip_netconn_do_delconn
                0x6002f38c      0x19c ./lwip/src/api/api_msg.o
                0x6002f38c                lwip_netconn_do_delconn
 .text.lwip_netconn_do_connected
                0x6002f528      0x10c ./lwip/src/api/api_msg.o
 .text.lwip_netconn_do_connect
                0x6002f634      0x17c ./lwip/src/api/api_msg.o
                0x6002f634                lwip_netconn_do_connect
 .text.lwip_netconn_do_writemore
                0x6002f7b0      0x3c4 ./lwip/src/api/api_msg.o
 .text.lwip_netconn_do_write
                0x6002fb74       0xf8 ./lwip/src/api/api_msg.o
                0x6002fb74                lwip_netconn_do_write
 .text.lwip_netconn_do_getaddr
                0x6002fc6c       0xf8 ./lwip/src/api/api_msg.o
                0x6002fc6c                lwip_netconn_do_getaddr
 .text.lwip_netconn_do_close
                0x6002fd64       0xfc ./lwip/src/api/api_msg.o
                0x6002fd64                lwip_netconn_do_close
 .text.lwip_netconn_do_gethostbyname
                0x6002fe60       0x7c ./lwip/src/api/api_msg.o
                0x6002fe60                lwip_netconn_do_gethostbyname
 .text.err_to_errno
                0x6002fedc       0x34 ./lwip/src/api/err.o
                0x6002fedc                err_to_errno
 .text.netbuf_free
                0x6002ff10       0x40 ./lwip/src/api/netbuf.o
                0x6002ff10                netbuf_free
 .text.netbuf_ref
                0x6002ff50       0x88 ./lwip/src/api/netbuf.o
                0x6002ff50                netbuf_ref
 .text.tryget_socket_unconn_nouse
                0x6002ffd8       0x2c ./lwip/src/api/sockets.o
 .text.get_socket
                0x60030004       0x2c ./lwip/src/api/sockets.o
 .text.alloc_socket
                0x60030030       0xc8 ./lwip/src/api/sockets.o
 .text.lwip_close
                0x600300f8       0x9c ./lwip/src/api/sockets.o
                0x600300f8                lwip_close
 .text.lwip_connect
                0x60030194       0xf0 ./lwip/src/api/sockets.o
                0x60030194                lwip_connect
 .text.lwip_recv_tcp
                0x60030284      0x200 ./lwip/src/api/sockets.o
 .text.lwip_sock_make_addr
                0x60030484       0xb4 ./lwip/src/api/sockets.o
 .text.lwip_recvfrom_udp_raw
                0x60030538      0x1b0 ./lwip/src/api/sockets.o
 .text.lwip_recvfrom
                0x600306e8      0x128 ./lwip/src/api/sockets.o
                0x600306e8                lwip_recvfrom
 .text.lwip_send
                0x60030810       0xc0 ./lwip/src/api/sockets.o
                0x60030810                lwip_send
 .text.lwip_sendto
                0x600308d0      0x158 ./lwip/src/api/sockets.o
                0x600308d0                lwip_sendto
 .text.lwip_socket
                0x60030a28       0xb0 ./lwip/src/api/sockets.o
                0x60030a28                lwip_socket
 .text.lwip_link_select_cb
                0x60030ad8       0x40 ./lwip/src/api/sockets.o
 .text.lwip_unlink_select_cb
                0x60030b18       0x78 ./lwip/src/api/sockets.o
 .text.lwip_selscan
                0x60030b90      0x314 ./lwip/src/api/sockets.o
 .text.lwip_select
                0x60030ea4      0x3e0 ./lwip/src/api/sockets.o
                0x60030ea4                lwip_select
 .text.event_callback
                0x60031284      0x16c ./lwip/src/api/sockets.o
 .text.select_check_waiters
                0x600313f0      0x140 ./lwip/src/api/sockets.o
 .text.lwip_sockopt_to_ipopt
                0x60031530       0x38 ./lwip/src/api/sockets.o
 .text.lwip_setsockopt
                0x60031568       0x8c ./lwip/src/api/sockets.o
                0x60031568                lwip_setsockopt
 .text.lwip_setsockopt_impl
                0x600315f4      0x364 ./lwip/src/api/sockets.o
 .text.tcpip_timeouts_mbox_fetch
                0x60031958       0x6c ./lwip/src/api/tcpip.o
 .text.tcpip_thread
                0x600319c4       0x58 ./lwip/src/api/tcpip.o
 .text.tcpip_thread_handle_msg
                0x60031a1c       0x78 ./lwip/src/api/tcpip.o
 .text.tcpip_inpkt
                0x60031a94       0x74 ./lwip/src/api/tcpip.o
                0x60031a94                tcpip_inpkt
 .text.tcpip_input
                0x60031b08       0x40 ./lwip/src/api/tcpip.o
                0x60031b08                tcpip_input
 .text.tcpip_send_msg_wait_sem
                0x60031b48       0x2c ./lwip/src/api/tcpip.o
                0x60031b48                tcpip_send_msg_wait_sem
 .text.tcpip_init
                0x60031b74       0x78 ./lwip/src/api/tcpip.o
                0x60031b74                tcpip_init
 .text.sys_assert
                0x60031bec       0x1c ./lwip/port/sys_arch.o
                0x60031bec                sys_assert
 .text.lwip_rand
                0x60031c08       0x2c ./lwip/port/sys_arch.o
                0x60031c08                lwip_rand
 .text.sys_mbox_new
                0x60031c34       0x6c ./lwip/port/sys_arch.o
                0x60031c34                sys_mbox_new
 .text.sys_mbox_free
                0x60031ca0       0x50 ./lwip/port/sys_arch.o
                0x60031ca0                sys_mbox_free
 .text.sys_mbox_trypost
                0x60031cf0       0xa0 ./lwip/port/sys_arch.o
                0x60031cf0                sys_mbox_trypost
 .text.sys_sem_new
                0x60031d90       0xc8 ./lwip/port/sys_arch.o
                0x60031d90                sys_sem_new
 .text.sys_mutex_new
                0x60031e58       0x74 ./lwip/port/sys_arch.o
                0x60031e58                sys_mutex_new
 .text.sys_sem_free
                0x60031ecc       0x2c ./lwip/port/sys_arch.o
                0x60031ecc                sys_sem_free
 .text.CLOCK_GetOscFreq
                0x60031ef8       0x28 ./drivers/fsl_clock.o
 .text.CLOCK_GetPeriphClkFreq
                0x60031f20       0xdc ./drivers/fsl_clock.o
 .text.CLOCK_GetAhbFreq
                0x60031ffc       0x20 ./drivers/fsl_clock.o
                0x60031ffc                CLOCK_GetAhbFreq
 .text.CLOCK_GetSemcFreq
                0x6003201c       0x58 ./drivers/fsl_clock.o
                0x6003201c                CLOCK_GetSemcFreq
 .text.CLOCK_GetIpgFreq
                0x60032074       0x20 ./drivers/fsl_clock.o
                0x60032074                CLOCK_GetIpgFreq
 .text.CLOCK_GetPerClkFreq
                0x60032094       0x40 ./drivers/fsl_clock.o
                0x60032094                CLOCK_GetPerClkFreq
 .text.CLOCK_GetFreq
                0x600320d4      0x188 ./drivers/fsl_clock.o
                0x600320d4                CLOCK_GetFreq
 .text.CLOCK_EnableUsbhs0Clock
                0x6003225c       0x74 ./drivers/fsl_clock.o
                0x6003225c                CLOCK_EnableUsbhs0Clock
 .text.CLOCK_EnableUsbhs0PhyPllClock
                0x600322d0       0x70 ./drivers/fsl_clock.o
                0x600322d0                CLOCK_EnableUsbhs0PhyPllClock
 .text.CLOCK_InitArmPll
                0x60032340       0x5c ./drivers/fsl_clock.o
                0x60032340                CLOCK_InitArmPll
 .text.CLOCK_InitSysPll
                0x6003239c       0x94 ./drivers/fsl_clock.o
                0x6003239c                CLOCK_InitSysPll
 .text.CLOCK_InitUsb1Pll
                0x60032430       0x60 ./drivers/fsl_clock.o
                0x60032430                CLOCK_InitUsb1Pll
 .text.CLOCK_GetPllFreq
                0x60032490      0x318 ./drivers/fsl_clock.o
                0x60032490                CLOCK_GetPllFreq
 .text.CLOCK_InitSysPfd
                0x600327a8       0x60 ./drivers/fsl_clock.o
                0x600327a8                CLOCK_InitSysPfd
 .text.CLOCK_GetSysPfdFreq
                0x60032808       0xac ./drivers/fsl_clock.o
                0x60032808                CLOCK_GetSysPfdFreq
 .text.CLOCK_GetUsb1PfdFreq
                0x600328b4       0xac ./drivers/fsl_clock.o
                0x600328b4                CLOCK_GetUsb1PfdFreq
 .text.CLOCK_ControlGate
                0x60032960       0x6c ./drivers/fsl_dcp.o
 .text.DCP_GetDefaultConfig
                0x600329cc       0x38 ./drivers/fsl_dcp.o
                0x600329cc                DCP_GetDefaultConfig
 .text.DCP_Init
                0x60032a04       0x78 ./drivers/fsl_dcp.o
                0x60032a04                DCP_Init
 .text.dcp_hash_save_running_hash
                0x60032a7c       0x78 ./drivers/fsl_dcp.o
 .text.dcp_hash_restore_running_hash
                0x60032af4       0x78 ./drivers/fsl_dcp.o
 .text.DCP_HASH_Finish
                0x60032b6c      0x104 ./drivers/fsl_dcp.o
                0x60032b6c                DCP_HASH_Finish
 .text.ENET_GetInstance
                0x60032c70       0x48 ./drivers/fsl_enet.o
                0x60032c70                ENET_GetInstance
 .text.ENET_CommonFrame0IRQHandler
                0x60032cb8       0xa4 ./drivers/fsl_enet.o
                0x60032cb8                ENET_CommonFrame0IRQHandler
 .text.ENET_1588_Timer_IRQHandler
                0x60032d5c       0x20 ./drivers/fsl_enet.o
                0x60032d5c                ENET_1588_Timer_IRQHandler
 .text.ENET_DriverIRQHandler
                0x60032d7c       0x10 ./drivers/fsl_enet.o
                0x60032d7c                ENET_DriverIRQHandler
 .text.ENET2_DriverIRQHandler
                0x60032d8c       0x10 ./drivers/fsl_enet.o
                0x60032d8c                ENET2_DriverIRQHandler
 .text.FLEXRAM_SetAllocateRamSrc
                0x60032d9c       0x34 ./drivers/fsl_flexram.o
 .text.FLEXRAM_SetTCMSize
                0x60032dd0       0xd8 ./drivers/fsl_flexram.o
                0x60032dd0                FLEXRAM_SetTCMSize
 .text.FLEXRAM_AllocateRam
                0x60032ea8       0xf4 ./drivers/fsl_flexram.o
                0x60032ea8                FLEXRAM_AllocateRam
 .text.__NVIC_EnableIRQ
                0x60032f9c       0x34 ./drivers/fsl_flexspi.o
 .text.CLOCK_ControlGate
                0x60032fd0       0x6c ./drivers/fsl_flexspi.o
 .text.CLOCK_ControlGate
                0x6003303c       0x6c ./drivers/fsl_gpio.o
 .text.GPIO_GetInstance
                0x600330a8       0x48 ./drivers/fsl_gpio.o
 .text.GPIO_PinInit
                0x600330f0       0x8c ./drivers/fsl_gpio.o
                0x600330f0                GPIO_PinInit
 .text.GPIO_PinWrite
                0x6003317c       0x58 ./drivers/fsl_gpio.o
                0x6003317c                GPIO_PinWrite
 .text.GPIO_PinSetInterruptConfig
                0x600331d4       0xf8 ./drivers/fsl_gpio.o
                0x600331d4                GPIO_PinSetInterruptConfig
 .text.LPI2C_CommonIRQHandler
                0x600332cc       0x70 ./drivers/fsl_lpi2c.o
 .text.LPI2C1_DriverIRQHandler
                0x6003333c       0x14 ./drivers/fsl_lpi2c.o
                0x6003333c                LPI2C1_DriverIRQHandler
 .text.LPI2C2_DriverIRQHandler
                0x60033350       0x14 ./drivers/fsl_lpi2c.o
                0x60033350                LPI2C2_DriverIRQHandler
 .text.LPI2C3_DriverIRQHandler
                0x60033364       0x14 ./drivers/fsl_lpi2c.o
                0x60033364                LPI2C3_DriverIRQHandler
 .text.LPI2C4_DriverIRQHandler
                0x60033378       0x14 ./drivers/fsl_lpi2c.o
                0x60033378                LPI2C4_DriverIRQHandler
 .text.CLOCK_ControlGate
                0x6003338c       0x6c ./drivers/fsl_lpuart.o
 .text.LPUART_GetInstance
                0x600333f8       0x48 ./drivers/fsl_lpuart.o
                0x600333f8                LPUART_GetInstance
 .text.LPUART_Init
                0x60033440      0x318 ./drivers/fsl_lpuart.o
                0x60033440                LPUART_Init
 .text.LPUART_GetDefaultConfig
                0x60033758       0x84 ./drivers/fsl_lpuart.o
                0x60033758                LPUART_GetDefaultConfig
 .text.LPUART_GetEnabledInterrupts
                0x600337dc       0x3c ./drivers/fsl_lpuart.o
                0x600337dc                LPUART_GetEnabledInterrupts
 .text.LPUART_ClearStatusFlags
                0x60033818       0xa0 ./drivers/fsl_lpuart.o
                0x60033818                LPUART_ClearStatusFlags
 .text.CLOCK_ControlGate
                0x600338b8       0x6c ./drivers/fsl_pwm.o
 .text.PWM_GetInstance
                0x60033924       0x48 ./drivers/fsl_pwm.o
 .text.PWM_Init
                0x6003396c      0x2fc ./drivers/fsl_pwm.o
                0x6003396c                PWM_Init
 .text.PWM_GetDefaultConfig
                0x60033c68       0x70 ./drivers/fsl_pwm.o
                0x60033c68                PWM_GetDefaultConfig
 .text.PWM_SetupPwm
                0x60033cd8      0x5a8 ./drivers/fsl_pwm.o
                0x60033cd8                PWM_SetupPwm
 .text.PWM_UpdatePwmDutycycle
                0x60034280      0x3a0 ./drivers/fsl_pwm.o
                0x60034280                PWM_UpdatePwmDutycycle
 .text.CLOCK_ControlGate
                0x60034620       0x6c ./drivers/fsl_trng.o
 .text.trng_GetInstance
                0x6003468c       0x44 ./drivers/fsl_trng.o
 .text.trng_SetStatisticalCheckLimit
                0x600346d0      0x328 ./drivers/fsl_trng.o
 .text.trng_ApplyUserConfig
                0x600349f8      0x194 ./drivers/fsl_trng.o
 .text.__NVIC_EnableIRQ
                0x60034b8c       0x34 ./drivers/fsl_usdhc_uvoice.o
 .text.__NVIC_DisableIRQ
                0x60034bc0       0x40 ./drivers/fsl_usdhc_uvoice.o
 .text.CLOCK_ControlGate
                0x60034c00       0x6c ./drivers/fsl_usdhc_uvoice.o
 .text.USDHC_GetInstance
                0x60034c6c       0x54 ./drivers/fsl_usdhc_uvoice.o
 .text.USDHC_SetTransferInterrupt
                0x60034cc0       0x60 ./drivers/fsl_usdhc_uvoice.o
 .text.USDHC_SendCommand
                0x60034d20       0xf8 ./drivers/fsl_usdhc_uvoice.o
                0x60034d20                USDHC_SendCommand
 .text.USDHC_Init
                0x60034e18      0x12c ./drivers/fsl_usdhc_uvoice.o
                0x60034e18                USDHC_Init
 .text.USDHC_GetCapability
                0x60034f44       0x8c ./drivers/fsl_usdhc_uvoice.o
                0x60034f44                USDHC_GetCapability
 .text.USDHC_SetSdClock
                0x60034fd0      0x1a4 ./drivers/fsl_usdhc_uvoice.o
                0x60034fd0                USDHC_SetSdClock
 .text.USDHC_SetADMA1Descriptor
                0x60035174      0x180 ./drivers/fsl_usdhc_uvoice.o
                0x60035174                USDHC_SetADMA1Descriptor
 .text.USDHC_SetADMA2Descriptor
                0x600352f4      0x1e0 ./drivers/fsl_usdhc_uvoice.o
                0x600352f4                USDHC_SetADMA2Descriptor
 .text.USDHC_SetInternalDmaConfig
                0x600354d4       0xb4 ./drivers/fsl_usdhc_uvoice.o
                0x600354d4                USDHC_SetInternalDmaConfig
 .text.USDHC_SetAdmaTableConfig
                0x60035588       0xfc ./drivers/fsl_usdhc_uvoice.o
                0x60035588                USDHC_SetAdmaTableConfig
 .text.USDHC_TransferNonBlocking
                0x60035684      0x10c ./drivers/fsl_usdhc_uvoice.o
                0x60035684                USDHC_TransferNonBlocking
 .text.USDHC_TransferHandleCommand
                0x60035790       0xa0 ./drivers/fsl_usdhc_uvoice.o
 .text.USDHC_TransferHandleData
                0x60035830      0x10c ./drivers/fsl_usdhc_uvoice.o
 .text.USDHC_TransferHandleReTuning
                0x6003593c       0x3c ./drivers/fsl_usdhc_uvoice.o
 .text.USDHC_TransferCreateHandle
                0x60035978       0xc0 ./drivers/fsl_usdhc_uvoice.o
                0x60035978                USDHC_TransferCreateHandle
 .text.USDHC_TransferHandleIRQ
                0x60035a38       0xc8 ./drivers/fsl_usdhc_uvoice.o
                0x60035a38                USDHC_TransferHandleIRQ
 .text.USDHC1_DriverIRQHandler
                0x60035b00       0x20 ./drivers/fsl_usdhc_uvoice.o
                0x60035b00                USDHC1_DriverIRQHandler
 .text.USDHC2_DriverIRQHandler
                0x60035b20       0x20 ./drivers/fsl_usdhc_uvoice.o
                0x60035b20                USDHC2_DriverIRQHandler
 .text.CLOCK_ControlGate
                0x60035b40       0x6c ./drivers/fsl_xbara.o
 .text.XBARA_GetInstance
                0x60035bac       0x44 ./drivers/fsl_xbara.o
 .text.RGB_LED_SetColor
                0x60035bf0      0x158 ./drivers/sln_RT10xx_RGB_LED_driver.o
                0x60035bf0                RGB_LED_SetColor
 .text.RGB_LED_SetBrightnessColor
                0x60035d48      0x210 ./drivers/sln_RT10xx_RGB_LED_driver.o
                0x60035d48                RGB_LED_SetBrightnessColor
 .text.RapidBlinkLED
                0x60035f58       0x94 ./drivers/sln_RT10xx_RGB_LED_driver.o
                0x60035f58                RapidBlinkLED
 .text.SCB_EnableICache
                0x60035fec       0x34 ./device/system_MIMXRT106A.o
 .text.SCB_EnableDCache
                0x60036020       0x78 ./device/system_MIMXRT106A.o
 .text.SystemInit
                0x60036098       0xf4 ./device/system_MIMXRT106A.o
                0x60036098                SystemInit
 .text.__NVIC_EnableIRQ
                0x6003618c       0x34 ./component/uart/lpuart_adapter.o
 .text.HAL_UartInterruptHandle
                0x600361c0      0x174 ./component/uart/lpuart_adapter.o
 .text.HAL_UartInit
                0x60036334      0x134 ./component/uart/lpuart_adapter.o
                0x60036334                HAL_UartInit
 .text.HAL_UartInstallCallback
                0x60036468       0x34 ./component/uart/lpuart_adapter.o
                0x60036468                HAL_UartInstallCallback
 .text.HAL_UartReceiveNonBlocking
                0x6003649c       0x84 ./component/uart/lpuart_adapter.o
                0x6003649c                HAL_UartReceiveNonBlocking
 .text.HAL_UartSendNonBlocking
                0x60036520       0x84 ./component/uart/lpuart_adapter.o
                0x60036520                HAL_UartSendNonBlocking
 .text.HAL_UartAbortSend
                0x600365a4       0x50 ./component/uart/lpuart_adapter.o
                0x600365a4                HAL_UartAbortSend
 .text.HAL_UartIsrFunction
                0x600365f4       0x30 ./component/uart/lpuart_adapter.o
                0x600365f4                HAL_UartIsrFunction
 .text.SerialManager_TxCallback
                0x60036624       0x8c ./component/serial_manager/serial_manager.o
 .text.SerialManager_RxCallback
                0x600366b0      0x214 ./component/serial_manager/serial_manager.o
 .text.SerialManager_Write
                0x600368c4      0x164 ./component/serial_manager/serial_manager.o
 .text.SerialManager_Init
                0x60036a28       0xf4 ./component/serial_manager/serial_manager.o
                0x60036a28                SerialManager_Init
 .text.SerialManager_OpenWriteHandle
                0x60036b1c       0x60 ./component/serial_manager/serial_manager.o
                0x60036b1c                SerialManager_OpenWriteHandle
 .text.SerialManager_CloseWriteHandle
                0x60036b7c       0x6c ./component/serial_manager/serial_manager.o
                0x60036b7c                SerialManager_CloseWriteHandle
 .text.SerialManager_OpenReadHandle
                0x60036be8       0x68 ./component/serial_manager/serial_manager.o
                0x60036be8                SerialManager_OpenReadHandle
 .text.SerialManager_CloseReadHandle
                0x60036c50       0x68 ./component/serial_manager/serial_manager.o
                0x60036c50                SerialManager_CloseReadHandle
 .text.SerialManager_CancelWriting
                0x60036cb8       0xec ./component/serial_manager/serial_manager.o
                0x60036cb8                SerialManager_CancelWriting
 .text.SerialManager_CancelReading
                0x60036da4       0x98 ./component/serial_manager/serial_manager.o
                0x60036da4                SerialManager_CancelReading
 .text.SerialManager_InstallTxCallback
                0x60036e3c       0x4c ./component/serial_manager/serial_manager.o
                0x60036e3c                SerialManager_InstallTxCallback
 .text.SerialManager_InstallRxCallback
                0x60036e88       0x4c ./component/serial_manager/serial_manager.o
                0x60036e88                SerialManager_InstallRxCallback
 .text.Serial_UartInit
                0x60036ed4       0xd8 ./component/serial_manager/serial_port_uart.o
                0x60036ed4                Serial_UartInit
 .text.Serial_UartWrite
                0x60036fac       0x8c ./component/serial_manager/serial_port_uart.o
                0x60036fac                Serial_UartWrite
 .text.Serial_UartCancelWrite
                0x60037038       0x7c ./component/serial_manager/serial_port_uart.o
                0x60037038                Serial_UartCancelWrite
 .text.Serial_UartInstallTxCallback
                0x600370b4       0x34 ./component/serial_manager/serial_port_uart.o
                0x600370b4                Serial_UartInstallTxCallback
 .text.Serial_UartInstallRxCallback
                0x600370e8       0x34 ./component/serial_manager/serial_port_uart.o
                0x600370e8                Serial_UartInstallRxCallback
 .text.Serial_UartIsrFunction
                0x6003711c       0x2c ./component/serial_manager/serial_port_uart.o
                0x6003711c                Serial_UartIsrFunction
 .text.ARM_MPU_Enable
                0x60037148       0x30 ./board/board.o
 .text.ARM_MPU_Disable
                0x60037178       0x2c ./board/board.o
 .text.SCB_EnableICache
                0x600371a4       0x34 ./board/board.o
 .text.SCB_DisableICache
                0x600371d8       0x2c ./board/board.o
 .text.SCB_EnableDCache
                0x60037204       0x78 ./board/board.o
 .text.SCB_DisableDCache
                0x6003727c       0x64 ./board/board.o
 .text.CLOCK_GetMux
                0x600372e0       0x3c ./board/board.o
 .text.CLOCK_GetDiv
                0x6003731c       0x3c ./board/board.o
 .text.CLOCK_GetOscFreq
                0x60037358       0x28 ./board/board.o
 .text.BOARD_DebugConsoleSrcFreq
                0x60037380       0x60 ./board/board.o
                0x60037380                BOARD_DebugConsoleSrcFreq
 .text.BOARD_ConfigMPU
                0x600373e0      0x1bc ./board/board.o
                0x600373e0                BOARD_ConfigMPU
 .text.CLOCK_SetMux
                0x6003759c       0x9c ./board/clock_config.o
 .text.CLOCK_SetDiv
                0x60037638       0x9c ./board/clock_config.o
 .text.CLOCK_SetXtalFreq
                0x600376d4       0x14 ./board/clock_config.o
 .text.CLOCK_SetRtcXtalFreq
                0x600376e8       0x14 ./board/clock_config.o
 .text.BOARD_BootClockRUN
                0x600376fc      0x314 ./board/clock_config.o
                0x600376fc                BOARD_BootClockRUN
 .text.CLOCK_ControlGate
                0x60037a10       0x6c ./board/pin_mux.o
 .text.BOARD_InitSwitches
                0x60037a7c       0x78 ./board/pin_mux.o
                0x60037a7c                BOARD_InitSwitches
 .text.BOARD_InitMicrophone
                0x60037af4      0x1ec ./board/pin_mux.o
                0x60037af4                BOARD_InitMicrophone
 .text.BOARD_InitEthernet
                0x60037ce0      0x1e8 ./board/pin_mux.o
                0x60037ce0                BOARD_InitEthernet
 .text.BOARD_InittJtag
                0x60037ec8       0xa0 ./board/pin_mux.o
                0x60037ec8                BOARD_InittJtag
 .text.BOARD_InitLPI2C
                0x60037f68       0x80 ./board/pin_mux.o
                0x60037f68                BOARD_InitLPI2C
 .text.BOARD_InitLPSPI
                0x60037fe8       0xe8 ./board/pin_mux.o
                0x60037fe8                BOARD_InitLPSPI
 .text.BOARD_InitLPUART
                0x600380d0       0x80 ./board/pin_mux.o
                0x600380d0                BOARD_InitLPUART
 .text.BOARD_InitBootConfig
                0x60038150       0x48 ./board/pin_mux.o
                0x60038150                BOARD_InitBootConfig
 .text.BOARD_InitWifi
                0x60038198       0xfc ./board/pin_mux.o
                0x60038198                BOARD_InitWifi
 .text.BOARD_InitBluetooth
                0x60038294       0xbc ./board/pin_mux.o
                0x60038294                BOARD_InitBluetooth
 .text.BOARD_InitAudioOut
                0x60038350      0x170 ./board/pin_mux.o
                0x60038350                BOARD_InitAudioOut
 .text.BOARD_InitLED
                0x600384c0       0xb0 ./board/pin_mux.o
                0x600384c0                BOARD_InitLED
 .text.prvCheckCertificate
                0x60038570       0xe8 ./amazon-freertos/tls/aws_tls.o
 .text.prvPrivateKeySigningCallback
                0x60038658       0x7c ./amazon-freertos/tls/aws_tls.o
 .text.prvInitializeClientCredential
                0x600386d4      0x2dc ./amazon-freertos/tls/aws_tls.o
 .text.TLS_Init
                0x600389b0       0xc4 ./amazon-freertos/tls/aws_tls.o
                0x600389b0                TLS_Init
 .text.TLS_Connect
                0x60038a74      0x224 ./amazon-freertos/tls/aws_tls.o
                0x60038a74                TLS_Connect
 .text.TLS_Recv
                0x60038c98       0x90 ./amazon-freertos/tls/aws_tls.o
                0x60038c98                TLS_Recv
 .text.TLS_Send
                0x60038d28       0x90 ./amazon-freertos/tls/aws_tls.o
                0x60038d28                TLS_Send
 .text.preparse_value
                0x60038db8      0x208 ./amazon-freertos/tinycbor/cborparser.o
 .text.advance_internal
                0x60038fc0       0x94 ./amazon-freertos/tinycbor/cborparser.o
 .text._cbor_value_decode_int64_internal
                0x60039054       0xa8 ./amazon-freertos/tinycbor/cborparser.o
                0x60039054                _cbor_value_decode_int64_internal
 .text.cbor_value_advance_fixed
                0x600390fc       0x50 ./amazon-freertos/tinycbor/cborparser.o
                0x600390fc                cbor_value_advance_fixed
 .text.cbor_value_advance
                0x6003914c       0x38 ./amazon-freertos/tinycbor/cborparser.o
                0x6003914c                cbor_value_advance
 .text.cbor_value_enter_container
                0x60039184      0x11c ./amazon-freertos/tinycbor/cborparser.o
                0x60039184                cbor_value_enter_container
 .text.cbor_value_leave_container
                0x600392a0       0x4c ./amazon-freertos/tinycbor/cborparser.o
                0x600392a0                cbor_value_leave_container
 .text.iterate_string_chunks
                0x600392ec      0x1f8 ./amazon-freertos/tinycbor/cborparser.o
 .text._cbor_value_copy_string
                0x600394e4       0x5c ./amazon-freertos/tinycbor/cborparser.o
                0x600394e4                _cbor_value_copy_string
 .text.cbor_value_map_find_value
                0x60039540       0xfc ./amazon-freertos/tinycbor/cborparser.o
                0x60039540                cbor_value_map_find_value
 .text.jsmn_parse_string
                0x6003963c      0x2f8 ./amazon-freertos/third_party/jsmn/jsmn.o
 .text.SOCKETS_Connect
                0x60039934      0x100 ./amazon-freertos/secure_sockets/aws_secure_sockets.o
                0x60039934                SOCKETS_Connect
 .text.SOCKETS_SetSockOpt
                0x60039a34      0x2a4 ./amazon-freertos/secure_sockets/aws_secure_sockets.o
                0x60039a34                SOCKETS_SetSockOpt
 .text.prvDefaultOTACompleteCallback
                0x60039cd8       0x90 ./amazon-freertos/ota/aws_ota_agent.o
 .text.OTA_AgentInit
                0x60039d68      0x170 ./amazon-freertos/ota/aws_ota_agent.o
                0x60039d68                OTA_AgentInit
 .text.OTA_AgentShutdown
                0x60039ed8       0x78 ./amazon-freertos/ota/aws_ota_agent.o
                0x60039ed8                OTA_AgentShutdown
 .text.OTA_GetAgentState
                0x60039f50       0x10 ./amazon-freertos/ota/aws_ota_agent.o
                0x60039f50                OTA_GetAgentState
 .text.OTA_GetPacketsDropped
                0x60039f60       0x10 ./amazon-freertos/ota/aws_ota_agent.o
                0x60039f60                OTA_GetPacketsDropped
 .text.OTA_GetPacketsQueued
                0x60039f70       0x10 ./amazon-freertos/ota/aws_ota_agent.o
                0x60039f70                OTA_GetPacketsQueued
 .text.OTA_GetPacketsProcessed
                0x60039f80       0x10 ./amazon-freertos/ota/aws_ota_agent.o
                0x60039f80                OTA_GetPacketsProcessed
 .text.OTA_GetPacketsReceived
                0x60039f90       0x10 ./amazon-freertos/ota/aws_ota_agent.o
                0x60039f90                OTA_GetPacketsReceived
 .text.OTA_CheckForUpdate
                0x60039fa0       0xd8 ./amazon-freertos/ota/aws_ota_agent.o
                0x60039fa0                OTA_CheckForUpdate
 .text.prvAgentShutdownCleanup
                0x6003a078      0x134 ./amazon-freertos/ota/aws_ota_agent.o
 .text.OTA_ActivateNewImage
                0x6003a1ac       0x28 ./amazon-freertos/ota/aws_ota_agent.o
                0x6003a1ac                OTA_ActivateNewImage
 .text.prvResetDevice
                0x6003a1d4       0x34 ./amazon-freertos/ota/aws_ota_agent.o
 .text.OTA_SetImageState
                0x6003a208       0xa0 ./amazon-freertos/ota/aws_ota_agent.o
                0x6003a208                OTA_SetImageState
 .text.OTA_GetImageState
                0x6003a2a8       0x10 ./amazon-freertos/ota/aws_ota_agent.o
                0x6003a2a8                OTA_GetImageState
 .text.prvSetImageStateWithReason
                0x6003a2b8       0xf0 ./amazon-freertos/ota/aws_ota_agent.o
 .text.prvUpdateJobStatus
                0x6003a3a8      0x2d0 ./amazon-freertos/ota/aws_ota_agent.o
 .text.prvPublishGetStreamMessage
                0x6003a678      0x148 ./amazon-freertos/ota/aws_ota_agent.o
 .text.prvOTAPublishCallback
                0x6003a7c0       0xa4 ./amazon-freertos/ota/aws_ota_agent.o
 .text.prvOTAUpdateTask
                0x6003a864      0x2f0 ./amazon-freertos/ota/aws_ota_agent.o
 .text.OTA_CheckForSelfTest
                0x6003ab54       0xc4 ./amazon-freertos/ota/aws_ota_agent.o
 .text.prvSelfTestTimer_Callback
                0x6003ac18       0x28 ./amazon-freertos/ota/aws_ota_agent.o
 .text.prvStopSelfTestTimer
                0x6003ac40       0x40 ./amazon-freertos/ota/aws_ota_agent.o
 .text.prvRequestTimer_Callback
                0x6003ac80       0x2c ./amazon-freertos/ota/aws_ota_agent.o
 .text.prvStartRequestTimer
                0x6003acac       0x90 ./amazon-freertos/ota/aws_ota_agent.o
 .text.prvStopRequestTimer
                0x6003ad3c       0x38 ./amazon-freertos/ota/aws_ota_agent.o
 .text.prvOTA_Close
                0x6003ad74      0x110 ./amazon-freertos/ota/aws_ota_agent.o
 .text.prvGetFreeContext
                0x6003ae84       0x70 ./amazon-freertos/ota/aws_ota_agent.o
 .text.prvParseJSONbyModel
                0x6003aef4      0x5b8 ./amazon-freertos/ota/aws_ota_agent.o
 .text.prvInitDocModel
                0x6003b4ac       0xe0 ./amazon-freertos/ota/aws_ota_agent.o
 .text.prvParseJobDoc
                0x6003b58c      0x274 ./amazon-freertos/ota/aws_ota_agent.o
 .text.prvIngestDataBlock
                0x6003b800      0x2a8 ./amazon-freertos/ota/aws_ota_agent.o
 .text.prvSubscribeToJobNotificationTopics
                0x6003baa8      0x114 ./amazon-freertos/ota/aws_ota_agent.o
 .text.prvSubscribeToDataStream
                0x6003bbbc       0xd0 ./amazon-freertos/ota/aws_ota_agent.o
 .text.prvUnSubscribeFromDataStream
                0x6003bc8c       0xb0 ./amazon-freertos/ota/aws_ota_agent.o
 .text.prvUnSubscribeFromJobNotificationTopic
                0x6003bd3c       0xd8 ./amazon-freertos/ota/aws_ota_agent.o
 .text.prvPublishMessage
                0x6003be14       0x68 ./amazon-freertos/ota/aws_ota_agent.o
 .text.cbor_value_get_int
                0x6003be7c       0x4c ./amazon-freertos/ota/aws_ota_cbor.o
 .text.cbor_value_copy_byte_string
                0x6003bec8       0x38 ./amazon-freertos/ota/aws_ota_cbor.o
 .text.OTA_CBOR_Decode_GetStreamResponseMessage
                0x6003bf00      0x1a4 ./amazon-freertos/ota/aws_ota_cbor.o
                0x6003bf00                OTA_CBOR_Decode_GetStreamResponseMessage
 .text.OTA_CBOR_Encode_GetStreamRequestMessage
                0x6003c0a4      0x148 ./amazon-freertos/ota/aws_ota_cbor.o
                0x6003c0a4                OTA_CBOR_Encode_GetStreamRequestMessage
 .text.prvMQTTSendCallback
                0x6003c1ec       0x90 ./amazon-freertos/mqtt/aws_mqtt_agent.o
 .text.prvMQTTEventCallback
                0x6003c27c       0xc8 ./amazon-freertos/mqtt/aws_mqtt_agent.o
 .text.prvGetFreeConnection
                0x6003c344       0x68 ./amazon-freertos/mqtt/aws_mqtt_agent.o
 .text.prvReturnConnection
                0x6003c3ac       0x30 ./amazon-freertos/mqtt/aws_mqtt_agent.o
 .text.prvSetupConnection
                0x6003c3dc      0x1e8 ./amazon-freertos/mqtt/aws_mqtt_agent.o
 .text.prvMQTTClientSocketWakeupCallback
                0x6003c5c4       0x48 ./amazon-freertos/mqtt/aws_mqtt_agent.o
 .text.prvManageConnections
                0x6003c60c       0xf4 ./amazon-freertos/mqtt/aws_mqtt_agent.o
 .text.prvInitiateMQTTConnect
                0x6003c700      0x154 ./amazon-freertos/mqtt/aws_mqtt_agent.o
 .text.prvInitiateMQTTDisconnect
                0x6003c854       0x54 ./amazon-freertos/mqtt/aws_mqtt_agent.o
 .text.prvInitiateMQTTSubscribe
                0x6003c8a8       0xb0 ./amazon-freertos/mqtt/aws_mqtt_agent.o
 .text.prvInitiateMQTTUnSubscribe
                0x6003c958       0x94 ./amazon-freertos/mqtt/aws_mqtt_agent.o
 .text.prvInitiateMQTTPublish
                0x6003c9ec       0xe4 ./amazon-freertos/mqtt/aws_mqtt_agent.o
 .text.prvSendCommandToMQTTTask
                0x6003cad0       0xe8 ./amazon-freertos/mqtt/aws_mqtt_agent.o
 .text.prvMQTTTask
                0x6003cbb8       0xb0 ./amazon-freertos/mqtt/aws_mqtt_agent.o
 .text.MQTT_AGENT_Init
                0x6003cc68      0x190 ./amazon-freertos/mqtt/aws_mqtt_agent.o
                0x6003cc68                MQTT_AGENT_Init
 .text.prvProcessReceivedCONNACK
                0x6003cdf8      0x1b4 ./amazon-freertos/mqtt/aws_mqtt_lib.o
 .text.prvProcessReceivedUNSUBACK
                0x6003cfac      0x100 ./amazon-freertos/mqtt/aws_mqtt_lib.o
 .text.prvProcessReceivedPUBACK
                0x6003d0ac       0xf8 ./amazon-freertos/mqtt/aws_mqtt_lib.o
 .text.prvProcessReceivedPINGRESP
                0x6003d1a4       0x88 ./amazon-freertos/mqtt/aws_mqtt_lib.o
 .text.prvProcessReceivedPublish
                0x6003d22c      0x170 ./amazon-freertos/mqtt/aws_mqtt_lib.o
 .text.MQTT_Connect
                0x6003d39c      0x2a0 ./amazon-freertos/mqtt/aws_mqtt_lib.o
                0x6003d39c                MQTT_Connect
 .text.MQTT_Disconnect
                0x6003d63c       0x64 ./amazon-freertos/mqtt/aws_mqtt_lib.o
                0x6003d63c                MQTT_Disconnect
 .text.MQTT_Periodic
                0x6003d6a0      0x14c ./amazon-freertos/mqtt/aws_mqtt_lib.o
                0x6003d6a0                MQTT_Periodic
 .text.xLoggingTaskInitialize
                0x6003d7ec       0x74 ./amazon-freertos/logging/aws_logging_task_dynamic_buffers.o
                0x6003d7ec                xLoggingTaskInitialize
 .text.prvLoggingTask
                0x6003d860       0x38 ./amazon-freertos/logging/aws_logging_task_dynamic_buffers.o
 .text.vLoggingPrintf
                0x6003d898       0xfc ./amazon-freertos/logging/aws_logging_task_dynamic_buffers.o
                0x6003d898                vLoggingPrintf
 .text.CRYPTO_ConfigureHeap
                0x6003d994       0x18 ./amazon-freertos/crypto/aws_crypto.o
                0x6003d994                CRYPTO_ConfigureHeap
 .text.BUFFERPOOL_Init
                0x6003d9ac       0x40 ./amazon-freertos/bufferpool/aws_bufferpool_static_thread_safe.o
                0x6003d9ac                BUFFERPOOL_Init
 .text.BUFFERPOOL_GetFreeBuffer
                0x6003d9ec       0x9c ./amazon-freertos/bufferpool/aws_bufferpool_static_thread_safe.o
                0x6003d9ec                BUFFERPOOL_GetFreeBuffer
 .text.vPortSetupTimerInterrupt
                0x6003da88       0x3c ./amazon-freertos/FreeRTOS/portable/fsl_tickless_systick.o
                0x6003da88                vPortSetupTimerInterrupt
 .text.pvPortMalloc
                0x6003dac4      0x144 ./amazon-freertos/FreeRTOS/portable/heap_4.o
                0x6003dac4                pvPortMalloc
 .text.vPortFree
                0x6003dc08       0x80 ./amazon-freertos/FreeRTOS/portable/heap_4.o
                0x6003dc08                vPortFree
 .text.prvHeapInit
                0x6003dc88       0xbc ./amazon-freertos/FreeRTOS/portable/heap_4.o
 .text.prvInsertBlockIntoFreeList
                0x6003dd44       0xa8 ./amazon-freertos/FreeRTOS/portable/heap_4.o
 .text.xPortStartScheduler
                0x6003ddec       0xe8 ./amazon-freertos/FreeRTOS/portable/port.o
                0x6003ddec                xPortStartScheduler
 .text.vPortEnterCritical
                0x6003ded4       0x28 ./amazon-freertos/FreeRTOS/portable/port.o
                0x6003ded4                vPortEnterCritical
 .text.vPortExitCritical
                0x6003defc       0x28 ./amazon-freertos/FreeRTOS/portable/port.o
                0x6003defc                vPortExitCritical
 .text.SysTick_Handler
                0x6003df24       0x40 ./amazon-freertos/FreeRTOS/portable/port.o
                0x6003df24                SysTick_Handler
 .text.vPortEnableVFP
                0x6003df64       0x14 ./amazon-freertos/FreeRTOS/portable/port.o
 .text.vPortValidateInterruptPriority
                0x6003df78       0x24 ./amazon-freertos/FreeRTOS/portable/port.o
                0x6003df78                vPortValidateInterruptPriority
 .text.xEventGroupWaitBits
                0x6003df9c      0x114 ./amazon-freertos/FreeRTOS/event_groups.o
                0x6003df9c                xEventGroupWaitBits
 .text.xQueueGenericReset
                0x6003e0b0       0xb4 ./amazon-freertos/FreeRTOS/queue.o
                0x6003e0b0                xQueueGenericReset
 .text.xQueueGenericSend
                0x6003e164      0x150 ./amazon-freertos/FreeRTOS/queue.o
                0x6003e164                xQueueGenericSend
 .text.xQueueReceive
                0x6003e2b4      0x140 ./amazon-freertos/FreeRTOS/queue.o
                0x6003e2b4                xQueueReceive
 .text.xQueueSemaphoreTake
                0x6003e3f4      0x18c ./amazon-freertos/FreeRTOS/queue.o
                0x6003e3f4                xQueueSemaphoreTake
 .text.vQueueAddToRegistry
                0x6003e580       0x48 ./amazon-freertos/FreeRTOS/queue.o
                0x6003e580                vQueueAddToRegistry
 .text.vQueueUnregisterQueue
                0x6003e5c8       0x48 ./amazon-freertos/FreeRTOS/queue.o
                0x6003e5c8                vQueueUnregisterQueue
 .text.prvAddNewTaskToReadyList
                0x6003e610       0xdc ./amazon-freertos/FreeRTOS/tasks.o
 .text.vTaskDelete
                0x6003e6ec       0xc0 ./amazon-freertos/FreeRTOS/tasks.o
                0x6003e6ec                vTaskDelete
 .text.vTaskDelay
                0x6003e7ac       0x44 ./amazon-freertos/FreeRTOS/tasks.o
                0x6003e7ac                vTaskDelay
 .text.vTaskStartScheduler
                0x6003e7f0       0xa8 ./amazon-freertos/FreeRTOS/tasks.o
                0x6003e7f0                vTaskStartScheduler
 .text.vTaskSuspendAll
                0x6003e898       0x14 ./amazon-freertos/FreeRTOS/tasks.o
                0x6003e898                vTaskSuspendAll
 .text.xTaskResumeAll
                0x6003e8ac      0x11c ./amazon-freertos/FreeRTOS/tasks.o
                0x6003e8ac                xTaskResumeAll
 .text.xTaskGetTickCount
                0x6003e9c8       0x14 ./amazon-freertos/FreeRTOS/tasks.o
                0x6003e9c8                xTaskGetTickCount
 .text.pcTaskGetName
                0x6003e9dc       0x24 ./amazon-freertos/FreeRTOS/tasks.o
                0x6003e9dc                pcTaskGetName
 .text.xTaskIncrementTick
                0x6003ea00      0x150 ./amazon-freertos/FreeRTOS/tasks.o
                0x6003ea00                xTaskIncrementTick
 .text.vTaskSwitchContext
                0x6003eb50       0xe8 ./amazon-freertos/FreeRTOS/tasks.o
                0x6003eb50                vTaskSwitchContext
 .text.vTaskPlaceOnEventList
                0x6003ec38       0x2c ./amazon-freertos/FreeRTOS/tasks.o
                0x6003ec38                vTaskPlaceOnEventList
 .text.vTaskPlaceOnUnorderedEventList
                0x6003ec64       0x38 ./amazon-freertos/FreeRTOS/tasks.o
                0x6003ec64                vTaskPlaceOnUnorderedEventList
 .text.vTaskPlaceOnEventListRestricted
                0x6003ec9c       0x38 ./amazon-freertos/FreeRTOS/tasks.o
                0x6003ec9c                vTaskPlaceOnEventListRestricted
 .text.xTaskRemoveFromEventList
                0x6003ecd4       0xa8 ./amazon-freertos/FreeRTOS/tasks.o
                0x6003ecd4                xTaskRemoveFromEventList
 .text.vTaskRemoveFromUnorderedEventList
                0x6003ed7c       0x84 ./amazon-freertos/FreeRTOS/tasks.o
                0x6003ed7c                vTaskRemoveFromUnorderedEventList
 .text.vTaskSetTimeOutState
                0x6003ee00       0x30 ./amazon-freertos/FreeRTOS/tasks.o
                0x6003ee00                vTaskSetTimeOutState
 .text.vTaskInternalSetTimeOutState
                0x6003ee30       0x24 ./amazon-freertos/FreeRTOS/tasks.o
                0x6003ee30                vTaskInternalSetTimeOutState
 .text.xTaskCheckForTimeOut
                0x6003ee54       0x8c ./amazon-freertos/FreeRTOS/tasks.o
                0x6003ee54                xTaskCheckForTimeOut
 .text.vTaskMissedYield
                0x6003eee0       0x10 ./amazon-freertos/FreeRTOS/tasks.o
                0x6003eee0                vTaskMissedYield
 .text.prvIdleTask
                0x6003eef0       0x2c ./amazon-freertos/FreeRTOS/tasks.o
 .text.prvInitialiseTaskLists
                0x6003ef1c       0x7c ./amazon-freertos/FreeRTOS/tasks.o
 .text.prvCheckTasksWaitingTermination
                0x6003ef98       0x58 ./amazon-freertos/FreeRTOS/tasks.o
 .text.prvResetNextTaskUnblockTime
                0x6003eff0       0x38 ./amazon-freertos/FreeRTOS/tasks.o
 .text.xTaskGetCurrentTaskHandle
                0x6003f028       0x14 ./amazon-freertos/FreeRTOS/tasks.o
                0x6003f028                xTaskGetCurrentTaskHandle
 .text.xTaskGetSchedulerState
                0x6003f03c       0x34 ./amazon-freertos/FreeRTOS/tasks.o
                0x6003f03c                xTaskGetSchedulerState
 .text.xTaskPriorityInherit
                0x6003f070       0xd0 ./amazon-freertos/FreeRTOS/tasks.o
                0x6003f070                xTaskPriorityInherit
 .text.xTaskPriorityDisinherit
                0x6003f140       0x98 ./amazon-freertos/FreeRTOS/tasks.o
                0x6003f140                xTaskPriorityDisinherit
 .text.vTaskPriorityDisinheritAfterTimeout
                0x6003f1d8       0xc0 ./amazon-freertos/FreeRTOS/tasks.o
                0x6003f1d8                vTaskPriorityDisinheritAfterTimeout
 .text.uxTaskResetEventItemValue
                0x6003f298       0x28 ./amazon-freertos/FreeRTOS/tasks.o
                0x6003f298                uxTaskResetEventItemValue
 .text.pvTaskIncrementMutexHeldCount
                0x6003f2c0       0x20 ./amazon-freertos/FreeRTOS/tasks.o
                0x6003f2c0                pvTaskIncrementMutexHeldCount
 .text.xTaskNotifyWait
                0x6003f2e0       0xb4 ./amazon-freertos/FreeRTOS/tasks.o
                0x6003f2e0                xTaskNotifyWait
 .text.xTaskGenericNotify
                0x6003f394      0x118 ./amazon-freertos/FreeRTOS/tasks.o
                0x6003f394                xTaskGenericNotify
 .text.xTaskNotifyStateClear
                0x6003f4ac       0x4c ./amazon-freertos/FreeRTOS/tasks.o
                0x6003f4ac                xTaskNotifyStateClear
 .text.prvAddCurrentTaskToDelayedList
                0x6003f4f8       0xa8 ./amazon-freertos/FreeRTOS/tasks.o
 .text.xTimerCreateTimerTask
                0x6003f5a0       0x70 ./amazon-freertos/FreeRTOS/timers.o
                0x6003f5a0                xTimerCreateTimerTask
 .text.xTimerGenericCommand
                0x6003f610       0x78 ./amazon-freertos/FreeRTOS/timers.o
                0x6003f610                xTimerGenericCommand
 .text.prvProcessExpiredTimer
                0x6003f688       0x64 ./amazon-freertos/FreeRTOS/timers.o
 .text.prvProcessTimerOrBlockTask
                0x6003f6ec       0x98 ./amazon-freertos/FreeRTOS/timers.o
 .text.prvGetNextExpireTime
                0x6003f784       0x3c ./amazon-freertos/FreeRTOS/timers.o
 .text.prvSampleTimeNow
                0x6003f7c0       0x3c ./amazon-freertos/FreeRTOS/timers.o
 .text.prvInsertTimerInActiveList
                0x6003f7fc       0x84 ./amazon-freertos/FreeRTOS/timers.o
 .text.prvProcessReceivedCommands
                0x6003f880      0x10c ./amazon-freertos/FreeRTOS/timers.o
 .text.prvSwitchTimerLists
                0x6003f98c       0xa4 ./amazon-freertos/FreeRTOS/timers.o
 .text.prvCheckForValidListAndQueue
                0x6003fa30       0x80 ./amazon-freertos/FreeRTOS/timers.o
 .text.__assertion_failed
                0x6003fab0       0x4c c:/nxp/mcuxpressoide_10.3.1_2233/ide/plugins/com.nxp.mcuxpresso.tools.win32_10.3.0.201811011841/tools/bin/../lib/gcc/arm-none-eabi/7.3.1/../../../../arm-none-eabi/lib/thumb/v7e-m/fpv5/hard\libcr_nohost_nf.a(_cr_assert.o)
                0x6003fab0                __assertion_failed
 .text._Cwritebuf
                0x6003fafc       0x6c c:/nxp/mcuxpressoide_10.3.1_2233/ide/plugins/com.nxp.mcuxpresso.tools.win32_10.3.0.201811011841/tools/bin/../lib/gcc/arm-none-eabi/7.3.1/../../../../arm-none-eabi/lib/thumb/v7e-m/fpv5/hard\libcr_c.a(_writebuf.o)
                0x6003fafc                _Cwritebuf
 .text.malloc   0x6003fb68       0xc8 c:/nxp/mcuxpressoide_10.3.1_2233/ide/plugins/com.nxp.mcuxpresso.tools.win32_10.3.0.201811011841/tools/bin/../lib/gcc/arm-none-eabi/7.3.1/../../../../arm-none-eabi/lib/thumb/v7e-m/fpv5/hard\libcr_c.a(alloc.o)
                0x6003fb68                malloc
 .text._Csys_alloc
                0x6003fc30       0x20 c:/nxp/mcuxpressoide_10.3.1_2233/ide/plugins/com.nxp.mcuxpresso.tools.win32_10.3.0.201811011841/tools/bin/../lib/gcc/arm-none-eabi/7.3.1/../../../../arm-none-eabi/lib/thumb/v7e-m/fpv5/hard\libcr_c.a(alloc.o)
                0x6003fc30                _Csys_alloc
 .text.tolower  0x6003fc50       0x14 c:/nxp/mcuxpressoide_10.3.1_2233/ide/plugins/com.nxp.mcuxpresso.tools.win32_10.3.0.201811011841/tools/bin/../lib/gcc/arm-none-eabi/7.3.1/../../../../arm-none-eabi/lib/thumb/v7e-m/fpv5/hard\libcr_c.a(ctype.o)
                0x6003fc50                tolower
 .text.fseek    0x6003fc64      0x100 c:/nxp/mcuxpressoide_10.3.1_2233/ide/plugins/com.nxp.mcuxpresso.tools.win32_10.3.0.201811011841/tools/bin/../lib/gcc/arm-none-eabi/7.3.1/../../../../arm-none-eabi/lib/thumb/v7e-m/fpv5/hard\libcr_c.a(fseek.o)
                0x6003fc64                fseek
 .text.ftell    0x6003fd64       0x44 c:/nxp/mcuxpressoide_10.3.1_2233/ide/plugins/com.nxp.mcuxpresso.tools.win32_10.3.0.201811011841/tools/bin/../lib/gcc/arm-none-eabi/7.3.1/../../../../arm-none-eabi/lib/thumb/v7e-m/fpv5/hard\libcr_c.a(ftell.o)
                0x6003fd64                ftell
 .text._initio  0x6003fda8       0x78 c:/nxp/mcuxpressoide_10.3.1_2233/ide/plugins/com.nxp.mcuxpresso.tools.win32_10.3.0.201811011841/tools/bin/../lib/gcc/arm-none-eabi/7.3.1/../../../../arm-none-eabi/lib/thumb/v7e-m/fpv5/hard\libcr_c.a(initio.o)
                0x6003fda8                _initio
 .text.__vfprintf
                0x6003fe20      0xb84 c:/nxp/mcuxpressoide_10.3.1_2233/ide/plugins/com.nxp.mcuxpresso.tools.win32_10.3.0.201811011841/tools/bin/../lib/gcc/arm-none-eabi/7.3.1/../../../../arm-none-eabi/lib/thumb/v7e-m/fpv5/hard\libcr_c.a(printf.o)
                0x6003fe20                __vfprintf
 .text._snprintf
                0x600409a4       0x78 c:/nxp/mcuxpressoide_10.3.1_2233/ide/plugins/com.nxp.mcuxpresso.tools.win32_10.3.0.201811011841/tools/bin/../lib/gcc/arm-none-eabi/7.3.1/../../../../arm-none-eabi/lib/thumb/v7e-m/fpv5/hard\libcr_c.a(printf.o)
                0x600409a4                _snprintf
 .text._vsnprintf
                0x60040a1c       0x68 c:/nxp/mcuxpressoide_10.3.1_2233/ide/plugins/com.nxp.mcuxpresso.tools.win32_10.3.0.201811011841/tools/bin/../lib/gcc/arm-none-eabi/7.3.1/../../../../arm-none-eabi/lib/thumb/v7e-m/fpv5/hard\libcr_c.a(printf.o)
                0x60040a1c                _vsnprintf
 .text.ch_val   0x60040a84       0x30 c:/nxp/mcuxpressoide_10.3.1_2233/ide/plugins/com.nxp.mcuxpresso.tools.win32_10.3.0.201811011841/tools/bin/../lib/gcc/arm-none-eabi/7.3.1/../../../../arm-none-eabi/lib/thumb/v7e-m/fpv5/hard\libcr_c.a(scanf.o)
 .text._strtoul
                0x60040ab4       0xb4 c:/nxp/mcuxpressoide_10.3.1_2233/ide/plugins/com.nxp.mcuxpresso.tools.win32_10.3.0.201811011841/tools/bin/../lib/gcc/arm-none-eabi/7.3.1/../../../../arm-none-eabi/lib/thumb/v7e-m/fpv5/hard\libcr_c.a(scanf.o)
 .text.cr_rd_int
                0x60040b68      0x1a8 c:/nxp/mcuxpressoide_10.3.1_2233/ide/plugins/com.nxp.mcuxpresso.tools.win32_10.3.0.201811011841/tools/bin/../lib/gcc/arm-none-eabi/7.3.1/../../../../arm-none-eabi/lib/thumb/v7e-m/fpv5/hard\libcr_c.a(scanf.o)
 .text.strtol   0x60040d10       0x7c c:/nxp/mcuxpressoide_10.3.1_2233/ide/plugins/com.nxp.mcuxpresso.tools.win32_10.3.0.201811011841/tools/bin/../lib/gcc/arm-none-eabi/7.3.1/../../../../arm-none-eabi/lib/thumb/v7e-m/fpv5/hard\libcr_c.a(scanf.o)
                0x60040d10                strtol
 .text.strtoul  0x60040d8c       0x8c c:/nxp/mcuxpressoide_10.3.1_2233/ide/plugins/com.nxp.mcuxpresso.tools.win32_10.3.0.201811011841/tools/bin/../lib/gcc/arm-none-eabi/7.3.1/../../../../arm-none-eabi/lib/thumb/v7e-m/fpv5/hard\libcr_c.a(scanf.o)
                0x60040d8c                strtoul
 .text.atoi     0x60040e18       0x18 c:/nxp/mcuxpressoide_10.3.1_2233/ide/plugins/com.nxp.mcuxpresso.tools.win32_10.3.0.201811011841/tools/bin/../lib/gcc/arm-none-eabi/7.3.1/../../../../arm-none-eabi/lib/thumb/v7e-m/fpv5/hard\libcr_c.a(scanf.o)
                0x60040e18                atoi
 .text.setvbuf  0x60040e30       0x40 c:/nxp/mcuxpressoide_10.3.1_2233/ide/plugins/com.nxp.mcuxpresso.tools.win32_10.3.0.201811011841/tools/bin/../lib/gcc/arm-none-eabi/7.3.1/../../../../arm-none-eabi/lib/thumb/v7e-m/fpv5/hard\libcr_c.a(setvbuf.o)
                0x60040e30                setvbuf
 .text.__filbuf
                0x60040e70      0x178 c:/nxp/mcuxpressoide_10.3.1_2233/ide/plugins/com.nxp.mcuxpresso.tools.win32_10.3.0.201811011841/tools/bin/../lib/gcc/arm-none-eabi/7.3.1/../../../../arm-none-eabi/lib/thumb/v7e-m/fpv5/hard\libcr_c.a(__fillbuf.o)
                0x60040e70                __filbuf
 .text._sbrk    0x60040fe8       0x3c c:/nxp/mcuxpressoide_10.3.1_2233/ide/plugins/com.nxp.mcuxpresso.tools.win32_10.3.0.201811011841/tools/bin/../lib/gcc/arm-none-eabi/7.3.1/../../../../arm-none-eabi/lib/thumb/v7e-m/fpv5/hard\libcr_c.a(_cr_sbrk.o)
                0x60040fe8                _sbrk
 .text.fflush   0x60041024       0x44 c:/nxp/mcuxpressoide_10.3.1_2233/ide/plugins/com.nxp.mcuxpresso.tools.win32_10.3.0.201811011841/tools/bin/../lib/gcc/arm-none-eabi/7.3.1/../../../../arm-none-eabi/lib/thumb/v7e-m/fpv5/hard\libcr_c.a(fflush.o)
                0x60041024                fflush
 .text.__check_heap_overflow
                0x60041068       0x18 c:/nxp/mcuxpressoide_10.3.1_2233/ide/plugins/com.nxp.mcuxpresso.tools.win32_10.3.0.201811011841/tools/bin/../lib/gcc/arm-none-eabi/7.3.1/../../../../arm-none-eabi/lib/thumb/v7e-m/fpv5/hard\libcr_c.a(_cr_check_heap.o)
                0x60041068                __check_heap_overflow
 .text.EnableIRQ
                0x60041080       0x2c ./wifi_wwd/platform/wwd_SDIO.o
 .text.GPIO_PortEnableInterrupts
                0x600410ac       0x18 ./wifi_wwd/platform/wwd_SDIO.o
 .text.GPIO_PortClearInterruptFlags
                0x600410c4       0x12 ./wifi_wwd/platform/wwd_SDIO.o
 .text.USDHC_EnableInterruptStatus
                0x600410d6       0x18 ./wifi_wwd/platform/wwd_SDIO.o
 .text.USDHC_EnableInterruptSignal
                0x600410ee       0x18 ./wifi_wwd/platform/wwd_SDIO.o
 .text.USDHC_ClearInterruptStatusFlags
                0x60041106       0x12 ./wifi_wwd/platform/wwd_SDIO.o
 .text.USDHC_SetDataBusWidth
                0x60041118       0x28 ./wifi_wwd/platform/wwd_SDIO.o
 .text.BOARD_PowerOffSDIOCARD
                0x60041140        0x4 ./wifi_wwd/platform/wwd_SDIO.o
 .text.host_enable_oob_interrupt
                0x60041144        0xc ./wifi_wwd/platform/wwd_SDIO.o
                0x60041144                host_enable_oob_interrupt
 .text.host_platform_get_oob_interrupt_pin
                0x60041150        0x6 ./wifi_wwd/platform/wwd_SDIO.o
                0x60041150                host_platform_get_oob_interrupt_pin
 .text.find_optimal_block_size
                0x60041156       0x62 ./wifi_wwd/platform/wwd_SDIO.o
 .text.host_platform_sdio_irq_callback
                0x600411b8       0x14 ./wifi_wwd/platform/wwd_SDIO.o
                0x600411b8                host_platform_sdio_irq_callback
 .text.ble_init_gpio
                0x600411cc        0x4 ./wifi_wwd/platform/wwd_platform.o
                0x600411cc                ble_init_gpio
 .text.host_platform_bt_pwr_pin_init
                0x600411d0        0xa ./wifi_wwd/platform/wwd_platform.o
 .text.host_platform_wifi_pwr_pin_init
                0x600411da        0x4 ./wifi_wwd/platform/wwd_platform.o
 .text.host_platform_init
                0x600411de       0x1e ./wifi_wwd/platform/wwd_platform.o
                0x600411de                host_platform_init
 .text.host_platform_reset_wifi
                0x600411fc        0xe ./wifi_wwd/platform/wwd_platform.o
                0x600411fc                host_platform_reset_wifi
 .text.host_platform_power_wifi
                0x6004120a        0xe ./wifi_wwd/platform/wwd_platform.o
                0x6004120a                host_platform_power_wifi
 .text.host_platform_init_wlan_powersave_clock
                0x60041218        0x6 ./wifi_wwd/platform/wwd_platform.o
                0x60041218                host_platform_init_wlan_powersave_clock
 .text.resource_read
                0x6004121e       0x56 ./wifi_wwd/platform/wwd_resources.o
                0x6004121e                resource_read
 .text.internal_host_buffer_get
                0x60041274       0x74 ./wifi_wwd/network/wwd_buffer.o
                0x60041274                internal_host_buffer_get
 .text.host_buffer_get
                0x600412e8       0x4a ./wifi_wwd/network/wwd_buffer.o
                0x600412e8                host_buffer_get
 .text.host_buffer_release
                0x60041332       0x1a ./wifi_wwd/network/wwd_buffer.o
                0x60041332                host_buffer_release
 .text.host_buffer_get_current_piece_data_pointer
                0x6004134c        0xe ./wifi_wwd/network/wwd_buffer.o
                0x6004134c                host_buffer_get_current_piece_data_pointer
